:040000009DEF0CF074
:1000080000C018F001C017F002C016F003C015F0C8
:10001800E1CF1BF0E2CF1CF0E9CF19F0EACF1AF0DC
:10002800450E0101706F010E716FE7EC05F018C005
:1000380000F017C001F016C002F015C003F019C097
:10004800E9FF1AC0EAFF1BC0E1FF1CC0E2FF110074
:0E005800ACB202D00000FCD76FC1ADFF1200A9
:100066006FC1C9FFC7B002D00000FCD7C9CF00F0EE
:02007600120076
:0A007800000E9EBA010E006E120089
:10008200AECF01F0ABA202D0AB98AB8801C000F0BA
:0200920012005A
:0A009400000EACB2010E006E120067
:10009E000B840BAE5AEF00F0010E036E026A016A7A
:0A00AE00006A0A360232FF0E12004B
:1000B800A69C6DC1AAFF6CC1A9FFA69EA680A8CF69
:0400C80000F0120032
:0800CC000AAE029E000E1200B4
:1000D400F250026EF29E0500FF6A0150FE6E00505F
:0800E400FD6E02BEF28E120057
:1000EC00A6A202D00000FCD7A69C6DC1AAFF6CC1D1
:1000FC00A9FF6EC1A8FFA69EA684F2CF00F0F29EC7
:10010C00550EA76EAA0EA76EA68200BE02D0F29E56
:08011C0001D0F28EA69412003E
:0E012400026A016A006A086A036A000E12008D
:10013200FF0E01016515696F000E6515056EFF0E54
:100142006615066E67C107F068C108F0000E071653
:10015200081606C000F007C001F008C002F0036AEA
:1001620000C06AF1000E6515056E000E6615066E7A
:10017200FF0E6715076E000E6815086E07C000F0C7
:1001820008C001F0026A036A00C06BF1000E651537
:10019200056E000E6615066E000E6715076EFF0EE1
:1001A2006815086E08C000F0016A026A036A63C13A
:1001B2006CF164C16DF100C06EF197DF0101634B18
:1001C200642B63C16CF164C16DF16BC16EF18DDFA3
:1001D2000101634B642B63C16CF164C16DF16AC1AF
:1001E2006EF183DF0101634B642B63C16CF164C167
:0A01F2006DF169C16EF179DF1200B2
:1001FC000B6A0A6A096A00500402F4CF09F0F3CFC3
:10020C0008F001500502F4CF0BF0F3CF0AF00050C8
:10021C000502F3500926F4500A22E86A0B22015019
:10022C000402F3500926F4500A22E86A0B2208C093
:10023C0000F009C001F00AC002F00BC003F012007C
:10024C000C6A0E6A0250D8A43FEF01F001C002F014
:10025C0000C001F0006A0E860250D8A43FEF01F0F6
:10026C0001C002F0016A0E960E880250D8B451EF0C
:10027C0001F00E50035ED8A4D8A056EF01F0D89030
:10028C0002BE5BEF01F0003601360236032E46EF5C
:10029C0001F056EF01F0010E0C6E3EDF5EEF01F047
:1002AC00020E0C6EF6DE5EEF01F0040E0C6E08DF33
:0202BC0012002E
:1002BE000101656B666B676B686B63C16CF164C142
:1002CE006DF1F3DE00C005F0000E066E076E086ECF
:1002DE0005C003F0006A016A026A005065270150EA
:1002EE0066230250672303506823634B642B63C15C
:1002FE006CF164C16DF1D9DE00C005F0000E066E22
:10030E00076E086E06C003F005C002F0006A016AAF
:10031E00005065270150662302506723035068235F
:10032E00634B642B63C16CF164C16DF1BEDE00C022
:10033E0005F0000E066E076E086E07C003F006C0CD
:10034E0002F005C001F0006A0050652701506623D7
:10035E000250672303506823634B642B63C16CF117
:10036E0064C16DF1A2DE000E016E026E036E655168
:10037E00002666510122675102226851032200C0F5
:10038E0065F101C066F102C067F103C068F11200A9
:10039E0051C069F1435204E0010E51180101696F19
:1003AE00010180846505686F46C0E1FF47C0E2FF2A
:1003BE00960EE66E44C000F045C001F084DE0101E9
:1003CE006951960A04E06951A90A01E002D06971E7
:1003DE00658D46C0E1FF47C0E2FF69C1E6FF44C03C
:1003EE0000F045C001F06FDE0101666B6651685D7D
:1003FE0032E366516325E96E000E6421EA6EEECF9C
:10040E0001F001C06AF10150960A04E06A51A90A8E
:10041E0001E01FD066516325016E000E6421026E4D
:10042E0001C0E9FF02C0EAFF010EEE18006E01C026
:10043E00E1FF02C0E2FF00C0E6FF66C101F0040E5C
:10044E00006E015004E000360090FF0FFBD7005005
:10045E006513662BCBD746C0E1FF47C0E2FF65C1EF
:10046E00E6FF44C000F045C001F02DDE01016951E8
:10047E006519676F666B6651685D1EE3665163258D
:10048E00006E000E6421016E00C0D9FF01C0DAFFBC
:10049E00DE50671B46C0E1FF47C0E2FF00C0E9FF28
:1004AE0001C0EAFFEECFE6FF44C000F045C001F008
:1004BE000ADE0101662BDFD7671D016E01C067F1F1
:1004CE000150960A04E06751A90A01E001D0672B9A
:1004DE0046C0E1FF47C0E2FF67C1E6FF44C000F03F
:1004EE0045C001F0F0DD46C0E1FF47C0E2FFA90EB6
:1004FE00E66E44C000F045C001F0E5DD3FC000F0FF
:10050E0040C001F0E0DD0050000A01E1F7D7809411
:02051E001200C9
:1005200063C15EF064C15FF065C160F0616A626AD8
:06053000636A646A120018
:0A053600030E0D6E0D2EFED712000D
:1005400003500718D8A4B4EF02F002500618D8A43C
:10055000B4EF02F001500518D8A4B4EF02F0005037
:0E0560000418D8B4D8841200D89412001200E7
:10056E00500E0101636F000E646F39C165F13AC11F
:10057E0066F13BC167F13CC168F1D4DD540E010157
:10058E00636F000E646F41C165F142C166F143C1F4
:10059E0067F144C168F1C6DD580E0101636F000EAC
:1005AE00646F3DC165F13EC166F13FC167F140C167
:1005BE0068F1B8DD5C0E0101636F000E646F2B0EE7
:1005CE00656F020E666F000E676F686FABDD020E11
:1005DE000B6E040E0C6EBA0E0D6E0D2EFED70C2E7B
:0A05EE00FCD70B2EFAD70000120014
:1005F8000050086E0150006E016A026A036A0B6AB5
:100608000C6A960E036E0A6A00C001F008C000F07A
:08061800086A026A17DE1200F5
:10062000FF0E01013915636F000E3915016EFF0EC3
:100630003A15026E3BC103F03CC104F0000E0316F4
:10064000041602C00DF003C00EF004C00FF0106AD3
:10065000000E3915016E000E3A15026EFF0E3B15A5
:10066000036E000E3C15046E03C009F004C00AF0CE
:100670000B6A0C6A000E3915056E000E3A15066EEF
:10068000000E3B15076EFF0E3C15086E08C000F00B
:10069000016A026A036A00C05AF1FF0E41155B6FDE
:1006A000000E4115056EFF0E4215066E43C107F0A0
:1006B00044C108F0000E0716081606C000F007C077
:1006C00001F008C002F0036A00C05CF1000E4115A1
:1006D000056E000E4215066EFF0E4315076E000EE6
:1006E0004415086E07C000F008C001F0026A036AF2
:1006F00000C05DF1000E4115056E000E4215066E3C
:10070000000E4315076EFF0E4415086E08C000F07A
:10071000016A026A036A00C05EF1FF0E3D155F6F59
:10072000000E3D15056EFF0E3E15066E3FC107F02B
:1007300040C108F0000E0716081606C000F007C0FA
:1007400001F008C002F0036A00C060F1000E3D1520
:10075000056E000E3E15066EFF0E3F15076E000E6D
:100760004015086E07C000F008C001F0026A036A75
:1007700000C061F1000E3D15056E000E3E15066EBF
:10078000000E3F15076EFF0E4015086E08C000F002
:10079000016A026A036A00C062F10DC064F109C017
:1007A00065F1BEDE5E0E636F000E646F030E656F53
:1007B000F6DD020E0B6E040E0C6EBA0E0D6E0D2ED3
:1007C000FED70C2EFCD70B2EFAD700005AC163F1CE
:1007D0005BC164F15CC165F1A3DE5E0E0101636F74
:1007E000000E646F030E656FDADD020E0B6E040EF1
:1007F0000C6EBA0E0D6E0D2EFED70C2EFCD70B2EE6
:10080000FAD700005DC163F15EC164F15FC165F1BB
:1008100087DE5E0E0101636F000E646F030E656F6D
:10082000BEDD020E0B6E040E0C6EBA0E0D6E0D2E9A
:10083000FED70C2EFCD70B2EFAD7000060C163F157
:1008400061C164F162C165F16BDE5E0E0101636F2F
:10085000000E646F030E656FA2DD020E0B6E040EB8
:100860000C6EBA0E0D6E0D2EFED70C2EFCD70B2E75
:06087000FAD7000012009F
:10087600500E0101636F000E646F1EDD00C039F17A
:1008860001C03AF102C03BF103C03CF1540E636F64
:10089600000E646F11DD00C041F101C042F102C0DB
:1008A60043F103C044F1580E636F000E646F04DD1C
:1008B60000C03DF101C03EF102C03FF103C040F16E
:1008C600020E0B6E040E0C6EBA0E0D6E0D2EFED7BA
:0C08D6000C2EFCD70B2EFAD700001200ED
:1008E200CB50010F006E016A000E01225AC104F0C2
:1008F200000E056E82DC060E026E00C004F001C01E
:1009020005F0025005E005320432059EFF0FFAD7CA
:10091200040E016E04C000F0015004E000360090A5
:10092200FF0FFBD7300E0014036E04C000F005C0A9
:1009320001F001320032019E01320032019E00C0FC
:0C094200BEFF0F0EBD160350BD121200C8
:10094E002F6A306A386A3792396A586A596A5A6A0F
:10095E005B6A010E526E5C6A546A556A566A576A31
:10096E00010E536E020E336E020E2E6E020E2C6EA2
:10097E00020E2D6E020E346E640E01012F6F640E88
:10098E005D6E356A3790236AFF0E366EFF0E2B6E44
:10099E00FF0E206EFF0E216EFF0E1D6EFF0E1E6EE1
:1009AE00FF0E226EFF0E296E580E1F6E580E2A6E07
:0609BE00580E286E120025
:1009C400016A800E01BE7F0E006E800E005C02E1A3
:1009D4005D50015C0DE2CB0EE16E000EE26E015043
:1009E400E126000E01BEFF0EE222E66A012AE9D7E3
:1009F4005D6AFF0E1D6EFF0E1E6EFF0E226EFF0E51
:040A0400296E120045
:100A0800016A800E01BE7F0E006E800E005C03E15D
:100A180001012F51015C0DE2670EE16E000EE26EDE
:100A28000150E126000E01BEFF0EE222E66A012A0D
:100A3800E8D701012F6BFF0E366EFF0E2B6EFF0EEF
:080A4800206EFF0E216E12006A
:0E0A5000929292929280808280928080120018
:080A5E00BE6ABD98BD9A1200AA
:100A6600808266DD0B0E006E0DD0A90E026E022E80
:100A7600FED7000001015A335A9F5A8FD8A002D0E0
:100A8600808202D08092000000060052EEE1120041
:0A0A96009494CA840C0EBD121200E5
:100AA00083948480829A809A1A0E0B6E5E0E0C6E6E
:100AB0006E0E0D6E0D2EFED70C2EFCD70B2EFAD718
:100AC00000008490828A809A1A0E0B6E5E0E0C6E65
:100AD0006E0E0D6E0D2EFED70C2EFCD70B2EFAD7F8
:100AE00000008490829A808A1A0E0B6E5E0E0C6E45
:100AF0006E0E0D6E0D2EFED70C2EFCD70B2EFAD7D8
:0A0B000000008480828A808A1200BF
:040B0A0081721200E2
:100B0E000900F5CFE6FF0006FBE10106F9E1120050
:100B1E00246A256A266A276A5C0E0101636F000E3D
:100B2E00646F5FEC01F0000E046E031808E10450D0
:100B3E00021805E1020E011802E100502B0A02E133
:100B4E0093DE0DD0416B426B436B446B396B3A6B4A
:100B5E003B6B3C6B3D6B3E6B3F6B406B01DD0F0E99
:100B6E00C16E070EB46E806A816A826A836A846A75
:100B7E00DB0E926EF90E936EDB0E946EFB0E956E7F
:100B8E00060E966E86DFDCDE38DF15DFCA80CA926F
:100B9E00450ECB6E5DDF190E01015A6F9BDE74DFC1
:100BAE0050DF060E0B6E130E0C6EAD0E0D6E0D2E6F
:100BBE00FED70C2EFCD70B2EFAD700000000120029
:100BCE0048C000F049C001F06AEC00F0005201E1AB
:100BDE0020D13BC000F03CC001F06AEC00F000C038
:100BEE004DF0FCD04D50960A03E1020E3A6E4C6A5F
:100BFE0010D14D50511804E04D50320A01E005D08D
:100C0E00030E3A6E4D504C1A02D0010E3A6E01D1BF
:100C1E00435209E0400E4D14016E0150000A03E1EB
:100C2E00010E3A6EF6D04DAE13D0040E3A6E4DC094
:100C3E004FF04D504C1A030E4D14016E01C050F082
:100C4E000150000A02E1050E3A6E010E4E6E0BD0F7
:100C5E00050E01017025E16E000E7121E26EFF0E90
:100C6E00E66E010E3A6ED5D04D50A90A0CE1010187
:100C7E00050E7025E16E000E7121E26EFF0EE66E1E
:100C8E00010E3A6EC6D04E50505C006E016A000ED8
:100C9E00015A0050011012E001014E04006E016A6B
:100CAE00000E015A00507025E16E01507121E26E66
:100CBE004DC0E6FF4D504C1A4E2A12D001014E0483
:100CCE00006E016A000E015A00507025E16E01504F
:100CDE007121E26E4DC0E6FF050E3A6E4D504C1A74
:100CEE0098D04C1C016E01C04CF00150960A04E0E5
:100CFE004C50A90A01E001D04C2A4C504D1803E18A
:100D0E00060E3A6E0BD00101050E7025E16E000E37
:100D1E007121E26EFF0EE66E010E3A6E7AD04D50E4
:100D2E00A90A41E10101010E3A6E040E7025E16E31
:100D3E00000E7121E26EFF0EE66E030E7025E16E5F
:100D4E00000E7121E26E50C0E6FF010E4E6E4E5047
:100D5E00505C28E34EC001F0020E006E015004E01C
:100D6E0000360090FF0FFBD74F50001619E001011F
:100D7E004E04006E016A000E015A00507025026E7C
:100D8E0001507121036E02C0E9FF03C0EAFF010E9C
:100D9E00EE18006E02C0E1FF03C0E2FF00C0E6FFE6
:100DAE004E2AD5D70BD00101050E7025E16E000E2F
:100DBE007121E26EFF0EE66E010E3A6E2AD001012F
:100DCE00050E7025E16E000E7121E26EFF0EE66ECD
:100DDE00010E3A6E1ED0010E3A6E1BD03A50010A29
:100DEE00D8B400D73A50020AD8B403D73A50030AFF
:100DFE00D8B40ED73A50040AD8B436D73A50050AAA
:100E0E00D8B46FD73A50060A8AE03A50070AD7E0AC
:040E1E00E2D7120005
:100E22002F4A302A6D0E305C02E1600E2F5C38E3EF
:100E32002F6A306A2E503324006E016A000E01229E
:100E42002C500026000E01222D500026000E0122F9
:100E520034500024026E000E0120036E800E006EDC
:100E6200800E0318005C02E10250060819E337A263
:100E720017D0420E01015A6FF5DD0D0E01015A6FB6
:100E8200F1DD0A0E01015A6FEDDD382A3850050AEC
:100E920007E1010E01013D27000E3E233F234023BF
:100EA200000E301802E1000E2F1817E02FC000F0DC
:100EB20030C001F0FCEC02F0000E046EC00E056EB4
:100EC2005A0E066E8C0E076EA0EC02F0010ED8A42C
:100ED200000E006E005201E104D0050E385CD8B05D
:100EE20083842FC000F030C001F0FCEC02F0000E51
:100EF200046EC00E056E140E066E8B0E076EA0EC0D
:100F020002F0010ED8A4000E006E005217E12FC0AD
:100F120000F030C001F0FCEC02F0000E046E900E06
:100F2200056E120E066E8D0E076EA0EC02F0010E1B
:100F3200D8A4000E006E005201E104D0050E385C08
:060F4200D8B083941200F8
:100F480039C14EF13AC14FF13BC150F13CC151F1A9
:100F580041C152F142C153F143C154F144C155F169
:100F68003DC156F13EC157F13FC158F140C159F159
:100F7800B7EC02F07CDC3C51511908E13B515019A7
:100F880005E13A514F1902E139514E191DE1445119
:100F9800551908E14351541905E14251531902E129
:100FA8004151521911E14051591908E13F5158195D
:100FB80005E13E51571902E13D51561905E1010E6F
:100FC800006E000E016E1AD04EC139F14FC13AF1D0
:100FD80050C13BF151C13CF152C141F153C142F101
:100FE80054C143F155C144F156C13DF157C13EF1D9
:0E0FF80058C13FF159C140F1006A016A120070
:101006003350000AD8B46FD22E50000AD8B46BD22F
:101016002C50000AD8B467D22D50000AD8B463D237
:101026003450000AD8B45FD237A203D0386A83940A
:10103600379237A058D283AA13D135500008D8B0BA
:101046000FD10D0E01015A6F0BDD0A0E01015A6F09
:1010560007DD2D0E01015A6F03DD470E01015A6FA0
:10106600FFDC520E01015A6FFBDC410E01015A6F83
:10107600F7DC2D0E01015A6FF3DC0D0E01015A6FDC
:10108600EFDC0A0E01015A6FEBDC3650FF0A29E04D
:101096002B50FF0A26E02050FF0A23E02150FF0ACA
:1010A60020E0800E2018006E800E3618005C0DE2DF
:1010B600800E2118006E800E2B18005C03E2450E90
:1010C6001F6E02D0510E1F6E0CD0800E2118006EBE
:1010D600800E2B18005C03E2500E1F6E02D0530EDA
:1010E6001F6E1D50FF0A29E01E50FF0A26E02250FF
:1010F600FF0A23E02950FF0A20E0800E2218006E26
:10110600800E1D18005C0DE2800E2918006E800E00
:101116001E18005C03E2450E2A6E02D0510E2A6E9E
:101126000CD0800E2918006E800E1E18005C03E29B
:10113600500E2A6E02D0530E2A6E1F50580A1DE01A
:101146002A50580A1AE02A50530A08E01F50530A38
:1011560004E12A50500A01E101D002D0530E286E54
:101166002A50450A08E01F50450A04E12A50510A50
:1011760001E101D002D0450E286E2350010A06E196
:101186002850450A02E1580E286E35D023500B0A26
:1011960006E12850530A02E1580E286E2CD023503F
:1011A6006F0A0CE12850450A03E1530E286E05D05C
:1011B6002850530A02E1450E286E1DD023506E0AB0
:1011C6000CE12850450A03E1530E286E05D028503D
:1011D600530A02E1580E286E0ED02350640A0BE122
:1011E6002850450A03E1580E286E05D02850530AA8
:1011F60002E1450E286E2850450A17E1010E01014D
:101206003927000E3A233B233C2341513925246ECE
:1012160042513A21256E43513B21266E44513C21D1
:10122600276E580E286EB7EC02F02850530A17E1C5
:10123600010E01014127000E42234323442341515D
:101246003925246E42513A21256E43513B21266EA3
:1012560044513C21276E580E286EB7EC02F01DD182
:1012660083BA1BD1020E355CD8A017D10D0E010131
:101276005A6F33EC05F00A0E01015A6F33EC05F094
:101286002D0E01015A6F33EC05F0500E01015A6F15
:1012960033EC05F04C0E01015A6F33EC05F0410EAC
:1012A60001015A6F33EC05F02D0E01015A6F33EC34
:1012B60005F00D0E01015A6F33EC05F00A0E01011F
:1012C6005A6F33EC05F03650FF0A29E02B50FF0A1F
:1012D60026E02050FF0A23E02150FF0A20E0800E7E
:1012E6002018006E800E3618005C0DE2800E211864
:1012F600006E800E2B18005C03E2450E1F6E02D0B6
:10130600510E1F6E0CD0800E2118006E800E2B1809
:10131600005C03E2500E1F6E02D0530E1F6E1D506E
:10132600FF0A29E01E50FF0A26E02250FF0A23E0AA
:101336002950FF0A20E0800E2218006E800E1D182C
:10134600005C0DE2800E2918006E800E1E18005CEF
:1013560003E2450E2A6E02D0510E2A6E0CD0800E84
:101366002918006E800E1E18005C03E2500E2A6ECD
:1013760002D0530E2A6E1F50580A1DE02A50580AF2
:101386001AE02A50530A08E01F50530A04E12A5073
:10139600500A01E101D002D0530E286E2A50450AA8
:1013A60008E01F50450A04E12A50510A01E101D024
:1013B60002D0450E286E2350010A06E12850450A40
:1013C60002E1580E286E35D023500B0A06E128504C
:1013D600530A02E1580E286E2CD023506F0A0CE1F6
:1013E6002850450A03E1530E286E05D02850530AAB
:1013F60002E1450E286E1DD023506E0A0CE12850DE
:10140600450A03E1530E286E05D02850530A02E11F
:10141600580E286E0ED02350640A0BE12850450A58
:1014260003E1580E286E05D02850530A02E1450EF6
:10143600286E2850450A17E1010E01013927000ED2
:101446003A233B233C2341513925246E42513A210C
:10145600256E43513B21266E44513C21276E580E82
:10146600286EB7EC02F02850530A17E1010E01016D
:101476004127000E42234323442341513925246E3C
:1014860042513A21256E43513B21266E44513C215F
:10149600276E580E286EB7EC02F0356AFF0E1D6EE9
:1014A600FF0E1E6EFF0E226EFF0E296EFF0E366EAB
:1014B600FF0E2B6EFF0E206EFF0E216E396A586AE4
:1014C600596A5A6A5B6A5C6A546A556A566A576A06
:1014D600020E336E020E2E6E020E2C6E020E2D6E54
:1014E600020E346E37903350000A0DE02E50000A7B
:1014F6000AE02C50000A07E02D50000A04E03450A0
:10150600000A01E00BD037B007D03780580E1F6EA7
:0E151600580E2A6E580E286E37A23782120029
:1015240001014A53D8A44A6B49530BE08182818458
:10153400496B45C132F1FF0E326F10EC03F081921A
:04154400819412007C
:1015480082B205D082B003D00A0E656E14D082B282
:1015580005D082A003D0140E656E0DD082A205D0EE
:1015680082B003D01E0E656E06D082A204D082A07F
:0C15780002D01E0E656E65C000F012006F
:10158400580E446E000E456E6F0E466E010E476E89
:10159400820E3B6E000E3C6E000E3D6E000E3E6EE3
:1015A400780E486E000E496E000E4A6E000E4B6EA9
:1015B400940E3F6E000E406E000E416E000E426EA1
:1015C400AC8A900EAB6E948E949C9EAA03D0AECF40
:0615D40000F0FBD712003D
:1015DA0092948094010E3A6E436A4EC151F0010111
:1015EA004E51960A04E04E51A90A01E005D0010EB7
:0A15FA004E19516EFF0E436E1200F1
:1016040001014E6B4F6B506B83AE00D084B400D09D
:1016140081AC14D03450000810E22150FF0A03E1D9
:1016240039C021F0392A346A410E5A6F33EC05F07F
:10163400590E01015A6F33EC05F037D03450000ACB
:1016440034E158C020F0010E5826000E59225A22C7
:101654005B22FF0E5B5C08E1FF0E5A5C05E1FE0EA7
:10166400595C02E1D80E585C14E3800E3618006E03
:10167400800E2018005C04E2010E206E366A03D04E
:10168400206A010E366E020E586E000E596E5A6EA6
:101694005B6E010E346E410E01015A6F33EC05F09E
:1016A400580E01015A6F33EC05F081AE15D02D5060
:1016B400000811E22B50FF0A03E139C02BF0392A4C
:1016C4002D6A410E01015A6F33EC05F04E0E0101F3
:1016D4005A6F33EC05F039D02D50000A36E15850DA
:1016E4005202F3CF36F0010E5826000E59225A2228
:1016F4005B22FF0E5B5C08E1FF0E5A5C05E1FE0E07
:10170400595C02E1D80E585C14E3800E3618006E62
:10171400800E2018005C04E2010E206E366A03D0AD
:10172400206A010E366E020E586E000E596E5A6E05
:101734005B6E010E2D6E410E01015A6F33EC05F004
:101744004D0E01015A6F33EC05F084A215D02C50D4
:10175400000811E22950FF0A03E15CC029F05C2A69
:101764002C6A420E01015A6F33EC05F0590E010147
:101774005A6F33EC05F037D02C50000A34E154C0D2
:1017840022F0010E5426000E55225622572257509D
:10179400FF0808E15650FF0805E15550FE0802E134
:1017A4005450D80814E2800E1D18006E800E2218C2
:1017B400005C04E2010E226E1D6A03D0226A010E4F
:1017C4001D6E020E546E000E556E566E576E010E4F
:1017D4002C6E420E01015A6F33EC05F0580E0101D4
:1017E4005A6F33EC05F080A615D02E50000811E294
:1017F4001E50FF0A03E15CC01EF05C2A2E6A420EF2
:1018040001015A6F33EC05F04E0E01015A6F33ECAF
:1018140005F039D02E50000A36E154505302F3CF6C
:101824001DF0010E5426000E552256225722575001
:10183400FF0808E15650FF0805E15550FE0802E193
:101844005450D80814E2800E1D18006E800E221821
:10185400005C04E2010E226E1D6A03D0226A010EAE
:101864001D6E020E546E000E556E566E576E010EAE
:101874002E6E420E01015A6F33EC05F04D0E01013C
:101884005A6F33EC05F080A80BD03350000807E200
:10189400352A336A430E01015A6F33EC05F00BD03D
:1018A4003350000A08E1352A010E336E430E01015C
:1018B4005A6F33EC05F03350000A0DE02E50000A45
:1018C4000AE02C50000A07E02D50000A04E03450CE
:1018D400000A01E004D08490829A808A03D0848034
:1018E400828A809A83A604D0640E01014E6F02D0CE
:1018F40001014E6B82A803D00A0E4F6F01D04F6BCB
:1019040083A803D0010E506F01D0506B4F514E2568
:08191400236E5051232612003E
:10191C00086A080E0C6E003408360450085ED8B005
:0E192C0002D00826D89000360C2EF5D71200F7
:10193A008FEC05F0B886040EB06E110EAF6EAC8453
:10194A001CDE060E0B6E130E0C6EAD0E0D6E0D2EFA
:10195A00FED70C2EFCD70B2EFAD700000000EFDDC5
:10196A0000C04EF135DE376B386B396B9D8A9D9816
:10197A00F28CF28E450E5A6F33EC05F0530E0101CC
:10198A005A6F33EC05F0DBDD0A0E046EC2DF300E4F
:10199A00002401015A6F33EC05F00D0E01015A6F54
:1019AA0033EC05F00A0E01015A6F33EC05F03BECFB
:1019BA0004F023DE83AC04D011EC07F003EC08F04A
:1019CA0084A46CD0530E01015A6F33EC05F0490E12
:1019DA0001015A6F33EC05F04E0E01015A6F33ECD8
:1019EA0005F00D0E01015A6F33EC05F00A0E0101E4
:1019FA005A6F33EC05F0A4EC07F0000E011802E16F
:101A0A00010E001823E1000E311902E1000E30190F
:101A1A001DE1470E5A6F33EC05F04F0E01015A6F64
:101A2A0033EC05F04B0E01015A6F33EC05F00D0E45
:101A3A0001015A6F33EC05F00A0E01015A6F33ECBB
:101A4A0005F0010E0101306F000E316F807A0D0E24
:101A5A000B6EAF0E0C6EB60E0D6E01010D2EFDD77C
:101A6A000C2EFBD70B2EF9D70000000E311902E11C
:101A7A00010E30190EE1470E5A6F33EC05F00D0EC8
:101A8A0001015A6F33EC05F00A0E01015A6F33EC6B
:101A9A0005F084B401D001D0D9D792D784B40CD040
:101AAA00000E0101311902E1010E301905E13BEC8A
:101ABA0004F0306B316B819280B80FD080B60DD0B4
:101ACA0084B20BD081BE09D081BC07D00101450E7A
:101ADA004E6F010E4F6F21DD02D085EC05F069D7FC
:021AEA00FFD724
:020000040030CA
:0D000100061F1EFF8181FF0FC00FE00F40A2
:00000001FF
