:1000000041EF09F00000000000EF00F000000000E8
:0A0010000000000000000000F3D71C
:0A001C00000E9EBA010E006E1200E5
:10002600AECF01F0ABA202D0AB98AB8801C000F016
:020036001200B6
:0E003800ACB202D00000FCD745C1ADFF1200F3
:0A004600000EACB2010E006E1200B5
:100050000B840BAE33EF00F0010E036E026A016AEF
:0A006000006A0A360232FF0E120099
:0E006A00026A016A006A086A036A000E120048
:10007800A69C43C1AAFF42C1A9FFA69EA680A8CFFD
:0400880000F0120072
:08008C000AAE029E000E1200F4
:10009400F250026EF29E0500FF6A0150FE6E00509F
:0800A400FD6E02BEF28E120097
:1000AC00A6A202D00000FCD7A69C43C1AAFF42C165
:1000BC00A9FF44C1A8FFA69EA684F2CF00F0F29E31
:1000CC00550EA76EAA0EA76EA68200BE02D0F29E97
:0800DC0001D0F28EA69412007F
:1000E40001013B6B3C6B3D6B3E6B39C142F13AC144
:1000F40043F1C0DF00C005F0000E066E076E086E07
:1001040005C003F0006A016A026A00503B270150EF
:100114003C2302503D2303503E23394B3A2B39C133
:1001240042F13AC143F1A6DF00C005F0000E066EAD
:10013400076E086E06C003F005C002F0006A016A8B
:1001440000503B2701503C2302503D2303503E23E3
:10015400394B3A2B39C142F13AC143F18BDF00C02C
:1001640005F0000E066E076E086E07C003F006C0A9
:1001740002F005C001F0006A00503B2701503C2307
:1001840002503D2303503E23394B3A2B39C142F1EF
:100194003AC143F16FDF000E016E026E036E3B51F4
:1001A40000263C5101223D5102223E51032200C04F
:1001B4003BF101C03CF102C03DF103C03EF112002D
:0201C400120027
:1001C600380E0001A06F000EA16F450EA26F010E42
:1001D600A36F260EA46F000EA56F000EA66F000E6D
:1001E600A76F1C0EA86F000EA96F000EAA6F000E57
:1001F600AB6F460EAC6F000EAD6F000EAE6F000E0D
:10020600AF6FAC8A900EAB6E948E949C9EAA03D070
:08021600AECF00F0FBD712008F
:10021E00FF0E01013B153F6F000E3B15056EFF0EE5
:10022E003C15066E3DC107F03EC108F0000E0716E4
:10023E00081606C000F007C001F008C002F0036AFD
:10024E0000C040F1000E3B15056E000E3C15066E0B
:10025E00FF0E3D15076E000E3E15086E07C000F02E
:10026E0008C001F0026A036A00C041F1000E3B159E
:10027E00056E000E3C15066E000E3D15076EFF0E48
:10028E003E15086E08C000F0016A026A036A39C1A1
:10029E0042F13AC143F100C044F101DF0101394B93
:1002AE003A2B39C142F13AC143F141C144F1F7DE73
:1002BE000101394B3A2B39C142F13AC143F140C1E8
:1002CE0044F1EDDE0101394B3A2B39C142F13AC10D
:0A02DE0043F13FC144F1E3DE1200DA
:1002E8000B6A0A6A096A00500402F4CF09F0F3CFD6
:1002F80008F001500502F4CF0BF0F3CF0AF00050DC
:100308000502F3500926F4500A22E86A0B2201502C
:100318000402F3500926F4500A22E86A0B2208C0A6
:1003280000F009C001F00AC002F00BC003F012008F
:1003380092948094010E0001B06F346A39C133F091
:1003480001013951960A04E03951A90A01E005D0A2
:0C035800010E3919336EFF0E346E1200D6
:1003640039C199F03AC19AF03BC19BF000019C6BF2
:080374009D6B9E6B9F6B120054
:10037C000C6A0E6A0250D8A4D7EF01F001C002F04B
:10038C0000C001F0006A0E860250D8A4D7EF01F02D
:10039C0001C002F0016A0E960E880250D8B4E9EF43
:1003AC0001F00E50035ED8A4D8A0EEEF01F0D89067
:1003BC0002BEF3EF01F0003601360236032EDEEFFB
:1003CC0001F0EEEF01F0010E0C6E49DEF6EF01F0DC
:1003DC00020E0C6E37DEF6EF01F0040E0C6E50DEE2
:0203EC001200FD
:1003EE0033C03FF1345204E0010E331801013F6F68
:1003FE00010180843B053E6FA2C0E1FFA3C0E2FF76
:10040E00960EE66EA0C000F0A1C001F03CDE010128
:10041E003F51960A04E03F51A90A01E002D03F7114
:10042E003B8DA2C0E1FFA3C0E2FF3FC1E6FFA0C02B
:10043E0000F0A1C001F027DE01013C6B3C513E5D96
:10044E0032E33C513925E96E000E3A21EA6EEECFC9
:10045E0001F001C040F10150960A04E04051A90A92
:10046E0001E01FD03C513925016E000E3A21026E7B
:10047E0001C0E9FF02C0EAFF010EEE18006E01C0D6
:10048E00E1FF02C0E2FF00C0E6FF3CC101F0040E36
:10049E00006E015004E000360090FF0FFBD70050B5
:1004AE003B133C2BCBD7A2C0E1FFA3C0E2FF3BC165
:1004BE00E6FFA0C000F0A1C001F0E5DD01013F5153
:1004CE003B193D6F3C6B3C513E5D1EE33C51392563
:1004DE00006E000E3A21016E00C0D9FF01C0DAFF96
:1004EE00DE503D1BA2C0E1FFA3C0E2FF00C0E9FF4A
:1004FE0001C0EAFFEECFE6FFA0C000F0A1C001F000
:10050E00C2DD01013C2BDFD73D1D016E01C03DF167
:10051E000150960A04E03D51A90A01E001D03D2B9D
:10052E00A2C0E1FFA3C0E2FF3DC1E6FFA0C000F004
:10053E00A1C001F0A8DDA2C0E1FFA3C0E2FFA90E99
:10054E00E66EA0C000F0A1C001F09DDDACC000F0D1
:10055E00ADC001F098DD0050000A01E1F7D780949C
:02056E00120079
:10057000808228DE0B0E006E0DD0A90E026E022EB8
:10058000FED7000001013033309F308FD8A002D059
:10059000808202D08092000000060052EEE112003C
:1005A000838A8480829A809AA30E0C6E550E0D6EFB
:1005B0000D2EFED70C2EFCD78490828A809AA30E33
:1005C0000C6E550E0D6E0D2EFED70C2EFCD78490A2
:1005D000829A808AA30E0C6E550E0D6E0D2EFED7DC
:0C05E0000C2EFCD78480828A808A1200D6
:1005EC000101256B266B2A6B2D920001B66BB76B44
:1005FC00B86BB96BBA6B010EBB6FB16BB26BB36BF3
:10060C00B46BB56B010E0101216F020E296F020E46
:10061C00236F020E246F020E2B6F020E2C6F640ED2
:10062C00206F640E226F276A2D90226AFF0E286EAF
:10063C00FF0E2E6EFF0E316EFF0E326EFF0E306E01
:10064C00FF0E176EFF0E186EFF0E156E580E2F6EE6
:0A065C00580E166E580E196E1200AB
:10066600016A800E01BE7F0E006E800E005C03E103
:1006760001012251015C0DE2BC0EE16E000EE26E3C
:100686000150E126000E01BEFF0EE222E66A012AB3
:10069600E8D70101226BFF0E306EFF0E176EFF0EBC
:0806A600186EFF0E156E120024
:1006AE00B886B06A190EAF6EAC8486DD210E0C6E64
:1006BE00760E0D6E0D2EFED70C2EFCD700000A0EF8
:1006CE000101396F32DE9D9A9D98F29CF29E1200C6
:1006DE00FF0E23140101396F000E2314016EFF0E5D
:1006EE002414026E25C003F026C004F0000E03167B
:1006FE00041602C00DF003C00EF004C00FF0106A15
:10070E00000E2314016E000E2414026EFF0E25142B
:10071E00036E000E2614046E03C009F004C00AF026
:10072E000B6A0C6A000E2314056E000E2414066E5E
:10073E00000E2514076EFF0E2614086E08C000F07A
:10074E00016A026A036A00C030F1FF0E1E14316F97
:10075E00000E1E14056EFF0E1F14066E20C007F04D
:10076E0021C008F0000E0716081606C000F007C0DC
:10077E0001F008C002F0036A00C032F1000E1E1430
:10078E00056E000E1F14066EFF0E2014076E000E6F
:10079E002114086E07C000F008C001F0026A036A57
:1007AE0000C033F1000E1E14056E000E1F14066EEF
:1007BE00000E2014076EFF0E2114086E08C000F004
:1007CE00016A026A036A00C034F1FF0E2914356F04
:1007DE00000E2914056EFF0E2A14066E2BC007F0AC
:1007EE002CC008F0000E0716081606C000F007C051
:1007FE0001F008C002F0036A00C036F1000E2914A1
:10080E00056E000E2A14066EFF0E2B14076E000ED8
:10081E002C14086E07C000F008C001F0026A036ACB
:10082E0000C037F1000E2914056E000E2A14066E54
:10083E00000E2B14076EFF0E2C14086E08C000F06D
:10084E00016A026A036A00C038F10DC03AF109C0AC
:10085E003BF181DD990E0101396F000E3A6F030EE7
:10086E003B6FBEDD530E0D6E0D2EFED730C139F12E
:10087E0031C13AF132C13BF16EDD990E0101396F92
:10088E00000E3A6F030E3B6FABDD530E0D6E0D2E49
:10089E00FED733C139F134C13AF135C13BF15BDDDD
:1008AE00990E0101396F000E3A6F030E3B6F98DD02
:1008BE00530E0D6E0D2EFED736C139F137C13AF1FA
:1008CE0038C13BF148DD990E0101396F000E3A6FC8
:1008DE00030E3B6F85DD530E0D6E0D2EFED71200EF
:1008EE0003500718D8A48BEF04F002500618D8A4B2
:1008FE008BEF04F001500518D8A48BEF04F00050D4
:0E090E000418D8B4D8841200D8941200120035
:10091C00016A800E01BE7F0E006E800E005C03E14A
:10092C0001012051015C0DE2350EE16E000EE26E0C
:10093C000150E126000E01BEFF0EE222E66A012AFA
:10094C00E8D70101206BFF0E286EFF0E2E6EFF0EF6
:08095C00316EFF0E326E120035
:10096400CB50010F006E016A000E012230C104F069
:10097400000E056EB7DC060E026E00C004F001C066
:1009840005F0025005E005320432059EFF0FFAD748
:10099400040E016E04C000F0015004E00036009023
:1009A400FF0FFBD7300E0014036E04C000F005C027
:1009B40001F001320032019E01320032019E00C07A
:0C09C400BEFF0F0EBD160350BD12120046
:1009D000500E0101396F000E3A6F23C03BF124C065
:1009E0003CF125C03DF126C03EF119DC540E010159
:1009F000396F000E3A6F1EC03BF11FC03CF120C0A2
:100A00003DF121C03EF10BDC580E0101396F000EA3
:100A10003A6F29C03BF12AC03CF12BC03DF12CC0FC
:100A20003EF10FEC01F05C0E0101396F000E3A6FE0
:100A30002B0E3B6F020E3C6F000E3D6F3E6F0FECB6
:100A400001F0070E0C6E7D0E0D6E0D2EFED70C2ED6
:040A5000FCD71200BD
:100A54000050086E0150006E016A026A036A0B6A54
:100A64000C6A960E036E0A6A00C001F008C000F01A
:080A7400086A026A81DC12002D
:080A7C00BE6ABD98BD9A12008C
:0A0A84009494CA840C0EBD121200F7
:100A8E00500E0101396F000E3A6F72EC00F000C08B
:100A9E0023F001C024F002C025F003C026F0540E4E
:100AAE00396F000E3A6F72EC00F000C01EF001C0FC
:100ABE001FF002C020F003C021F0580E396F000E57
:100ACE003A6F72EC00F000C029F001C02AF002C0AB
:100ADE002BF003C02CF0070E0C6E7D0E0D6E0D2E3E
:080AEE00FED70C2EFCD712000C
:100AF6001A6A1B6A1C6A1D6A5C0E0101396F000EB8
:100B06003A6F72EC00F0000E046E031808E1045010
:100B1600021805E1020E011802E100502B0A02E15B
:100B2600B3DF0DD01E6A1F6A206A216A236A246A0F
:100B3600256A266A296A2A6A2B6A2C6A46DFDB0E30
:100B4600926EF90E936EDB0E946EDB0E956E060EAC
:100B5600966E0F0EC16E070EB46E1FDDA5DD43DD6A
:100B6600DADE7EDDCA90CA92050ECB6E84DF190EE0
:100B7600306FF5DE84DF210E0C6E760E0D6E0D2EB7
:0A0B8600FED70C2EFCD70000120071
:100B900001012951000AD8B42BD12351000AD8B43D
:100BA00027D12451000AD8B423D12B51000AD8B43C
:100BB0001FD12C51000AD8B41BD12DA203D02A6B0F
:100BC000838A2D922DA014D1020E275CD8A0E8D0E4
:100BD0002850FF0A29E02E50FF0A26E03150FF0A74
:100BE00023E03250FF0A20E0800E3118006E800EA4
:100BF0002818005C0DE2800E3218006E800E2E1850
:100C0000005C03E2450E2F6E02D0510E2F6E0CD009
:100C1000800E3218006E800E2E18005C03E2500E1B
:100C20002F6E02D0530E2F6E3050FF0A29E017505E
:100C3000FF0A26E01850FF0A23E01550FF0A20E0C3
:100C4000800E1818006E800E3018005C0DE2800EC9
:100C50001518006E800E1718005C03E2450E166E24
:100C600002D0510E166E0CD0800E1518006E800E3C
:100C70001718005C03E2500E166E02D0530E166E6B
:100C80002F50580A1DE01650580A1AE01650530A01
:100C900008E02F50530A04E11650500A01E101D038
:100CA00002D0530E196E1650450A08E02F50450A1F
:100CB00004E11650510A01E101D002D0450E196E2F
:100CC0002250010A06E11950450A02E1580E196E38
:100CD00035D022500B0A06E11950530A02E1580E92
:100CE000196E2CD022506F0A0CE11950450A03E10D
:100CF000530E196E05D01950530A02E1450E196EB4
:100D00001DD022506E0A0CE11950450A03E1530E22
:100D1000196E05D01950530A02E1580E196E0ED003
:100D20002250640A0BE11950450A03E1580E196E6E
:100D300005D01950530A02E1450E196E1950450AA3
:100D400016E1010E2326000E2422252226221E5003
:100D500023241A6E1F5024201B6E205025201C6E49
:100D6000215026201D6E580E196EB9DC31DE195047
:100D7000530A16E1010E1E26000E1F2220222122F8
:100D80001E5023241A6E1F5024201B6E2050252035
:100D90001C6E215026201D6E580E196EA0DC18DE28
:100DA000276AFF0E306EFF0E176EFF0E186EFF0ED5
:100DB000156EFF0E286EFF0E2E6EFF0E316EFF0EAB
:100DC000326E0001B66BB76BB86BB96BBA6BB16BB7
:100DD000B26BB36BB46BB56B020E0101296F020EDF
:100DE000236F020E246F020E2B6F020E2C6F2D90BC
:100DF0002951000A0DE02351000A0AE02451000A9B
:100E000007E02B51000A04E02C51000A01E00BD04E
:100E10002DB007D02D80580E2F6E580E166E580E1E
:080E2000196E2DA22D821200B3
:100E28000900F5CFE6FF0006FBE10106F9E1120033
:100E38000101254B262B360E265D02E1B00E255DFD
:100E48002BE3256B266B23512925006E016A000EC2
:100E5800012224510026000E01222B510026000EEB
:100E680001222C510024026E000E0120036E800E18
:100E7800006E800E0318005C02E1025006080CE3C5
:100E88002DA20AD02A2B2A51050A06E1010E29268D
:100E9800000E2A222B222C22000E261902E1000E17
:100EA800251915E025C100F026C101F0CFDD000E9F
:100EB800046EC00E056E5A0E066E8B0E076E13DD9D
:100EC800010ED8A4000E006E005201E104D0050EF8
:100ED8002A5DD8B0839A25C100F026C101F0B6DD9D
:100EE800000E046EC00E056E140E066E8A0E076E96
:100EF800FADC010ED8A4000E006E005215E125C1DF
:100F080000F026C101F0A2DD000E046E900E056E01
:100F1800120E066E8C0E076EE6DC010ED8A4000ECB
:100F2800006E005201E104D0050E2A5DD8B0838A14
:020F38001200A5
:0E0F3A00929292929280808280928080120029
:100F480001012D6B2E6B2F6B83AE00D084B400D0C3
:100F580081AC16D02C51000812E23250FF0A04E18D
:100F6800B6C032F00001B62B01012C6B410E306F78
:100F7800B8EC02F0590E0101306FB8EC02F039D02C
:100F880001012C51000A35E1B7C031F0010E000112
:100F9800B727000EB823B923BA23FF0EBA5D08E1BC
:100FA800FF0EB95D05E1FE0EB85D02E1D80EB75D32
:100FB80014E3800E2818006E800E3118005C04E2DD
:100FC800010E316E286A03D0316A010E286E020EB6
:100FD800B76F000EB86FB96FBA6F010E01012C6FB1
:100FE800410E306FB8EC02F0580E0101306FB8ECCA
:100FF80002F081AE17D001012B51000812E22E50E9
:10100800FF0A04E1B6C02EF00001B62B01012B6BDC
:10101800410E306FB8EC02F04E0E0101306FB8ECA3
:1010280002F03BD001012B51000A37E10001B75112
:10103800BB03F3CF28F0010EB727000EB823B9235E
:10104800BA23FF0EBA5D08E1FF0EB95D05E1FE0E99
:10105800B85D02E1D80EB75D14E3800E2818006E63
:10106800800E3118005C04E2010E316E286A03D04C
:10107800316A010E286E020EB76F000EB86FB96F95
:10108800BA6F010E01012B6F410E306FB8EC02F000
:101098004D0E0101306FB8EC02F084A217D00101A7
:1010A8002451000812E21550FF0A04E1B1C015F0FE
:1010B8000001B12B0101246B420E306FB8EC02F035
:1010C800590E0101306FB8EC02F039D001012451FA
:1010D800000A35E1B2C018F0010E0001B227000E77
:1010E800B323B423B523B551FF0808E1B451FF0871
:1010F80005E1B351FE0802E1B251D80814E2800EAE
:101108003018006E800E1818005C04E2010E186E8C
:10111800306A03D0186A010E306E020EB26F000EEC
:10112800B36FB46FB56F010E0101246F420E306FBB
:10113800B8EC02F0580E0101306FB8EC02F080A64E
:1011480017D001012351000812E21750FF0A04E1E9
:10115800B1C017F00001B12B0101236B420E306FB3
:10116800B8EC02F04E0E0101306FB8EC02F03DD041
:1011780001012351000A39E10001B25101012103A3
:10118800F3CF30F0010E0001B227000EB323B423D1
:10119800B523B551FF0808E1B451FF0805E1B35183
:1011A800FE0802E1B251D80814E2800E3018006E31
:1011B800800E1818005C04E2010E186E306A03D025
:1011C800186A010E306E020EB26F000EB36FB46F64
:1011D800B56F010E0101236F420E306FB8EC02F0BB
:1011E8004D0E0101306FB8EC02F080A80BD0010160
:1011F8002951000806E2272A296B430E306FB8EC04
:1012080002F00BD001012951000A07E1272A010E3B
:10121800296F430E306FB8EC02F001012951000A22
:101228000DE02351000A0AE02451000A07E02B517F
:10123800000A04E02C51000A01E004D08490829A4C
:10124800808A03D08480828A809A83A603D0640E21
:101258002D6F01D02D6B82A803D00A0E2E6F01D0FE
:101268002E6B83A803D0010E2F6F01D02F6B2E5148
:0A1278002D25226E2F5122261200B0
:1012820039DC5ADE60DE83AC02D0D5DD80DCFAD7F1
:02129200FFD784
:020000040030CA
:0D000100021F1EFF8181FF0FC00FE00F40A6
:00000001FF
