:040000009EEF0CF073
:1000080000C018F001C017F002C016F003C015F0C8
:10001800E1CF1BF0E2CF1CF0E9CF19F0EACF1AF0DC
:10002800450E0101706F010E716FECEC05F018C000
:1000380000F017C001F016C002F015C003F019C097
:10004800E9FF1AC0EAFF1BC0E1FF1CC0E2FF110074
:0E005800ACB202D00000FCD76FC1ADFF1200A9
:100066006FC1C9FFC7B002D00000FCD7C9CF00F0EE
:02007600120076
:0A007800000E9EBA010E006E120089
:10008200AECF01F0ABA202D0AB98AB8801C000F0BA
:0200920012005A
:0A009400000EACB2010E006E120067
:10009E000B840BAE5AEF00F0010E036E026A016A7A
:0A00AE00006A0A360232FF0E12004B
:1000B800A69C6DC1AAFF6CC1A9FFA69EA680A8CF69
:0400C80000F0120032
:0800CC000AAE029E000E1200B4
:1000D400F250026EF29E0500FF6A0150FE6E00505F
:0800E400FD6E02BEF28E120057
:1000EC00A6A202D00000FCD7A69C6DC1AAFF6CC1D1
:1000FC00A9FF6EC1A8FFA69EA684F2CF00F0F29EC7
:10010C00550EA76EAA0EA76EA68200BE02D0F29E56
:08011C0001D0F28EA69412003E
:0E012400026A016A006A086A036A000E12008D
:10013200FF0E01016515696F000E6515056EFF0E54
:100142006615066E67C107F068C108F0000E071653
:10015200081606C000F007C001F008C002F0036AEA
:1001620000C06AF1000E6515056E000E6615066E7A
:10017200FF0E6715076E000E6815086E07C000F0C7
:1001820008C001F0026A036A00C06BF1000E651537
:10019200056E000E6615066E000E6715076EFF0EE1
:1001A2006815086E08C000F0016A026A036A63C13A
:1001B2006CF164C16DF100C06EF197DF0101634B18
:1001C200642B63C16CF164C16DF16BC16EF18DDFA3
:1001D2000101634B642B63C16CF164C16DF16AC1AF
:1001E2006EF183DF0101634B642B63C16CF164C167
:0A01F2006DF169C16EF179DF1200B2
:1001FC000B6A0A6A096A00500402F4CF09F0F3CFC3
:10020C0008F001500502F4CF0BF0F3CF0AF00050C8
:10021C000502F3500926F4500A22E86A0B22015019
:10022C000402F3500926F4500A22E86A0B2208C093
:10023C0000F009C001F00AC002F00BC003F012007C
:10024C000C6A0E6A0250D8A43FEF01F001C002F014
:10025C0000C001F0006A0E860250D8A43FEF01F0F6
:10026C0001C002F0016A0E960E880250D8B451EF0C
:10027C0001F00E50035ED8A4D8A056EF01F0D89030
:10028C0002BE5BEF01F0003601360236032E46EF5C
:10029C0001F056EF01F0010E0C6E3EDF5EEF01F047
:1002AC00020E0C6EF6DE5EEF01F0040E0C6E08DF33
:0202BC0012002E
:1002BE000101656B666B676B686B63C16CF164C142
:1002CE006DF1F3DE00C005F0000E066E076E086ECF
:1002DE0005C003F0006A016A026A005065270150EA
:1002EE0066230250672303506823634B642B63C15C
:1002FE006CF164C16DF1D9DE00C005F0000E066E22
:10030E00076E086E06C003F005C002F0006A016AAF
:10031E00005065270150662302506723035068235F
:10032E00634B642B63C16CF164C16DF1BEDE00C022
:10033E0005F0000E066E076E086E07C003F006C0CD
:10034E0002F005C001F0006A0050652701506623D7
:10035E000250672303506823634B642B63C16CF117
:10036E0064C16DF1A2DE000E016E026E036E655168
:10037E00002666510122675102226851032200C0F5
:10038E0065F101C066F102C067F103C068F11200A9
:10039E0044C069F1455204E0010E44180101696F31
:1003AE00010180846505686F48C0E1FF49C0E2FF26
:1003BE00960EE66E46C000F047C001F084DE0101E5
:1003CE006951960A04E06951A90A01E002D06971E7
:1003DE00658D48C0E1FF49C0E2FF69C1E6FF46C036
:1003EE0000F047C001F06FDE0101666B6651685D7B
:1003FE0032E366516325E96E000E6421EA6EEECF9C
:10040E0001F001C06AF10150960A04E06A51A90A8E
:10041E0001E01FD066516325016E000E6421026E4D
:10042E0001C0E9FF02C0EAFF010EEE18006E01C026
:10043E00E1FF02C0E2FF00C0E6FF66C101F0040E5C
:10044E00006E015004E000360090FF0FFBD7005005
:10045E006513662BCBD748C0E1FF49C0E2FF65C1EB
:10046E00E6FF46C000F047C001F02DDE01016951E4
:10047E006519676F666B6651685D1EE3665163258D
:10048E00006E000E6421016E00C0D9FF01C0DAFFBC
:10049E00DE50671B48C0E1FF49C0E2FF00C0E9FF24
:1004AE0001C0EAFFEECFE6FF46C000F047C001F004
:1004BE000ADE0101662BDFD7671D016E01C067F1F1
:1004CE000150960A04E06751A90A01E001D0672B9A
:1004DE0048C0E1FF49C0E2FF67C1E6FF46C000F039
:1004EE0047C001F0F0DD48C0E1FF49C0E2FFA90EB0
:1004FE00E66E46C000F047C001F0E5DD3BC000F0FF
:10050E003CC001F0E0DD0050000A01E1F7D7809415
:02051E001200C9
:1005200063C1C3F064C1C4F065C1C5F00001C66B0E
:08053000C76BC86BC96B120018
:0A053800030E0D6E0D2EFED712000B
:1005420003500718D8A4B5EF02F002500618D8A439
:10055200B5EF02F001500518D8A4B5EF02F0005033
:0E0562000418D8B4D8841200D89412001200E5
:10057000500E0101636F000E646F37C165F138C121
:1005800066F139C167F13AC168F1D3DD540E01015A
:10059000636F000E646F33C165F134C166F135C11C
:1005A00067F136C168F1C5DD580E0101636F000EB9
:1005B000646F41C165F142C166F143C167F144C155
:1005C00068F1B7DD5C0E0101636F000E646F2B0EE6
:1005D000656F020E666F000E676F686FAADD020E10
:1005E0000B6E040E0C6EBA0E0D6E0D2EFED70C2E79
:0A05F000FCD70B2EFAD70000120012
:1005FA000050086E0150006E016A026A036A0B6AB3
:10060A000C6A960E036E0A6A00C001F008C000F078
:08061A00086A026A16DE1200F4
:10062200FF0E01013715636F000E3715016EFF0EC5
:100632003815026E39C103F03AC104F0000E0316F8
:10064200041602C00DF003C00EF004C00FF0106AD1
:10065200000E3715016E000E3815026EFF0E3915A9
:10066200036E000E3A15046E03C009F004C00AF0CE
:100672000B6A0C6A000E3715056E000E3815066EF1
:10068200000E3915076EFF0E3A15086E08C000F00D
:10069200016A026A036A00C05AF1FF0E33155B6FEA
:1006A200000E3315056EFF0E3415066E35C107F0C8
:1006B20036C108F0000E0716081606C000F007C083
:1006C20001F008C002F0036A00C05CF1000E3315AD
:1006D200056E000E3415066EFF0E3515076E000E00
:1006E2003615086E07C000F008C001F0026A036AFE
:1006F20000C05DF1000E3315056E000E3415066E56
:10070200000E3515076EFF0E3615086E08C000F094
:10071200016A026A036A00C05EF1FF0E41155F6F53
:10072200000E4115056EFF0E4215066E43C107F01D
:1007320044C108F0000E0716081606C000F007C0F4
:1007420001F008C002F0036A00C060F1000E41151A
:10075200056E000E4215066EFF0E4315076E000E63
:100762004415086E07C000F008C001F0026A036A6F
:1007720000C061F1000E4115056E000E4215066EB5
:10078200000E4315076EFF0E4415086E08C000F0F8
:10079200016A026A036A00C062F10DC064F109C015
:1007A20065F1BDDEC30E0101636F000E646F030EBF
:1007B200656FF4DD020E0B6E040E0C6EBA0E0D6E3A
:1007C2000D2EFED70C2EFCD70B2EFAD700005AC1E5
:1007D20063F15BC164F15CC165F1A1DEC30E01018D
:1007E200636F000E646F030E656FD8DD020E0B6E31
:1007F200040E0C6EBA0E0D6E0D2EFED70C2EFCD70B
:100802000B2EFAD700005DC163F15EC164F15FC1D6
:1008120065F185DEC30E0101636F000E646F030E86
:10082200656FBCDD020E0B6E040E0C6EBA0E0D6E01
:100832000D2EFED70C2EFCD70B2EFAD7000060C16E
:1008420063F161C164F162C165F169DEC30E010148
:10085200636F000E646F030E656FA0DD020E0B6EF8
:10086200040E0C6EBA0E0D6E0D2EFED70C2EFCD79A
:080872000B2EFAD70000120062
:10087A00500E0101636F000E646F1CDD00C037F17A
:10088A0001C038F102C039F103C03AF1540E636F66
:10089A00000E646F0FDD00C033F101C034F102C0F5
:1008AA0035F103C036F1580E636F000E646F02DD36
:1008BA0000C041F101C042F102C043F103C044F15A
:1008CA00020E0B6E040E0C6EBA0E0D6E0D2EFED7B6
:0C08DA000C2EFCD70B2EFAD700001200E9
:1008E600CB50010F006E016A000E01225AC104F0BE
:1008F600000E056E80DC060E026E00C004F001C01C
:1009060005F0025005E005320432059EFF0FFAD7C6
:10091600040E016E04C000F0015004E000360090A1
:10092600FF0FFBD7300E0014036E04C000F005C0A5
:1009360001F001320032019E01320032019E00C0F8
:0C094600BEFF0F0EBD160350BD121200C4
:10095200316A326A3A6A3692596A5A6A5B6A5C6AE0
:100962005D6A010E576E5E6A536A546A556A566A28
:10097200010E586E020E356E020E2C6E020E2D6E98
:10098200020E2E6E020E396E640E0101316F640E7C
:100992000001CC6F376A3690246AFF0E386EFF0E64
:1009A200206EFF0E216EFF0E226EFF0E1E6EFF0ED8
:1009B2001F6EFF0E296EFF0E2A6E580E1D6E580E08
:0809C2002B6E580E236E12008B
:1009CA00016A800E01BE7F0E006E800E005C03E19C
:1009DA000001CC51015C0DE2CD0EE16E000EE26E1B
:1009EA000150E126000E01BEFF0EE222E66A012A4C
:1009FA00E8D70001CC6BFF0E1E6EFF0E1F6EFF0EB6
:080A0A00296EFF0E2A6E120096
:100A1200016A800E01BE7F0E006E800E005C03E153
:100A220001013151015C0DE25F0EE16E000EE26EDA
:100A32000150E126000E01BEFF0EE222E66A012A03
:100A4200E8D70101316BFF0E386EFF0E206EFF0EEC
:080A5200216EFF0E226E12005E
:0E0A5A0092929292928080828092808012000E
:080A6800BE6ABD98BD9A1200A0
:100A7000808262DD0B0E006E0DD0A90E026E022E7A
:100A8000FED7000001015A335A9F5A8FD8A002D0D6
:100A9000808202D08092000000060052EEE1120037
:0A0AA0009494CA840C0EBD121200DB
:100AAA0083948480829A809A1A0E0B6E5E0E0C6E64
:100ABA006E0E0D6E0D2EFED70C2EFCD70B2EFAD70E
:100ACA0000008490828A809A1A0E0B6E5E0E0C6E5B
:100ADA006E0E0D6E0D2EFED70C2EFCD70B2EFAD7EE
:100AEA0000008490829A808A1A0E0B6E5E0E0C6E3B
:100AFA006E0E0D6E0D2EFED70C2EFCD70B2EFAD7CE
:0A0B0A0000008480828A808A1200B5
:040B140081721200D8
:100B18000900F5CFE6FF0006FBE10106F9E1120046
:100B2800256A266A276A286A5C0E0101636F000E2F
:100B3800646F5FEC01F0000E046E031808E10450C6
:100B4800021805E1020E011802E100502B0A02E129
:100B580090DE0DD0336B346B356B366B376B386B7F
:100B6800396B3A6B416B426B436B446BFDDC0F0E88
:100B7800C16E070EB46E806A816A826A836A846A6B
:100B8800DB0E926EF90E936EDB0E946EFB0E956E75
:100B9800060E966E86DFD9DE38DF13DFCA80CA926A
:100BA800450ECB6E5DDF190E01015A6F98DE74DFBA
:100BB80050DF060E0B6E130E0C6EAD0E0D6E0D2E65
:100BC800FED70C2EFCD70B2EFAD70000000012001F
:100BD8004DC000F04EC001F06AEC00F0005201E197
:100BE80020D140C000F041C001F06AEC00F000C024
:100BF8004CF0FCD04C50960A03E1020E3F6E4B6A53
:100C080010D14C50441804E04C50320A01E005D091
:100C1800030E3F6E4C504B1A02D0010E3F6E01D1AD
:100C2800455209E0400E4C14016E0150000A03E1E0
:100C3800010E3F6EF6D04CAE13D0040E3F6E4CC082
:100C480051F04C504B1A030E4C14016E01C052F077
:100C58000150000A02E1050E3F6E010E4A6E0BD0EC
:100C6800050E01017025E16E000E7121E26EFF0E86
:100C7800E66E010E3F6ED5D04C50A90A0CE1010179
:100C8800050E7025E16E000E7121E26EFF0EE66E14
:100C9800010E3F6EC6D04A50525C006E016A000ECB
:100CA800015A0050011012E001014A04006E016A65
:100CB800000E015A00507025E16E01507121E26E5C
:100CC8004CC0E6FF4C504B1A4A2A12D001014A0484
:100CD800006E016A000E015A00507025E16E015045
:100CE8007121E26E4CC0E6FF050E3F6E4C504B1A68
:100CF80098D04B1C016E01C04BF00150960A04E0DD
:100D08004B50A90A01E001D04B2A4B504C1803E183
:100D1800060E3F6E0BD00101050E7025E16E000E28
:100D28007121E26EFF0EE66E010E3F6E7AD04C50D6
:100D3800A90A41E10101010E3F6E040E7025E16E22
:100D4800000E7121E26EFF0EE66E030E7025E16E55
:100D5800000E7121E26E52C0E6FF010E4A6E4A5043
:100D6800525C28E34AC001F0020E006E015004E014
:100D780000360090FF0FFBD75150001619E0010113
:100D88004A04006E016A000E015A00507025026E76
:100D980001507121036E02C0E9FF03C0EAFF010E92
:100DA800EE18006E02C0E1FF03C0E2FF00C0E6FFDC
:100DB8004A2AD5D70BD00101050E7025E16E000E29
:100DC8007121E26EFF0EE66E010E3F6E2AD0010120
:100DD800050E7025E16E000E7121E26EFF0EE66EC3
:100DE800010E3F6E1ED0010E3F6E1BD03F50010A10
:100DF800D8B400D73F50020AD8B403D73F50030AEB
:100E0800D8B40ED73F50040AD8B436D73F50050A95
:100E1800D8B46FD73F50060A8AE03F50070AD7E098
:040E2800E2D71200FB
:100E2C00314A322A6D0E325C02E1600E315C38E3DD
:100E3C00316A326A2C503524006E016A000E012290
:100E4C002D500026000E01222E500026000E0122ED
:100E5C0039500024026E000E0120036E800E006ECD
:100E6C00800E0318005C02E10250060819E336A25A
:100E7C0017D0420E01015A6FF5DD0D0E01015A6FAC
:100E8C00F1DD0A0E01015A6FEDDD3A2A3A50050ADE
:100E9C0007E1010E01014127000E422343234423A5
:100EAC00000E321802E1000E311817E031C000F0CC
:100EBC0032C001F0FDEC02F0000E046EC00E056EA7
:100ECC005A0E066E8C0E076EA1EC02F0010ED8A421
:100EDC00000E006E005201E104D0050E3A5CD8B051
:100EEC00838431C000F032C001F0FDEC02F0000E42
:100EFC00046EC00E056E140E066E8B0E076EA1EC02
:100F0C0002F0010ED8A4000E006E005217E131C0A1
:100F1C0000F032C001F0FDEC02F0000E046E900EF9
:100F2C00056E120E066E8D0E076EA1EC02F0010E10
:100F3C00D8A4000E006E005201E104D0050E3A5CFC
:060F4C00D8B083941200EE
:100F520037C14EF138C14FF139C150F13AC151F1A7
:100F620033C152F134C153F135C154F136C155F197
:100F720041C156F142C157F143C158F144C159F13F
:100F8200B8EC02F079DC3A51511908E139515019A3
:100F920005E138514F1902E137514E191DE1365121
:100FA200551908E13551541905E13451531902E13B
:100FB2003351521911E14451591908E14351581959
:100FC20005E14251571902E14151561905E1010E5D
:100FD200006E000E016E1AD04EC137F14FC138F1CA
:100FE20050C139F151C13AF152C133F153C134F117
:100FF20054C135F155C136F156C141F157C142F1E3
:0E10020058C143F159C144F1006A016A12005D
:101010003550000AD8B467D22C50000AD8B463D235
:101020002D50000AD8B45FD22E50000AD8B45BD23B
:101030003950000AD8B457D236A203D03A6A839402
:10104000369236A050D283AA0FD137500008D8B0BC
:101050000BD10D0E01015A6F0BDD0A0E01015A6F03
:1010600007DD2D0E01015A6F03DD470E01015A6F96
:10107000FFDC520E01015A6FFBDC410E01015A6F79
:10108000F7DC2D0E01015A6FF3DC0D0E01015A6FD2
:10109000EFDC0A0E01015A6FEBDC3850FF0A29E041
:1010A0002050FF0A26E02150FF0A23E02250FF0AC9
:1010B00020E0800E2118006E800E3818005C0DE2D2
:1010C000800E2218006E800E2018005C03E2450E90
:1010D0001D6E02D0510E1D6E0CD0800E2218006EB7
:1010E000800E2018005C03E2500E1D6E02D0530EDD
:1010F0001D6E1E50FF0A29E01F50FF0A26E02950EE
:10110000FF0A23E02A50FF0A20E0800E2918006E13
:10111000800E1E18005C0DE2800E2A18006E800EF4
:101120001F18005C03E2450E2B6E02D0510E2B6E91
:101130000CD0800E2A18006E800E1F18005C03E28F
:10114000500E2B6E02D0530E2B6E1D50580A1DE010
:101150002B50580A1AE02B50530A08E01D50530A2E
:1011600004E12B50500A01E101D002D0530E236E4E
:101170002B50450A08E01D50450A04E12B50510A46
:1011800001E101D002D0450E236E2450010A06E190
:101190002350450A02E1580E236E35D024500B0A25
:1011A00006E12350530A02E1580E236E2CD024503E
:1011B0006F0A0CE12350450A03E1530E236E05D05C
:1011C0002350530A02E1450E236E1DD024506E0AAF
:1011D0000CE12350450A03E1530E236E05D0235042
:1011E000530A02E1580E236E0ED02450640A0BE11C
:1011F0002350450A03E1580E236E05D02350530AAD
:1012000002E1450E236E2350450A15E1010E01014E
:101210003727000E382339233A2333513725256EDB
:1012200034513821266E35513921276E36513A21F5
:10123000286E580E236E2350530A15E10101010E4A
:101240003327000E34233523362333513725256EBB
:1012500034513821266E35513921276E36513A21C5
:10126000286E580E236E19D183BA17D1020E375C3F
:10127000D8A013D101010D0E5A6F38EC05F00A0EFB
:1012800001015A6F38EC05F02D0E01015A6F38EC50
:1012900005F0500E01015A6F38EC05F04C0E0101BB
:1012A0005A6F38EC05F0410E01015A6F38EC05F029
:1012B0002D0E01015A6F38EC05F00D0E01015A6F29
:1012C00038EC05F00A0E01015A6F38EC05F0385081
:1012D000FF0A29E02050FF0A26E02150FF0A23E000
:1012E0002250FF0A20E0800E2118006E800E381870
:1012F000005C0DE2800E2218006E800E2018005C4B
:1013000003E2450E1D6E02D0510E1D6E0CD0800EF4
:101310002218006E800E2018005C03E2500E1D6E35
:1013200002D0530E1D6E1E50FF0A29E01F50FF0A07
:1013300026E02950FF0A23E02A50FF0A20E0800E11
:101340002918006E800E1E18005C0DE2800E2A180F
:10135000006E800E1F18005C03E2450E2B6E02D05B
:10136000510E2B6E0CD0800E2A18006E800E1F18A6
:10137000005C03E2500E2B6E02D0530E2B6E1D50FC
:10138000580A1DE02B50580A1AE02B50530A08E067
:101390001D50530A04E12B50500A01E101D002D044
:1013A000530E236E2B50450A08E01D50450A04E1F8
:1013B0002B50510A01E101D002D0450E236E24507A
:1013C000010A06E12350450A02E1580E236E35D08A
:1013D00024500B0A06E12350530A02E1580E236EF3
:1013E0002CD024506F0A0CE12350450A03E1530E20
:1013F000236E05D02350530A02E1450E236E1DD003
:1014000024506E0A0CE12350450A03E1530E236E6B
:1014100005D02350530A02E1580E236E0ED02450FB
:10142000640A0BE12350450A03E1580E236E05D0F0
:101430002350530A02E1450E236E2350450A15E15D
:10144000010E01013727000E382339233A23335187
:101450003725256E34513821266E35513921276EB6
:1014600036513A21286E580E236E2350530A15E147
:101470000101010E3327000E342335233623335167
:101480003725256E34513821266E35513921276E86
:1014900036513A21286E580E236E376AFF0E1E6EA3
:1014A000FF0E1F6EFF0E296EFF0E2A6EFF0E386EA6
:1014B000FF0E206EFF0E216EFF0E226E596A5A6AD1
:1014C0005B6A5C6A5D6A5E6A536A546A556A566A08
:1014D000020E356E020E2C6E020E2D6E020E2E6E58
:1014E000020E396E36903550000A0DE02C50000A7D
:1014F0000AE02D50000A07E02E50000A04E039509F
:10150000000A01E00BD036B007D03680580E1D6EB1
:0E151000580E2B6E580E236E36A23682120035
:10151E0001014A53D8A44A6B49530BE0818281845E
:10152E00496B45C132F1FF0E326F11EC03F081921F
:04153E008194120082
:1015420082B206D082B004D00A0E0001CA6F17D050
:1015520082B206D082A004D00001140ECA6F0FD04E
:1015620082A206D082B004D000011E0ECA6F07D03C
:1015720082A205D082A003D00001280ECA6FCAC081
:0415820000F0120063
:10158600580E466E000E476E6F0E486E010E496E7F
:10159600820E406E000E416E000E426E000E436ECD
:1015A600780E4D6E000E4E6E000E4F6E000E506E93
:1015B600940E3B6E000E3C6E000E3D6E000E3E6EAF
:1015C600AC8A900EAB6E948E949C9EAA03D0AECF3E
:0615D60000F0FBD712003B
:1015DC0092948094010E3F6E456A4EC144F0010115
:1015EC004E51960A04E04E51A90A01E005D0010EB5
:0A15FC004E19446EFF0E456E1200FA
:1016060001014E6B4F6B506B83AE00D084B400D09B
:1016160081AC14D03950000810E22250FF0A03E1D1
:1016260059C022F0592A396A410E5A6F38EC05F032
:10163600590E01015A6F38EC05F037D03950000ABF
:1016460034E15AC021F0010E5A26000E5B225C22BC
:101656005D22FF0E5D5C08E1FF0E5C5C05E1FE0E9F
:101666005B5C02E1D80E5A5C14E3800E3818006EFB
:10167600800E2118005C04E2010E216E386A03D048
:10168600216A010E386E020E5A6E000E5B6E5C6E9B
:101696005D6E010E396E410E01015A6F38EC05F090
:1016A600580E01015A6F38EC05F081AE15D02E5058
:1016B600000811E22050FF0A03E159C020F0592A20
:1016C6002E6A410E01015A6F38EC05F04E0E0101EB
:1016D6005A6F38EC05F039D02E50000A36E15A50D0
:1016E6005702F3CF38F0010E5A26000E5B225C2219
:1016F6005D22FF0E5D5C08E1FF0E5C5C05E1FE0EFF
:101706005B5C02E1D80E5A5C14E3800E3818006E5A
:10171600800E2118005C04E2010E216E386A03D0A7
:10172600216A010E386E020E5A6E000E5B6E5C6EFA
:101736005D6E010E2E6E410E01015A6F38EC05F0FA
:101746004D0E01015A6F38EC05F084A215D02D50CC
:10175600000811E22A50FF0A03E15EC02AF05E2A61
:101766002D6A420E01015A6F38EC05F0590E01013F
:101776005A6F38EC05F037D02D50000A34E153C0CB
:1017860029F0010E5326000E542255225622565099
:10179600FF0808E15550FF0805E15450FE0802E134
:1017A6005350D80814E2800E1E18006E800E2918B9
:1017B600005C04E2010E296E1E6A03D0296A010E3E
:1017C6001E6E020E536E000E546E556E566E010E50
:1017D6002D6E420E01015A6F38EC05F0580E0101CC
:1017E6005A6F38EC05F080A615D02C50000811E28F
:1017F6001F50FF0A03E15EC01FF05E2A2C6A420EEC
:1018060001015A6F38EC05F04E0E01015A6F38ECA3
:1018160005F039D02C50000A36E153505802F3CF68
:101826001EF0010E5326000E542255225622565003
:10183600FF0808E15550FF0805E15450FE0802E193
:101846005350D80814E2800E1E18006E800E291818
:10185600005C04E2010E296E1E6A03D0296A010E9D
:101866001E6E020E536E000E546E556E566E010EAF
:101876002C6E420E01015A6F38EC05F04D0E010137
:101886005A6F38EC05F080A80BD03550000807E2F7
:10189600372A356A430E01015A6F38EC05F00BD032
:1018A6003550000A08E1372A010E356E430E010154
:1018B6005A6F38EC05F03550000A0DE02C50000A3E
:1018C6000AE02D50000A07E02E50000A04E03950C5
:1018D600000A01E004D08490829A808A03D0848032
:1018E600828A809A83A604D0640E01014E6F02D0CC
:1018F60001014E6B82A803D00A0E4F6F01D04F6BC9
:1019060083A803D0010E506F01D0506B4F514E2566
:08191600246E5051242612003A
:10191E00086A080E0C6E003408360450085ED8B003
:0E192E0002D00826D89000360C2EF5D71200F5
:10193C0094EC05F0B886040EB06E110EAF6EAC844C
:10194C001CDE060E0B6E130E0C6EAD0E0D6E0D2EF8
:10195C00FED70C2EFCD70B2EFAD700000000EBDDC7
:10196C0000C04EF135DE3F6B406B416B9D8A9D98FC
:10197C00F28CF28E450E5A6F38EC05F0530E0101C5
:10198C005A6F38EC05F0D7DD0A0E046EC2DF300E4C
:10199C00002401015A6F38EC05F00D0E01015A6F4D
:1019AC0038EC05F00A0E01015A6F38EC05F03DECED
:1019BC0004F023DE83AC04D016EC07F008EC08F03E
:1019CC0084A456D0827A530E01015A6F38EC05F07C
:1019DC00490E01015A6F38EC05F04E0E01015A6F99
:1019EC0038EC05F00D0E01015A6F38EC05F00A0EBB
:1019FC0001015A6F38EC05F0A9EC07F0060E0B6EDE
:101A0C00130E0C6EAD0E0D6E0D2EFED70C2EFCD7DC
:101A1C000B2EFAD700000000A9EC07F0000E0118FD
:101A2C0002E1010E001823E1000E301802E1000E55
:101A3C002F181DE1470E5A6F38EC05F04F0E0101BF
:101A4C005A6F38EC05F04B0E01015A6F38EC05F06B
:101A5C000D0E01015A6F38EC05F00A0E01015A6F98
:101A6C0038EC05F0010E2F6E000E306E8470A8D786
:101A7C0084B405D03DEC04F02F6A306A819280B8B2
:101A8C000FD080B60DD084B20BD081BE09D081BCF2
:101A9C0007D00101450E4E6F010E4F6F3ADD02D09B
:081AAC008AEC05F086D7FFD794
:020000040030CA
:0D000100061F1EFF8180FF0FC00FE00F40A3
:00000001FF
