:0400000049EF0BF0C9
:1000080000C018F001C017F002C016F003C015F0C8
:10001800E1CF1BF0E2CF1CF0E9CF19F0EACF1AF0DC
:10002800310E0101706F010E716FE7EC05F018C019
:1000380000F017C001F016C002F015C003F019C097
:10004800E9FF1AC0EAFF1BC0E1FF1CC0E2FF110074
:0E005800ACB202D00000FCD76FC1ADFF1200A9
:100066006FC1C9FFC7B002D00000FCD7C9CF00F0EE
:02007600120076
:0A007800000E9EBA010E006E120089
:10008200AECF01F0ABA202D0AB98AB8801C000F0BA
:0200920012005A
:0A009400000EACB2010E006E120067
:10009E000B840BAE5AEF00F0010E036E026A016A7A
:0A00AE00006A0A360232FF0E12004B
:1000B800A69C6DC1AAFF6CC1A9FFA69EA680A8CF69
:0400C80000F0120032
:0800CC000AAE029E000E1200B4
:1000D400F250026EF29E0500FF6A0150FE6E00505F
:0800E400FD6E02BEF28E120057
:1000EC00A6A202D00000FCD7A69C6DC1AAFF6CC1D1
:1000FC00A9FF6EC1A8FFA69EA684F2CF00F0F29EC7
:10010C00550EA76EAA0EA76EA68200BE02D0F29E56
:08011C0001D0F28EA69412003E
:0E012400026A016A006A086A036A000E12008D
:10013200FF0E01016515696F000E6515056EFF0E54
:100142006615066E67C107F068C108F0000E071653
:10015200081606C000F007C001F008C002F0036AEA
:1001620000C06AF1000E6515056E000E6615066E7A
:10017200FF0E6715076E000E6815086E07C000F0C7
:1001820008C001F0026A036A00C06BF1000E651537
:10019200056E000E6615066E000E6715076EFF0EE1
:1001A2006815086E08C000F0016A026A036A63C13A
:1001B2006CF164C16DF100C06EF197DF0101634B18
:1001C200642B63C16CF164C16DF16BC16EF18DDFA3
:1001D2000101634B642B63C16CF164C16DF16AC1AF
:1001E2006EF183DF0101634B642B63C16CF164C167
:0A01F2006DF169C16EF179DF1200B2
:1001FC000B6A0A6A096A00500402F4CF09F0F3CFC3
:10020C0008F001500502F4CF0BF0F3CF0AF00050C8
:10021C000502F3500926F4500A22E86A0B22015019
:10022C000402F3500926F4500A22E86A0B2208C093
:10023C0000F009C001F00AC002F00BC003F012007C
:10024C000C6A0E6A0250D8A43FEF01F001C002F014
:10025C0000C001F0006A0E860250D8A43FEF01F0F6
:10026C0001C002F0016A0E960E880250D8B451EF0C
:10027C0001F00E50035ED8A4D8A056EF01F0D89030
:10028C0002BE5BEF01F0003601360236032E46EF5C
:10029C0001F056EF01F0010E0C6E3EDF5EEF01F047
:1002AC00020E0C6EF6DE5EEF01F0040E0C6E08DF33
:0202BC0012002E
:1002BE000101656B666B676B686B63C16CF164C142
:1002CE006DF1F3DE00C005F0000E066E076E086ECF
:1002DE0005C003F0006A016A026A005065270150EA
:1002EE0066230250672303506823634B642B63C15C
:1002FE006CF164C16DF1D9DE00C005F0000E066E22
:10030E00076E086E06C003F005C002F0006A016AAF
:10031E00005065270150662302506723035068235F
:10032E00634B642B63C16CF164C16DF1BEDE00C022
:10033E0005F0000E066E076E086E07C003F006C0CD
:10034E0002F005C001F0006A0050652701506623D7
:10035E000250672303506823634B642B63C16CF117
:10036E0064C16DF1A2DE000E016E026E036E655168
:10037E00002666510122675102226851032200C0F5
:10038E0065F101C066F102C067F103C068F11200A9
:10039E0051C069F1435204E0010E51180101696F19
:1003AE00010180846505686F46C0E1FF47C0E2FF2A
:1003BE00960EE66E44C000F045C001F084DE0101E9
:1003CE006951960A04E06951A90A01E002D06971E7
:1003DE00658D46C0E1FF47C0E2FF69C1E6FF44C03C
:1003EE0000F045C001F06FDE0101666B6651685D7D
:1003FE0032E366516325E96E000E6421EA6EEECF9C
:10040E0001F001C06AF10150960A04E06A51A90A8E
:10041E0001E01FD066516325016E000E6421026E4D
:10042E0001C0E9FF02C0EAFF010EEE18006E01C026
:10043E00E1FF02C0E2FF00C0E6FF66C101F0040E5C
:10044E00006E015004E000360090FF0FFBD7005005
:10045E006513662BCBD746C0E1FF47C0E2FF65C1EF
:10046E00E6FF44C000F045C001F02DDE01016951E8
:10047E006519676F666B6651685D1EE3665163258D
:10048E00006E000E6421016E00C0D9FF01C0DAFFBC
:10049E00DE50671B46C0E1FF47C0E2FF00C0E9FF28
:1004AE0001C0EAFFEECFE6FF44C000F045C001F008
:1004BE000ADE0101662BDFD7671D016E01C067F1F1
:1004CE000150960A04E06751A90A01E001D0672B9A
:1004DE0046C0E1FF47C0E2FF67C1E6FF44C000F03F
:1004EE0045C001F0F0DD46C0E1FF47C0E2FFA90EB6
:1004FE00E66E44C000F045C001F0E5DD3FC000F0FF
:10050E0040C001F0E0DD0050000A01E1F7D7809411
:02051E001200C9
:1005200063C15EF064C15FF065C160F0616A626AD8
:06053000636A646A120018
:0A053600030E0D6E0D2EFED712000D
:1005400003500718D8A4B4EF02F002500618D8A43C
:10055000B4EF02F001500518D8A4B4EF02F0005037
:0E0560000418D8B4D8841200D89412001200E7
:10056E00500E0101636F000E646F48C165F149C101
:10057E0066F14AC167F14BC168F1D4DD540E010139
:10058E00636F000E646F44C165F145C166F146C1EB
:10059E0067F147C168F1C6DD580E0101636F000EA9
:1005AE00646F40C165F141C166F142C167F143C15B
:1005BE0068F1B8DD5C0E0101636F000E646F2B0EE7
:1005CE00656F020E666F000E676F686FABDD020E11
:1005DE000B6E040E0C6EBA0E0D6E0D2EFED70C2E7B
:0A05EE00FCD70B2EFAD70000120014
:1005F8000050086E0150006E016A026A036A0B6AB5
:100608000C6A960E036E0A6A00C001F008C000F07A
:08061800086A026A17DE1200F5
:10062000FF0E01014815636F000E4815016EFF0EA5
:100630004915026E4AC103F04BC104F0000E0316C7
:10064000041602C00DF003C00EF004C00FF0106AD3
:10065000000E4815016E000E4915026EFF0E4A1578
:10066000036E000E4B15046E03C009F004C00AF0BF
:100670000B6A0C6A000E4815056E000E4915066ED1
:10068000000E4A15076EFF0E4B15086E08C000F0ED
:10069000016A026A036A00C05AF1FF0E44155B6FDB
:1006A000000E4415056EFF0E4515066E46C107F097
:1006B00047C108F0000E0716081606C000F007C074
:1006C00001F008C002F0036A00C05CF1000E44159E
:1006D000056E000E4515066EFF0E4615076E000EE0
:1006E0004715086E07C000F008C001F0026A036AEF
:1006F00000C05DF1000E4415056E000E4515066E36
:10070000000E4615076EFF0E4715086E08C000F074
:10071000016A026A036A00C05EF1FF0E40155F6F56
:10072000000E4015056EFF0E4115066E42C107F022
:1007300043C108F0000E0716081606C000F007C0F7
:1007400001F008C002F0036A00C060F1000E40151D
:10075000056E000E4115066EFF0E4215076E000E67
:100760004315086E07C000F008C001F0026A036A72
:1007700000C061F1000E4015056E000E4115066EB9
:10078000000E4215076EFF0E4315086E08C000F0FC
:10079000016A026A036A00C062F10DC064F109C017
:1007A00065F1BEDE5E0E636F000E646F030E656F53
:1007B000F6DD020E0B6E040E0C6EBA0E0D6E0D2ED3
:1007C000FED70C2EFCD70B2EFAD700005AC163F1CE
:1007D0005BC164F15CC165F1A3DE5E0E0101636F74
:1007E000000E646F030E656FDADD020E0B6E040EF1
:1007F0000C6EBA0E0D6E0D2EFED70C2EFCD70B2EE6
:10080000FAD700005DC163F15EC164F15FC165F1BB
:1008100087DE5E0E0101636F000E646F030E656F6D
:10082000BEDD020E0B6E040E0C6EBA0E0D6E0D2E9A
:10083000FED70C2EFCD70B2EFAD7000060C163F157
:1008400061C164F162C165F16BDE5E0E0101636F2F
:10085000000E646F030E656FA2DD020E0B6E040EB8
:100860000C6EBA0E0D6E0D2EFED70C2EFCD70B2E75
:06087000FAD7000012009F
:10087600500E0101636F000E646F1EDD00C048F16B
:1008860001C049F102C04AF103C04BF1540E636F37
:10089600000E646F11DD00C044F101C045F102C0D5
:1008A60046F103C047F1580E636F000E646F04DD16
:1008B60000C040F101C041F102C042F103C043F162
:1008C600020E0B6E040E0C6EBA0E0D6E0D2EFED7BA
:0C08D6000C2EFCD70B2EFAD700001200ED
:1008E200CB50010F006E016A000E01225AC104F0C2
:1008F200000E056E82DC060E026E00C004F001C01E
:1009020005F0025005E005320432059EFF0FFAD7CA
:10091200040E016E04C000F0015004E000360090A5
:10092200FF0FFBD7300E0014036E04C000F005C0A9
:1009320001F001320032019E01320032019E00C0FC
:0C094200BEFF0F0EBD160350BD121200C8
:10094E002F6A306A386A3792396A586A596A5A6A0F
:10095E005B6A010E526E5C6A546A556A566A576A31
:10096E00010E536E020E336E020E2E6E020E2C6EA2
:10097E00020E2D6E020E346E640E01012F6F640E88
:10098E005D6E356A3790236AFF0E366EFF0E2B6E44
:10099E00FF0E206EFF0E216EFF0E1D6EFF0E1E6EE1
:1009AE00FF0E226EFF0E296E580E1F6E580E2A6E07
:0609BE00580E286E120025
:1009C400016A800E01BE7F0E006E800E005C02E1A3
:1009D4005D50015C0DE2CB0EE16E000EE26E015043
:1009E400E126000E01BEFF0EE222E66A012AE9D7E3
:1009F4005D6AFF0E1D6EFF0E1E6EFF0E226EFF0E51
:040A0400296E120045
:100A0800016A800E01BE7F0E006E800E005C03E15D
:100A180001012F51015C0DE2670EE16E000EE26EDE
:100A28000150E126000E01BEFF0EE222E66A012A0D
:100A3800E8D701012F6BFF0E366EFF0E2B6EFF0EEF
:080A4800206EFF0E216E12006A
:0E0A5000929292929280808280928080120018
:080A5E00BE6ABD98BD9A1200AA
:100A6600808266DD0B0E006E0DD0A90E026E022E80
:100A7600FED7000001015A335A9F5A8FD8A002D0E0
:100A8600808202D08092000000060052EEE1120041
:0A0A96009494CA840C0EBD121200E5
:100AA000838A8480829A809A1A0E0B6E5E0E0C6E78
:100AB0006E0E0D6E0D2EFED70C2EFCD70B2EFAD718
:100AC00000008490828A809A1A0E0B6E5E0E0C6E65
:100AD0006E0E0D6E0D2EFED70C2EFCD70B2EFAD7F8
:100AE00000008490829A808A1A0E0B6E5E0E0C6E45
:100AF0006E0E0D6E0D2EFED70C2EFCD70B2EFAD7D8
:0A0B000000008480828A808A1200BF
:040B0A0081721200E2
:100B0E000900F5CFE6FF0006FBE10106F9E1120050
:100B1E00246A256A266A276A5C0E0101636F000E3D
:100B2E00646F5FEC01F0000E046E031808E10450D0
:100B3E00021805E1020E011802E100502B0A02E133
:100B4E0093DE0DD0446B456B466B476B486B496B20
:100B5E004A6B4B6B406B416B426B436B01DD0F0E6F
:100B6E00C16E070EB46E806A816A826A836A846A75
:100B7E00DB0E926EF90E936EDB0E946EDB0E956E9F
:100B8E00060E966E86DFDCDE38DF15DFCA80CA926F
:100B9E00450ECB6E5DDF190E01015A6F9BDE74DFC1
:100BAE0050DF060E0B6E130E0C6EAD0E0D6E0D2E6F
:100BBE00FED70C2EFCD70B2EFAD700000000120029
:100BCE0048C000F049C001F06AEC00F0005201E1AB
:100BDE0020D13BC000F03CC001F06AEC00F000C038
:100BEE004DF0FCD04D50960A03E1020E3A6E4C6A5F
:100BFE0010D14D50511804E04D50320A01E005D08D
:100C0E00030E3A6E4D504C1A02D0010E3A6E01D1BF
:100C1E00435209E0400E4D14016E0150000A03E1EB
:100C2E00010E3A6EF6D04DAE13D0040E3A6E4DC094
:100C3E004FF04D504C1A030E4D14016E01C050F082
:100C4E000150000A02E1050E3A6E010E4E6E0BD0F7
:100C5E00050E01017025E16E000E7121E26EFF0E90
:100C6E00E66E010E3A6ED5D04D50A90A0CE1010187
:100C7E00050E7025E16E000E7121E26EFF0EE66E1E
:100C8E00010E3A6EC6D04E50505C006E016A000ED8
:100C9E00015A0050011012E001014E04006E016A6B
:100CAE00000E015A00507025E16E01507121E26E66
:100CBE004DC0E6FF4D504C1A4E2A12D001014E0483
:100CCE00006E016A000E015A00507025E16E01504F
:100CDE007121E26E4DC0E6FF050E3A6E4D504C1A74
:100CEE0098D04C1C016E01C04CF00150960A04E0E5
:100CFE004C50A90A01E001D04C2A4C504D1803E18A
:100D0E00060E3A6E0BD00101050E7025E16E000E37
:100D1E007121E26EFF0EE66E010E3A6E7AD04D50E4
:100D2E00A90A41E10101010E3A6E040E7025E16E31
:100D3E00000E7121E26EFF0EE66E030E7025E16E5F
:100D4E00000E7121E26E50C0E6FF010E4E6E4E5047
:100D5E00505C28E34EC001F0020E006E015004E01C
:100D6E0000360090FF0FFBD74F50001619E001011F
:100D7E004E04006E016A000E015A00507025026E7C
:100D8E0001507121036E02C0E9FF03C0EAFF010E9C
:100D9E00EE18006E02C0E1FF03C0E2FF00C0E6FFE6
:100DAE004E2AD5D70BD00101050E7025E16E000E2F
:100DBE007121E26EFF0EE66E010E3A6E2AD001012F
:100DCE00050E7025E16E000E7121E26EFF0EE66ECD
:100DDE00010E3A6E1ED0010E3A6E1BD03A50010A29
:100DEE00D8B400D73A50020AD8B403D73A50030AFF
:100DFE00D8B40ED73A50040AD8B436D73A50050AAA
:100E0E00D8B46FD73A50060A8AE03A50070AD7E0AC
:040E1E00E2D7120005
:100E22002F4A302A360E305C02E1B00E2F5C2CE3E2
:100E32002F6A306A2E503324006E016A000E01229E
:100E42002C500026000E01222D500026000E0122F9
:100E520034500024026E000E0120036E800E006EDC
:100E6200800E0318005C02E1025006080DE337A26F
:100E72000BD0382A3850050A07E1010E010140273C
:100E8200000E412342234323000E301802E1000EDC
:100E92002F1817E02FC000F030C001F0FCEC02F078
:100EA200000E046EC00E056E5A0E066E8B0E076E95
:100EB200A0EC02F0010ED8A4000E006E005201E177
:100EC20004D0050E385CD8B0839A2FC000F030C031
:100ED20001F0FCEC02F0000E046EC00E056E140E62
:100EE200066E8A0E076EA0EC02F0010ED8A4000E68
:100EF200006E005217E12FC000F030C001F0FCEC90
:100F020002F0000E046E900E056E120E066E8C0E2E
:100F1200076EA0EC02F0010ED8A4000E006E005283
:0E0F220001E104D0050E385CD8B0838A1200BD
:100F300048C14EF149C14FF14AC150F14BC151F185
:100F400044C152F145C153F146C154F147C155F175
:100F500040C156F141C157F142C158F143C159F165
:100F6000B7EC02F088DC4B51511908E14A51501995
:100F700005E149514F1902E148514E191DE1475110
:100F8000551908E14651541905E14551531902E13B
:100F90004451521911E14351591908E1425158196C
:100FA00005E14151571902E14051561905E1010E81
:100FB000006E000E016E1AD04EC148F14FC149F1CA
:100FC00050C14AF151C14BF152C144F153C145F1F5
:100FD00054C146F155C147F156C140F157C141F1E5
:0E0FE00058C142F159C143F1006A016A120082
:100FEE003350000AD8B427D12E50000AD8B423D1DA
:100FFE002C50000AD8B41FD12D50000AD8B41BD1E2
:10100E003450000AD8B417D137A203D0386A838A75
:10101E00379237A010D1020E355CD8A0E6D03650EC
:10102E00FF0A29E02B50FF0A26E02050FF0A23E09A
:10103E002150FF0A20E0800E2018006E800E361818
:10104E00005C0DE2800E2118006E800E2B18005CE5
:10105E0003E2450E1F6E02D0510E1F6E0CD0800E95
:10106E002118006E800E2B18005C03E2500E1F6ECE
:10107E0002D0530E1F6E1D50FF0A29E01E50FF0AAC
:10108E0026E02250FF0A23E02950FF0A20E0800EBE
:10109E002218006E800E1D18005C0DE2800E2918BD
:1010AE00006E800E1E18005C03E2450E2A6E02D002
:1010BE00510E2A6E0CD0800E2918006E800E1E184E
:1010CE00005C03E2500E2A6E02D0530E2A6E1F50A1
:1010DE00580A1DE02A50580A1AE02A50530A08E00E
:1010EE001F50530A04E12A50500A01E101D002D0E8
:1010FE00530E286E2A50450A08E01F50450A04E197
:10110E002A50510A01E101D002D0450E286E23501B
:10111E00010A06E12850450A02E1580E286E35D024
:10112E0023500B0A06E12850530A02E1580E286E8E
:10113E002CD023506F0A0CE12850450A03E1530EC0
:10114E00286E05D02850530A02E1450E286E1DD098
:10115E0023506E0A0CE12850450A03E1530E286E07
:10116E0005D02850530A02E1580E286E0ED0235097
:10117E00640A0BE12850450A03E1580E286E05D08B
:10118E002850530A02E1450E286E2850450A15E1F3
:10119E00010E01014827000E49234A234B234451D7
:1011AE004825246E45514921256E46514A21266E09
:1011BE0047514B21276E580E286E2850530A15E1C1
:1011CE000101010E4427000E4523462347234451B7
:1011DE004825246E45514921256E46514A21266ED9
:1011EE0047514B21276E580E286E356AFF0E1D6E25
:1011FE00FF0E1E6EFF0E226EFF0E296EFF0E366E56
:10120E00FF0E2B6EFF0E206EFF0E216E396A586A8E
:10121E00596A5A6A5B6A5C6A546A556A566A576AB0
:10122E00020E336E020E2E6E020E2C6E020E2D6EFE
:10123E00020E346E37903350000A0DE02E50000A25
:10124E000AE02C50000A07E02D50000A04E034504A
:10125E00000A01E00BD037B007D03780580E1F6E52
:0E126E00580E2A6E580E286E37A237821200D4
:10127C0001013653D8A4366B35530BE0818281843F
:10128C00356B31C130F1FF0E306F10EC03F08192F1
:04129C008194120027
:1012A00082B205D082B003D00A0E656E14D082B22D
:1012B00005D082A003D0140E656E0DD082A205D099
:1012C00082B003D01E0E656E06D082A204D082A02A
:0C12D00002D0280E656E65C000F0120010
:1012DC00580E446E000E456E6F0E466E010E476E34
:1012EC00820E3B6E000E3C6E000E3D6E000E3E6E8E
:1012FC00780E486E000E496E000E4A6E000E4B6E54
:10130C00940E3F6E000E406E000E416E000E426E4B
:10131C00AC8A900EAB6E948E949C9EAA03D0AECFEA
:06132C0000F0FBD71200E7
:1013320092948094010E3A6E436A4EC151F00101BB
:101342004E51960A04E04E51A90A01E005D0010E61
:0A1352004E19516EFF0E436E12009B
:10135C0001014E6B4F6B506B83AE00D084B400D048
:10136C0081AC14D03450000810E22150FF0A03E184
:10137C0039C021F0392A346A410E5A6F33EC05F02A
:10138C00590E01015A6F33EC05F037D03450000A76
:10139C0034E158C020F0010E5826000E59225A2272
:1013AC005B22FF0E5B5C08E1FF0E5A5C05E1FE0E52
:1013BC00595C02E1D80E585C14E3800E3618006EAE
:1013CC00800E2018005C04E2010E206E366A03D0F9
:1013DC00206A010E366E020E586E000E596E5A6E51
:1013EC005B6E010E346E410E01015A6F33EC05F049
:1013FC00580E01015A6F33EC05F081AE15D02D500B
:10140C00000811E22B50FF0A03E139C02BF0392AF6
:10141C002D6A410E01015A6F33EC05F04E0E01019D
:10142C005A6F33EC05F039D02D50000A36E1585084
:10143C005202F3CF36F0010E5826000E59225A22D2
:10144C005B22FF0E5B5C08E1FF0E5A5C05E1FE0EB1
:10145C00595C02E1D80E585C14E3800E3618006E0D
:10146C00800E2018005C04E2010E206E366A03D058
:10147C00206A010E366E020E586E000E596E5A6EB0
:10148C005B6E010E2D6E410E01015A6F33EC05F0AF
:10149C004D0E01015A6F33EC05F084A215D02C507F
:1014AC00000811E22950FF0A03E15CC029F05C2A14
:1014BC002C6A420E01015A6F33EC05F0590E0101F2
:1014CC005A6F33EC05F037D02C50000A34E154C07D
:1014DC0022F0010E5426000E552256225722575048
:1014EC00FF0808E15650FF0805E15550FE0802E1DF
:1014FC005450D80814E2800E1D18006E800E22186D
:10150C00005C04E2010E226E1D6A03D0226A010EF9
:10151C001D6E020E546E000E556E566E576E010EF9
:10152C002C6E420E01015A6F33EC05F0580E01017E
:10153C005A6F33EC05F080A615D02E50000811E23E
:10154C001E50FF0A03E15CC01EF05C2A2E6A420E9C
:10155C0001015A6F33EC05F04E0E01015A6F33EC5A
:10156C0005F039D02E50000A36E154505302F3CF17
:10157C001DF0010E5426000E5522562257225750AC
:10158C00FF0808E15650FF0805E15550FE0802E13E
:10159C005450D80814E2800E1D18006E800E2218CC
:1015AC00005C04E2010E226E1D6A03D0226A010E59
:1015BC001D6E020E546E000E556E566E576E010E59
:1015CC002E6E420E01015A6F33EC05F04D0E0101E7
:1015DC005A6F33EC05F080A80BD03350000807E2AB
:1015EC00352A336A430E01015A6F33EC05F00BD0E8
:1015FC003350000A08E1352A010E336E430E010107
:10160C005A6F33EC05F03350000A0DE02E50000AEF
:10161C000AE02C50000A07E02D50000A04E0345078
:10162C00000A01E004D08490829A808A03D08480DE
:10163C00828A809A83A604D0640E01014E6F02D078
:10164C0001014E6B82A803D00A0E4F6F01D04F6B75
:10165C0083A803D0010E506F01D0506B4F514E2513
:08166C00236E505123261200E9
:10167400086A080E0C6E003408360450085ED8B0B0
:0E16840002D00826D89000360C2EF5D71200A2
:101692008FEC05F0B886040EB06E110EAF6EAC84FE
:1016A2001CDE060E0B6E130E0C6EAD0E0D6E0D2EA5
:1016B200FED70C2EFCD70B2EFAD700000000EFDD70
:1016C20000C04EF135DE3E6B3F6B406B9D8A9D98AC
:1016D200F28CF28E450E5A6F33EC05F0530E010177
:1016E2005A6F33EC05F0DBDD0A0E046EC2DF300EFA
:1016F200002401015A6F33EC05F00D0E01015A6FFF
:1017020033EC05F00A0E01015A6F33EC05F03BECA5
:1017120004F023DE83AC03D011EC07F067DC83B264
:1017220045D0530E01015A6F33EC05F0490E010109
:101732005A6F33EC05F04E0E01015A6F33EC05F08F
:101742000D0E01015A6F33EC05F00A0E01015A6FBA
:1017520033EC05F098EC07F0000E011802E1010EDF
:10176200001823E1000E4D1902E1000E4C191DE193
:10177200470E5A6F33EC05F04F0E01015A6F33ECEE
:1017820005F04B0E01015A6F33EC05F00D0E01010D
:101792005A6F33EC05F00A0E01015A6F33EC05F073
:1017A200010E01014C6F000E4D6FB9D783A204D018
:1017B20001014C6B4D6B839280B80FD080B60DD077
:1017C20084B20BD081BE09D081BC07D00101310E99
:1017D2004E6F010E4F6F51DD02D085EC05F099D7A7
:0217E200FFD72F
:020000040030CA
:0D000100061F1EFF8181FF0FC00FE00F40A2
:00000001FF
