:0400000005EF0DF00B
:1000080000C018F001C017F002C016F003C015F0C8
:10001800E1CF1BF0E2CF1CF0E9CF19F0EACF1AF0DC
:10002800400E01016A6F010E6B6F74EC08F018C086
:1000380000F017C001F016C002F015C003F019C097
:10004800E9FF1AC0EAFF1BC0E1FF1CC0E2FF110074
:0E005800ACB202D00000FCD769C1ADFF1200AF
:1000660069C1C9FFC7B002D00000FCD7C9CF00F0F4
:02007600120076
:0A007800000E9EBA010E006E120089
:10008200AECF01F0ABA202D0AB98AB8801C000F0BA
:0200920012005A
:0A009400000EACB2010E006E120067
:10009E00A6A202D00000FCD7A69C67C1AAFF66C12B
:1000AE00A9FF68C1A8FFA69EA684F2CF00F0F29E1B
:1000BE00550EA76EAA0EA76EA68200BE02D0F29EA5
:0800CE0001D0F28EA69412008D
:0800D6000AAE029E000E1200AA
:1000DE00A69C67C1AAFF66C1A9FFA69EA680A8CF4F
:0400EE0000F012000C
:1000F200F250026EF29E0500FF6A0150FE6E005041
:08010200FD6E02BEF28E120038
:10010A000B840BAE90EF00F0010E036E026A016AD7
:0A011A00006A0A360232FF0E1200DE
:0E012400026A016A006A086A036A000E12008D
:0A013200030E0D6E0D2EFED7120015
:10013C00FF0E01015F15636F000E5F15056EFF0E5C
:10014C006015066E61C107F062C108F0000E07165B
:10015C00081606C000F007C001F008C002F0036AE0
:10016C0000C064F1000E5F15056E000E6015066E82
:10017C00FF0E6115076E000E6215086E07C000F0C9
:10018C0008C001F0026A036A00C065F1000E5F1539
:10019C00056E000E6015066E000E6115076EFF0EE3
:1001AC006215086E08C000F0016A026A036A5DC13C
:1001BC0066F15EC167F100C068F16BDF01015D4B58
:1001CC005E2B5DC166F15EC167F165C168F161DFEF
:1001DC0001015D4B5E2B5DC166F15EC167F164C1CF
:1001EC0068F157DF01015D4B5E2B5DC166F15EC1AD
:0A01FC0067F163C168F14DDF1200E6
:100206000C6A0E6A0250D8A41CEF01F001C002F07D
:1002160000C001F0006A0E860250D8A41CEF01F05F
:1002260001C002F0016A0E960E880250D8B42EEF75
:1002360001F00E50035ED8A4D8A033EF01F0D89099
:1002460002BE38EF01F0003601360236032E23EFE8
:1002560001F033EF01F0010E0C6E61DF3BEF01F0B0
:10026600020E0C6E4FDF3BEF01F0040E0C6E30DF1A
:02027600120074
:100278000B6A0A6A096A00500402F4CF09F0F3CF46
:1002880008F001500502F4CF0BF0F3CF0AF000504C
:100298000502F3500926F4500A22E86A0B2201509D
:1002A8000402F3500926F4500A22E86A0B2208C017
:1002B80000F009C001F00AC002F00BC003F0120000
:1002C80046C063F1475204E0010E46180101636F0E
:1002D800010180845F05626F4AC0E1FF4BC0E2FF05
:1002E800960EE66E48C000F049C001F0FEDE01013E
:1002F8006351960A04E06351A90A01E002D06371D0
:100308005F8D4AC0E1FF4BC0E2FF63C1E6FF48C012
:1003180000F049C001F0E9DE0101606B6051625DE7
:1003280032E360515D25E96E000E5E21EA6EEECF84
:1003380001F001C064F10150960A04E06451A90A71
:1003480001E01FD060515D25016E000E5E21026E36
:1003580001C0E9FF02C0EAFF010EEE18006E01C0FD
:10036800E1FF02C0E2FF00C0E6FF60C101F0040E39
:10037800006E015004E000360090FF0FFBD70050DC
:100388005F13602BCBD74AC0E1FF4BC0E2FF5FC1D0
:10039800E6FF48C000F049C001F0A7DE0101635143
:1003A8005F19616F606B6051625D1EE360515D258E
:1003B800006E000E5E21016E00C0D9FF01C0DAFF99
:1003C800DE50611B4AC0E1FF4BC0E2FF00C0E9FFFD
:1003D80001C0EAFFEECFE6FF48C000F049C001F0D7
:1003E80084DE0101602BDFD7611D016E01C061F160
:1003F8000150960A04E06151A90A01E001D0612B7D
:100408004AC0E1FF4BC0E2FF61C1E6FF48C000F00F
:1004180049C001F06ADE4AC0E1FF4BC0E2FFA90E05
:10042800E66E48C000F049C001F05FDE3DC000F054
:100438003EC001F05ADE0050000A01E1F7D780946F
:020448001200A0
:10044A005DC1C5F05EC1C6F05FC1C7F00001C86BEF
:08045A00C96BCA6BCB6B1200E9
:1004620001015F6B606B616B626B5DC166F15EC1C6
:1004720067F134DE00C005F0000E066E076E086EEE
:1004820005C003F0006A016A026A00505F2701504A
:10049200602302506123035062235D4B5E2B5DC1DA
:1004A20066F15EC167F11ADE00C005F0000E066E4D
:1004B200076E086E06C003F005C002F0006A016A0A
:1004C20000505F27015060230250612303506223D2
:1004D2005D4B5E2B5DC166F15EC167F1FFDD00C061
:1004E20005F0000E066E076E086E07C003F006C028
:1004F20002F005C001F0006A00505F27015060233E
:1005020002506123035062235D4B5E2B5DC166F195
:100512005EC167F1E3DD000E016E026E036E5F5194
:10052200002660510122615102226251032200C061
:100532005FF101C060F102C061F103C062F112001B
:1005420003500718D8A4B5EF02F002500618D8A439
:10055200B5EF02F001500518D8A4B5EF02F0005033
:0E0562000418D8B4D8841200D89412001200E5
:100570000050086E0150006E016A026A036A0B6A3D
:100580000C6A960E036E0A6A00C001F008C000F003
:08059000086A026A38DE12005D
:10059800FF0E010134155D6F000E3415016EFF0E5C
:1005A8003515026E36C103F037C104F0000E03168C
:1005B800041602C00DF003C00EF004C00FF0106A5C
:1005C800000E3415016E000E3515026EFF0E36153D
:1005D800036E000E3715046E03C009F004C00AF05C
:1005E8000B6A0C6A000E3415056E000E3515066E82
:1005F800000E3615076EFF0E3715086E08C000F09E
:10060800016A026A036A00C054F1FF0E3815556F7B
:10061800000E3815056EFF0E3915066E3AC107F043
:100628003BC108F0000E0716081606C000F007C008
:1006380001F008C002F0036A00C056F1000E381538
:10064800056E000E3915066EFF0E3A15076E000E80
:100658003B15086E07C000F008C001F0026A036A83
:1006680000C057F1000E3815056E000E3915066EDC
:10067800000E3A15076EFF0E3B15086E08C000F015
:10068800016A026A036A00C058F1FF0E3C15596FEF
:10069800000E3C15056EFF0E3D15066E3EC107F0B7
:1006A8003FC108F0000E0716081606C000F007C084
:1006B80001F008C002F0036A00C05AF1000E3C15B0
:1006C800056E000E3D15066EFF0E3E15076E000EF8
:1006D8003F15086E07C000F008C001F0026A036AFF
:1006E80000C05BF1000E3C15056E000E3D15066E50
:1006F800000E3E15076EFF0E3F15086E08C000F08D
:10070800016A026A036A00C05CF10DC05EF109C0AB
:100718005FF197DEC50E01015D6F000E5E6F030E7F
:100728005F6FCEDD020E0B6E040E0C6EBA0E0D6EF0
:100738000D2EFED70C2EFCD70B2EFAD7000054C175
:100748005DF155C15EF156C15FF17BDEC50E010159
:100758005D6F000E5E6F030E5F6FB2DD020E0B6EF3
:10076800040E0C6EBA0E0D6E0D2EFED70C2EFCD795
:100778000B2EFAD7000057C15DF158C15EF159C17F
:100788005FF15FDEC50E01015D6F000E5E6F030E47
:100798005F6F96DD020E0B6E040E0C6EBA0E0D6EB8
:1007A8000D2EFED70C2EFCD70B2EFAD700005AC1FF
:1007B8005DF15BC15EF15CC15FF143DEC50E010115
:1007C8005D6F000E5E6F030E5F6F7ADD020E0B6EBB
:1007D800040E0C6EBA0E0D6E0D2EFED70C2EFCD725
:0807E8000B2EFAD700001200ED
:1007F000500E01015D6F000E5E6F33DE00C034F1FC
:1008000001C035F102C036F103C037F1540E5D6FFF
:10081000000E5E6F26DE00C038F101C039F102C063
:100820003AF103C03BF1580E5D6F000E5E6F19DEAA
:1008300000C03CF101C03DF102C03EF103C03FF1F8
:10084000020E0B6E040E0C6EBA0E0D6E0D2EFED740
:0C0850000C2EFCD70B2EFAD70000120073
:10085C00016A800E01BE7F0E006E800E005C03E10B
:10086C0001013351015C0DE2610EE16E000EE26E8E
:10087C000150E126000E01BEFF0EE222E66A012ABB
:10088C00E8D70101336BFF0E3A6EFF0E226EFF0E9E
:08089C00236EFF0E246E120012
:1008A40083948480829A809A1A0E0B6E5E0E0C6E6C
:1008B4006E0E0D6E0D2EFED70C2EFCD70B2EFAD716
:1008C40000008490828A809A1A0E0B6E5E0E0C6E63
:1008D4006E0E0D6E0D2EFED70C2EFCD70B2EFAD7F6
:1008E40000008490829A808A1A0E0B6E5E0E0C6E43
:1008F4006E0E0D6E0D2EFED70C2EFCD70B2EFAD7D6
:0A09040000008480828A808A1200BD
:0E090E0092929292928080828092808012005B
:10091C00016A800E01BE7F0E006E800E005C03E14A
:10092C000001CE51015C0DE2CF0EE16E000EE26EC5
:10093C000150E126000E01BEFF0EE222E66A012AFA
:10094C00E8D70001CE6BFF0E206EFF0E216EFF0E5E
:08095C002B6EFF0E2C6E120041
:0A0964009494CA840C0EBD12120018
:10096E00808299EC00F00B0E006E0DD0A90E026E77
:10097E00022EFED7000001015433549F548FD8A08D
:10098E0002D0808202D08092000000060052EEE17A
:02099E00120045
:1009A000500E01015D6F000E5E6F34C15FF135C105
:1009B00060F136C161F137C162F19EEC00F0540E76
:1009C00001015D6F000E5E6F38C15FF139C160F1EA
:1009D0003AC161F13BC162F19EEC00F0580E010199
:1009E0005D6F000E5E6F3CC15FF13DC160F13EC1C5
:1009F00061F13FC162F19EEC00F05C0E01015D6FA0
:100A0000000E5E6F2B0E5F6F020E606F000E616F47
:100A1000626F9EEC00F0020E0B6E040E0C6EBA0EAE
:100A20000D6E0D2EFED70C2EFCD70B2EFAD7000024
:020A30001200B2
:080A3200BE6ABD98BD9A1200D6
:100A3A00CB50010F006E016A000E012254C104F06E
:100A4A00000E056E14DC060E026E00C004F001C032
:100A5A0005F0025005E005320432059EFF0FFAD771
:100A6A00040E016E04C000F0015004E0003600904C
:100A7A00FF0FFBD7300E0014036E04C000F005C050
:100A8A0001F001320032019E01320032019E00C0A3
:0C0A9A00BEFF0F0EBD160350BD1212006F
:100AA600336A346A3C6A38925B6A5C6A5D6A5E6A7B
:100AB6005F6A010E596E606A556A566A576A586AC5
:100AC600010E5A6E020E376E020E2E6E020E2F6E3B
:100AD600020E306E020E3B6E640E0101336F640E21
:100AE6000001CE6F396A3890266AFF0E3A6EFF0E05
:100AF600226EFF0E236EFF0E246EFF0E206EFF0E7B
:100B0600216EFF0E2B6EFF0E2C6E580E1F6E580EAA
:080B16002D6E580E256E120031
:100B1E003750000AD8B462D22E50000AD8B45ED232
:100B2E002F50000AD8B45AD23050000AD8B456D238
:100B3E003B50000AD8B452D238A203D03C6A8394F8
:100B4E00389238A04BD283AA11D139500008D8B0B0
:100B5E000DD10D0E0101546F03DF0A0E0101546F0A
:100B6E00FFDE2D0E0101546FFBDE470E0101546FA7
:100B7E00F7DE520E0101546FF3DE410E0101546F88
:100B8E00EFDE2D0E0101546FEBDE0D0E0101546FE1
:100B9E00E7DE0A0E0101546FE3DE3A50FF0A29E048
:100BAE002250FF0A26E02350FF0A23E02450FF0ABA
:100BBE0020E0800E2318006E800E3A18005C0DE2C5
:100BCE00800E2418006E800E2218005C03E2450E83
:100BDE001F6E02D0510E1F6E0CD0800E2418006EA8
:100BEE00800E2218005C03E2500E1F6E02D0530ED0
:100BFE001F6E2050FF0A29E02150FF0A26E02B50DD
:100C0E00FF0A23E02C50FF0A20E0800E2B18006E06
:100C1E00800E2018005C0DE2800E2C18006E800EE7
:100C2E002118005C03E2450E2D6E02D0510E2D6E82
:100C3E000CD0800E2C18006E800E2118005C03E282
:100C4E00500E2D6E02D0530E2D6E1F50580A1DE001
:100C5E002D50580A1AE02D50530A08E01F50530A1F
:100C6E0004E12D50500A01E101D002D0530E256E41
:100C7E002D50450A08E01F50450A04E12D50510A37
:100C8E0001E101D002D0450E256E2650010A06E183
:100C9E002550450A02E1580E256E35D026500B0A16
:100CAE0006E12550530A02E1580E256E2CD026502F
:100CBE006F0A0CE12550450A03E1530E256E05D04F
:100CCE002550530A02E1450E256E1DD026506E0AA0
:100CDE000CE12550450A03E1530E256E05D0255033
:100CEE00530A02E1580E256E0ED02650640A0BE10F
:100CFE002550450A03E1580E256E05D02550530A9E
:100D0E0002E1450E256E2550450A16E1010E010140
:100D1E003427000E35233623372338513425276EDA
:100D2E0039513521286E3A513621296E3B513721E2
:100D3E002A6E580E256E2DDE2550530A16E1010E31
:100D4E0001013827000E39233A233B23385134252D
:100D5E00276E39513521286E3A513621296E3B5175
:100D6E0037212A6E580E256E14DE12D183BA10D199
:100D7E00020E395CD8A00CD10D0E0101546FF0DDBE
:100D8E000A0E0101546FECDD2D0E0101546FE8DDEA
:100D9E00500E0101546FE4DD4C0E0101546FE0DD85
:100DAE00410E0101546FDCDD2D0E0101546FD8DDB3
:100DBE000D0E0101546FD4DD0A0E0101546FD0DD0A
:100DCE003A50FF0A29E02250FF0A26E02350FF0A7C
:100DDE0023E02450FF0A20E0800E2318006E800EC0
:100DEE003A18005C0DE2800E2418006E800E221858
:100DFE00005C03E2450E1F6E02D0510E1F6E0CD02A
:100E0E00800E2418006E800E2218005C03E2500E35
:100E1E001F6E02D0530E1F6E2050FF0A29E0215084
:100E2E00FF0A26E02B50FF0A23E02C50FF0A20E099
:100E3E00800E2B18006E800E2018005C0DE2800EC6
:100E4E002C18006E800E2118005C03E2450E2D6EEC
:100E5E0002D0510E2D6E0CD0800E2C18006E800E0E
:100E6E002118005C03E2500E2D6E02D0530E2D6E33
:100E7E001F50580A1DE02D50580A1AE02D50530AE3
:100E8E0008E01F50530A04E12D50500A01E101D031
:100E9E0002D0530E256E2D50450A08E01F50450A0C
:100EAE0004E12D50510A01E101D002D0450E256E0C
:100EBE002650010A06E12550450A02E1580E256E1C
:100ECE0035D026500B0A06E12550530A02E1580E82
:100EDE00256E2CD026506F0A0CE12550450A03E1F1
:100EEE00530E256E05D02550530A02E1450E256E90
:100EFE001DD026506E0A0CE12550450A03E1530E13
:100F0E00256E05D02550530A02E1580E256E0ED0DF
:100F1E002650640A0BE12550450A03E1580E256E52
:100F2E0005D02550530A02E1450E256E2550450A7F
:100F3E0016E1010E01013427000E35233623372327
:100F4E0038513425276E39513521286E3A513621C4
:100F5E00296E3B5137212A6E580E256E1ADD25500B
:100F6E00530A16E1010E01013827000E39233A23E8
:100F7E003B2338513425276E39513521286E3A518D
:100F8E003621296E3B5137212A6E580E256E01DD12
:100F9E00396AFF0E206EFF0E216EFF0E2B6EFF0EB6
:100FAE002C6EFF0E3A6EFF0E226EFF0E236EFF0E9C
:100FBE00246E5B6A5C6A5D6A5E6A5F6A606A556A25
:100FCE00566A576A586A020E376E020E2E6E020E5F
:100FDE002F6E020E306E020E3B6E38903750000AA6
:100FEE000DE02E50000A0AE02F50000A07E03050A4
:100FFE00000A04E03B50000A01E00BD038B007D0E5
:10100E003880580E1F6E580E2D6E580E256E38A253
:04101E003882120002
:101022000900F5CFE6FF0006FBE10106F9E1120037
:10103200276A286A296A2A6A5C0E01015D6F000E1E
:101042005E6F31EC02F0000E046E031808E10450EA
:10105200021805E1020E011802E100502B0A03E119
:10106200F8EC03F00DD0386B396B3A6B3B6B346B99
:10107200356B366B376B3C6B3D6B3E6B3F6B8FDC7E
:101082000F0EC16E070EB46E806A816A826A836A2D
:10109200846ADB0E926EF90E936EDB0E946EFB0E7B
:1010A200956E060E966E52EC04F0FCDC2EEC04F00B
:1010B20034DCCA80CA92450ECB6EBADC190E01012D
:1010C200546FBADC4EDC22DC060E0B6E130E0C6E75
:1010D200AD0E0D6E0D2EFED70C2EFCD70B2EFAD7B1
:0610E200000000001200F6
:1010E8004FC000F050C001F079EC00F0005201E16F
:1010F80020D142C000F043C001F079EC00F000C0FC
:101108004EF0FCD04E50960A03E1020E416E4D6A35
:1011180010D14E50461804E04E50320A01E005D076
:10112800030E416E4E504D1A02D0010E416E01D190
:10113800475209E0400E4E14016E0150000A03E1C7
:10114800010E416EF6D04EAE13D0040E416E4EC065
:1011580053F04E504D1A030E4E14016E01C054F058
:101168000150000A02E1050E416E010E4C6E0BD0D3
:10117800050E01016A25E16E000E6B21E26EFF0E7D
:10118800E66E010E416ED5D04E50A90A0CE1010160
:10119800050E6A25E16E000E6B21E26EFF0EE66E0B
:1011A800010E416EC6D04C50545C006E016A000EB0
:1011B800015A0050011012E001014C04006E016A4E
:1011C800000E015A00506A25E16E01506B21E26E53
:1011D8004EC0E6FF4E504D1A4C2A12D001014C0465
:1011E800006E016A000E015A00506A25E16E015036
:1011F8006B21E26E4EC0E6FF050E416E4E504D1A51
:1012080098D04D1C016E01C04DF00150960A04E0C3
:101218004D50A90A01E001D04D2A4D504E1803E166
:10122800060E416E0BD00101050E6A25E16E000E17
:101238006B21E26EFF0EE66E010E416E7AD04E50C3
:10124800A90A41E10101010E416E040E6A25E16E11
:10125800000E6B21E26EFF0EE66E030E6A25E16E4C
:10126800000E6B21E26E54C0E6FF010E4C6E4C502E
:10127800545C28E34CC001F0020E006E015004E0FB
:1012880000360090FF0FFBD75350001619E00101FC
:101298004C04006E016A000E015A00506A25026E65
:1012A80001506B21036E02C0E9FF03C0EAFF010E83
:1012B800EE18006E02C0E1FF03C0E2FF00C0E6FFC7
:1012C8004C2AD5D70BD00101050E6A25E16E000E18
:1012D8006B21E26EFF0EE66E010E416E2AD001010F
:1012E800050E6A25E16E000E6B21E26EFF0EE66EBA
:1012F800010E416E1ED0010E416E1BD04150010AF5
:10130800D8B400D74150020AD8B403D74150030AD1
:10131800D8B40ED74150040AD8B436D74150050A7C
:10132800D8B46FD74150060A8AE04150070AD7E07F
:04133800E2D71200E6
:10133C00334A342A6D0E345C02E1600E335C3BE3BD
:10134C00336A346A2E503724006E016A000E012273
:10135C002F500026000E012230500026000E0122D4
:10136C003B500024026E000E0120036E800E006EB6
:10137C00800E0318005C02E1025006081CE338A240
:10138C001AD0420E0101546FB7EC04F00D0E01019E
:10139C00546FB7EC04F00A0E0101546FB7EC04F073
:1013AC003C2A3C50050A07E1010E01013C27000EC6
:1013BC003D233E233F23000E341802E1000E331868
:1013CC0017E033C000F034C001F0B8EC02F0000EAE
:1013DC00046EC00E056E5A0E066E8C0E076EA1ECD6
:1013EC0002F0010ED8A4000E006E005201E104D0F0
:1013FC00030E3C5CD8B0838433C000F034C001F0E1
:10140C00B8EC02F0000E046EC00E056E140E066EE3
:10141C008B0E076EA1EC02F0010ED8A4000E006E2C
:10142C00005217E133C000F034C001F0B8EC02F008
:10143C00000E046E900E056E120E066E8D0E076E6B
:10144C00A1EC02F0010ED8A4000E006E005201E1D6
:0C145C0004D0030E3C5CD8B08394120056
:04146800817212007B
:10146C00580E486E000E496E690E4A6E010E4B6E98
:10147C00820E426E000E436E000E446E000E456EE0
:10148C00780E4F6E000E506E000E516E000E526EA6
:10149C00940E3D6E000E3E6E000E3F6E000E406EC2
:1014AC00AC8A900EAB6E948E949C9EAA03D0AECF59
:0614BC0000F0FBD7120056
:1014C2000101516B526B536B83AE00D084B400D0D8
:1014D20081AC14D03B50000810E22450FF0A03E113
:1014E2005BC024F05B2A3B6A410E546FB7EC04F0F8
:1014F200590E0101546FB7EC04F037D03B50000A8B
:1015020034E15CC023F0010E5C26000E5D225E22F7
:101512005F22FF0E5F5C08E1FF0E5E5C05E1FE0EDE
:101522005D5C02E1D80E5C5C14E3800E3A18006E3A
:10153200800E2318005C04E2010E236E3A6A03D087
:10154200236A010E3A6E020E5C6E000E5D6E5E6ED6
:101552005F6E010E3B6E410E0101546FB7EC04F059
:10156200580E0101546FB7EC04F081AE15D0305023
:10157200000811E22250FF0A03E15BC022F05B2A5D
:10158200306A410E0101546FB7EC04F04E0E0101B6
:10159200546FB7EC04F039D03050000A36E15C5099
:1015A2005902F3CF3AF0010E5C26000E5D225E2254
:1015B2005F22FF0E5F5C08E1FF0E5E5C05E1FE0E3E
:1015C2005D5C02E1D80E5C5C14E3800E3A18006E9A
:1015D200800E2318005C04E2010E236E3A6A03D0E7
:1015E200236A010E3A6E020E5C6E000E5D6E5E6E36
:1015F2005F6E010E306E410E0101546FB7EC04F0C4
:101602004D0E0101546FB7EC04F084A215D02F5097
:10161200000811E22C50FF0A03E160C02CF0602A9E
:101622002F6A420E0101546FB7EC04F0590E01010A
:10163200546FB7EC04F037D02F50000A34E155C094
:101642002BF0010E5526000E5622572258225850D2
:10165200FF0808E15750FF0805E15650FE0802E175
:101662005550D80814E2800E2018006E800E2B18F8
:10167200005C04E2010E2B6E206A03D02B6A010E7D
:10168200206E020E556E000E566E576E586E010E8B
:101692002F6E420E0101546FB7EC04F0580E010197
:1016A200546FB7EC04F080A615D02E50000811E25A
:1016B2002150FF0A03E160C021F0602A2E6A420E27
:1016C2000101546FB7EC04F04E0E0101546FB7ECF8
:1016D20004F039D02E50000A36E155505A02F3CFA9
:1016E20020F0010E5526000E56225722582258503D
:1016F200FF0808E15750FF0805E15650FE0802E1D5
:101702005550D80814E2800E2018006E800E2B1857
:10171200005C04E2010E2B6E206A03D02B6A010EDC
:10172200206E020E556E000E566E576E586E010EEA
:101732002E6E420E0101546FB7EC04F04D0E010102
:10174200546FB7EC04F080A80BD03750000807E2C2
:10175200392A376A430E0101546FB7EC04F030D0D6
:101762003750000A2DE1392A010E376E430E01016E
:10177200546FB7EC04F0450E0101546FB7EC04F05E
:1017820034C154F1B7EC04F0530E0101546FB7ECBD
:1017920004F038C154F1B7EC04F0420E0101546F69
:1017A200B7EC04F03CC154F1B7EC04F00D0E0101AA
:1017B200546FB7EC04F00A0E0101546FB7EC04F059
:1017C2003750000A0DE02E50000A0AE02F50000A9E
:1017D20007E03050000A04E03B50000A01E004D068
:1017E2008490829A808A03D08480828A809A83A697
:1017F20004D0640E0101516F02D00101516B82A825
:1018020003D00A0E526F01D0526B83A803D0010E8F
:10181200536F01D0536B52515125266E53512626D8
:021822001200B2
:1018240082B206D082B004D00A0E0001CC6F17D069
:1018340082B206D082A004D00001140ECC6F0FD067
:1018440082A206D082B004D000011E0ECC6F07D055
:1018540082A205D082A003D000011E0ECC6FCCC0A2
:0418640000F012007E
:1018680001014553D8A4456B4453D8B4A5D081820F
:101878008184446B40C149F14051FF0A05E1CCEC39
:1018880002F08192819498D001014951FA0A42E10B
:10189800520E546FB7EC04F0530E0101546FB7ECBD
:1018A80004F0540E0101546FB7EC04F00D0E010161
:1018B800546FB7EC04F00A0E0101546FB7EC04F052
:1018C80001014A6B050E4A5D20E2808A060E0B6E06
:1018D800130E0C6EAD0E0D6E0D2EFED70C2EFCD712
:1018E8000B2EFAD700000000809A060E0B6E130E1E
:1018F8000C6EAD0E0D6E0D2EFED70C2EFCD70B2EDA
:10190800FAD7000000004A2BDDD7010E1D6E000E2D
:101918001E6E52D04951FB0A4FE1520E546FB7EC7C
:1019280004F0540E0101546FB7EC04F0550E010198
:10193800546FB7EC04F00D0E0101546FB7EC04F0CE
:101948000A0E0101546FB7EC04F001014A6B050E51
:101958004A5D20E28480060E0B6E130E0C6EAD0EEF
:101968000D6E0D2EFED70C2EFCD70B2EFAD70000CD
:1019780000008490060E0B6E130E0C6EAD0E0D6EED
:101988000D2EFED70C2EFCD70B2EFAD70000000028
:101998004A2BDDD7346B356B366B376B386B396B4D
:1019A8003A6B3B6B3C6B3D6B3E6B3F6BD0EC04F092
:0A19B800010E1D6E000E1E6E1200DF
:1019C200086A080E0C6E003408360450085ED8B05F
:0E19D20002D00826D89000360C2EF5D7120051
:1019E00092948094010E416E476A51C146F0010104
:1019F0005151960A04E05151A90A01E005D0010EA7
:0A1A00005119466EFF0E476E1200EA
:101A0A001D6A1E6A19EC08F0B886040EB06E110E33
:101A1A00AF6EAC8426DD060E0B6E130E0C6EAD0E89
:101A2A000D6E0D2EFED70C2EFCD70B2EFAD700000A
:101A3A000000F3DE00C051F1CEDF4F6B506B516BEB
:101A4A009D8A9D98F28CF28E450E546FB7EC04F085
:101A5A00530E0101546FB7EC04F0DFDE0A0E046E78
:101A6A00ABDF300E00240101546FB7EC04F00D0E09
:101A7A000101546FB7EC04F00A0E0101546FB7EC80
:101A8A0004F01ADD83AC03D054DC8FEC05F080B887
:101A9A000FD080B60DD084B20BD081BE09D081BCE4
:101AAA0007D0400E0101516F010E526FD8DE01D0EE
:101ABA00D6DC000E1E1802E1010E1D1875E11D6A22
:101ACA001E6A2A0E0101546FB7EC04F02A0E0101B6
:101ADA00546FB7EC04F02A0E0101546FB7EC04F00E
:101AEA002A0E0101546FB7EC04F02A0E0101546F5B
:101AFA00B7EC04F02A0E0101546FB7EC04F02A0E79
:101B0A000101546FB7EC04F02A0E0101546FB7ECCF
:101B1A0004F0520E0101546FB7EC04F0490E0101B2
:101B2A00546FB7EC04F04E0E0101546FB7EC04F099
:101B3A00490E0101546FB7EC04F02A0E0101546FEB
:101B4A00B7EC04F02A0E0101546FB7EC04F02A0E28
:101B5A000101546FB7EC04F02A0E0101546FB7EC7F
:101B6A0004F02A0E0101546FB7EC04F02A0E0101A9
:101B7A00546FB7EC04F02A0E0101546FB7EC04F06D
:101B8A002A0E0101546FB7EC04F00D0E0101546FD7
:101B9A00B7EC04F00A0E0101546FB7EC04F0010E21
:0C1BAA00316E000E326E2ED76CD7FFD7C4
:020000040030CA
:0D000100061F1EFF8181FF0FC00FE00F40A2
:00000001FF
