:040000005FEF0CF0B2
:1000080000C018F001C017F002C016F003C015F0C8
:10001800E1CF1BF0E2CF1CF0E9CF19F0EACF1AF0DC
:100028003C0E0101656F010E666F6BEC08F018C09D
:1000380000F017C001F016C002F015C003F019C097
:10004800E9FF1AC0EAFF1BC0E1FF1CC0E2FF110074
:0E005800ACB202D00000FCD764C1ADFF1200B4
:1000660064C1C9FFC7B002D00000FCD7C9CF00F0F9
:02007600120076
:0A007800000E9EBA010E006E120089
:10008200AECF01F0ABA202D0AB98AB8801C000F0BA
:0200920012005A
:0A009400000EACB2010E006E120067
:10009E00A6A202D00000FCD7A69C62C1AAFF61C135
:1000AE00A9FF63C1A8FFA69EA684F2CF00F0F29E20
:1000BE00550EA76EAA0EA76EA68200BE02D0F29EA5
:0800CE0001D0F28EA69412008D
:0800D6000AAE029E000E1200AA
:1000DE00A69C62C1AAFF61C1A9FFA69EA680A8CF59
:0400EE0000F012000C
:1000F200F250026EF29E0500FF6A0150FE6E005041
:08010200FD6E02BEF28E120038
:10010A000B840BAE90EF00F0010E036E026A016AD7
:0A011A00006A0A360232FF0E1200DE
:0E012400026A016A006A086A036A000E12008D
:0A013200030E0D6E0D2EFED7120015
:10013C00FF0E01015A155E6F000E5A15056EFF0E6B
:10014C005B15066E5CC107F05DC108F0000E07166A
:10015C00081606C000F007C001F008C002F0036AE0
:10016C0000C05FF1000E5A15056E000E5B15066E91
:10017C00FF0E5C15076E000E5D15086E07C000F0D3
:10018C0008C001F0026A036A00C060F1000E5A1543
:10019C00056E000E5B15066E000E5C15076EFF0EED
:1001AC005D15086E08C000F0016A026A036A58C146
:1001BC0061F159C162F100C063F16BDF0101584B71
:1001CC00592B58C161F159C162F160C163F161DF12
:1001DC000101584B592B58C161F159C162F15FC1F2
:1001EC0063F157DF0101584B592B58C161F159C1CB
:0A01FC0062F15EC163F14DDF1200F5
:100206000C6A0E6A0250D8A41CEF01F001C002F07D
:1002160000C001F0006A0E860250D8A41CEF01F05F
:1002260001C002F0016A0E960E880250D8B42EEF75
:1002360001F00E50035ED8A4D8A033EF01F0D89099
:1002460002BE38EF01F0003601360236032E23EFE8
:1002560001F033EF01F0010E0C6E61DF3BEF01F0B0
:10026600020E0C6E4FDF3BEF01F0040E0C6E30DF1A
:02027600120074
:100278000B6A0A6A096A00500402F4CF09F0F3CF46
:1002880008F001500502F4CF0BF0F3CF0AF000504C
:100298000502F3500926F4500A22E86A0B2201509D
:1002A8000402F3500926F4500A22E86A0B2208C017
:1002B80000F009C001F00AC002F00BC003F0120000
:1002C80057C05EF1495204E0010E571801015E6FF4
:1002D800010180845A055D6F4CC0E1FF4DC0E2FF0B
:1002E800960EE66E4AC000F04BC001F0FEDE01013A
:1002F8005E51960A04E05E51A90A01E002D05E71DF
:100308005A8D4CC0E1FF4DC0E2FF5EC1E6FF4AC016
:1003180000F04BC001F0E9DE01015B6B5B515D5DF4
:1003280032E35B515825E96E000E5921EA6EEECF93
:1003380001F001C05FF10150960A04E05F51A90A7B
:1003480001E01FD05B515825016E000E5921026E45
:1003580001C0E9FF02C0EAFF010EEE18006E01C0FD
:10036800E1FF02C0E2FF00C0E6FF5BC101F0040E3E
:10037800006E015004E000360090FF0FFBD70050DC
:100388005A135B2BCBD74CC0E1FF4DC0E2FF5AC1DB
:10039800E6FF4AC000F04BC001F0A7DE01015E5144
:1003A8005A195C6F5B6B5B515D5D1EE35B515825B1
:1003B800006E000E5921016E00C0D9FF01C0DAFF9E
:1003C800DE505C1B4CC0E1FF4DC0E2FF00C0E9FFFE
:1003D80001C0EAFFEECFE6FF4AC000F04BC001F0D3
:1003E80084DE01015B2BDFD75C1D016E01C05CF16F
:1003F8000150960A04E05C51A90A01E001D05C2B87
:100408004CC0E1FF4DC0E2FF5CC1E6FF4AC000F00E
:100418004BC001F06ADE4CC0E1FF4DC0E2FFA90EFF
:10042800E66E4AC000F04BC001F05FDE45C000F048
:1004380046C001F05ADE0050000A01E1F7D7809467
:020448001200A0
:10044A0058C164F059C165F05AC166F0676A686AB2
:06045A00696A6A6A1200E3
:1004600001015A6B5B6B5C6B5D6B58C161F159C1EB
:1004700062F135DE00C005F0000E066E076E086EF4
:1004800005C003F0006A016A026A00505A27015051
:100490005B2302505C2303505D23584B592B58C1FA
:1004A00061F159C162F11BDE00C005F0000E066E5D
:1004B000076E086E06C003F005C002F0006A016A0C
:1004C00000505A2701505B2302505C2303505D23E8
:1004D000584B592B58C161F159C162F100DE00C07F
:1004E00005F0000E066E076E086E07C003F006C02A
:1004F00002F005C001F0006A00505A2701505B234A
:1005000002505C2303505D23584B592B58C161F1B5
:1005100059C162F1E4DD000E016E026E036E5A51A4
:1005200000265B5101225C5102225D51032200C072
:100530005AF101C05BF102C05CF103C05DF1120031
:1005400003500718D8A4B4EF02F002500618D8A43C
:10055000B4EF02F001500518D8A4B4EF02F0005037
:0E0560000418D8B4D8841200D89412001200E7
:10056E000050086E0150006E016A026A036A0B6A3F
:10057E000C6A960E036E0A6A00C001F008C000F005
:08058E00086A026A39DE12005E
:10059600FF0E2B140101586F000E2B14016EFF0E77
:1005A6002C14026E2DC003F02EC004F0000E0316AC
:1005B600041602C00DF003C00EF004C00FF0106A5E
:1005C600000E2B14016E000E2C14026EFF0E2D145D
:1005D600036E000E2E14046E03C009F004C00AF068
:1005E6000B6A0C6A000E2B14056E000E2C14066E98
:1005F600000E2D14076EFF0E2E14086E08C000F0B4
:10060600016A026A036A00C04FF1FF0E2714506F99
:10061600000E2714056EFF0E2814066E29C007F07B
:100626002AC008F0000E0716081606C000F007C01C
:1006360001F008C002F0036A00C051F1000E271451
:10064600056E000E2814066EFF0E2914076E000EA6
:100656002A14086E07C000F008C001F0026A036A97
:1006660000C052F1000E2714056E000E2814066E07
:10067600000E2914076EFF0E2A14086E08C000F03B
:10068600016A026A036A00C053F1FF0E3714546F01
:10069600000E3714056EFF0E3814066E39C007F0CB
:1006A6003AC008F0000E0716081606C000F007C08C
:1006B60001F008C002F0036A00C055F1000E3714BD
:1006C600056E000E3814066EFF0E3914076E000E06
:1006D6003A14086E07C000F008C001F0026A036A07
:1006E60000C056F1000E3714056E000E3814066E63
:1006F600000E3914076EFF0E3A14086E08C000F09B
:10070600016A026A036A00C057F10DC059F109C0B7
:100716005AF198DE640E586F000E596F030E5A6F29
:10072600D0DD020E0B6E040E0C6EBA0E0D6E0D2E83
:10073600FED70C2EFCD70B2EFAD700004FC158F16E
:1007460050C159F151C15AF17DDE640E0101586F55
:10075600000E596F030E5A6FB4DD020E0B6E040EB7
:100766000C6EBA0E0D6E0D2EFED70C2EFCD70B2E70
:10077600FAD7000052C158F153C159F154C15AF188
:1007860061DE640E0101586F000E596F030E5A6F39
:1007960098DD020E0B6E040E0C6EBA0E0D6E0D2E4B
:1007A600FED70C2EFCD70B2EFAD7000055C158F1F8
:1007B60056C159F157C15AF145DE640E0101586F11
:1007C600000E596F030E5A6F7CDD020E0B6E040E7F
:1007D6000C6EBA0E0D6E0D2EFED70C2EFCD70B2E00
:0607E600FAD7000012002A
:1007EC00500E0101586F000E596F34DE00C02BF013
:1007FC0001C02CF002C02DF003C02EF0540E586F27
:10080C00000E596F27DE00C027F001C028F002C08F
:10081C0029F003C02AF0580E586F000E596F1ADEDB
:10082C0000C037F001C038F002C039F003C03AF014
:10083C00020E0B6E040E0C6EBA0E0D6E0D2EFED744
:0C084C000C2EFCD70B2EFAD70000120077
:10085800016A800E01BE7F0E006E800E005C03E10F
:1008680001013551015C0DE26D0EE16E000EE26E84
:100878000150E126000E01BEFF0EE222E66A012ABF
:10088800E8D70101356BFF0E3D6EFF0E3B6EFF0E84
:080898003C6EFF0E316E1200F0
:1008A00083948480829A809A1A0E0B6E5E0E0C6E70
:1008B0006E0E0D6E0D2EFED70C2EFCD70B2EFAD71A
:1008C00000008490828A809A1A0E0B6E5E0E0C6E67
:1008D0006E0E0D6E0D2EFED70C2EFCD70B2EFAD7FA
:1008E00000008490829A808A1A0E0B6E5E0E0C6E47
:1008F0006E0E0D6E0D2EFED70C2EFCD70B2EFAD7DA
:0A09000000008480828A808A1200C1
:0E090A0092929292928080828092808012005F
:10091800016A800E01BE7F0E006E800E005C02E14F
:100928006350015C0DE2D10EE16E000EE26E0150E3
:10093800E126000E01BEFF0EE222E66A012AE9D78F
:10094800636AFF0E216EFF0E1F6EFF0E1D6EFF0EF7
:040958001E6E1200FD
:0A095C009494CA840C0EBD12120020
:10096600808299EC00F00B0E006E0DD0A90E026E7F
:10097600022EFED7000001014F334F9F4F8FD8A0A4
:1009860002D0808202D08092000000060052EEE182
:0209960012004D
:10099800500E0101586F000E596F2BC05AF12CC030
:1009A8005BF12DC05CF12EC05DF19EEC00F0540EA1
:1009B8000101586F000E596F27C05AF128C05BF12A
:1009C80029C05CF12AC05DF19EEC00F0580E0101CF
:1009D800586F000E596F37C05AF138C05BF139C0F3
:1009E8005CF13AC05DF19EEC00F05C0E0101586FBD
:1009F800000E596F2B0E5A6F020E5B6F000E5C6F64
:100A08005D6F9EEC00F0020E0B6E040E0C6EBA0EBB
:100A18000D6E0D2EFED70C2EFCD70B2EFAD700002C
:020A28001200BA
:080A2A00BE6ABD98BD9A1200DE
:100A3200CB50010F006E016A000E01224FC104F07B
:100A4200000E056E18DC060E026E00C004F001C036
:100A520005F0025005E005320432059EFF0FFAD779
:100A6200040E016E04C000F0015004E00036009054
:100A7200FF0FFBD7300E0014036E04C000F005C058
:100A820001F001320032019E01320032019E00C0AB
:0C0A9200BEFF0F0EBD160350BD12120077
:100A9E000101466B476B336A32903F6A5E6A5F6A4A
:100AAE00606A616A010E586E626A5A6A5B6A5C6AB3
:100ABE005D6A010E596E020E4A6F020E4B6F020EE8
:100ACE00356E020E366E020E346E640E356F640E87
:100ADE00636E3E6A3292306AFF0E3D6EFF0E3B6EC3
:100AEE00FF0E3C6EFF0E316EFF0E216EFF0E1F6E5F
:100AFE00FF0E1D6EFF0E1E6E580E206E580E226ECD
:060B0E00580E2F6E1200CC
:100B140001014A51000AD8B45ED24B51000AD8B43C
:100B24005AD23550000AD8B456D23650000AD8B436
:100B340052D23450000AD8B44ED232A003D0336A11
:100B44008394329032A247D283AA0ED13E50000839
:100B5400D8B00AD10D0E4F6F04DF0A0E01014F6F9A
:100B640000DF2D0E01014F6FFCDE470E01014F6FB8
:100B7400F8DE520E01014F6FF4DE410E01014F6F9A
:100B8400F0DE2D0E01014F6FECDE0D0E01014F6FF3
:100B9400E8DE0A0E01014F6FE4DE3D50FF0A29E052
:100BA4003B50FF0A26E03C50FF0A23E03150FF0A85
:100BB40020E0800E3C18006E800E3D18005C0DE2B3
:100BC400800E3118006E800E3B18005C03E2450E67
:100BD400206E02D0510E206E0CD0800E3118006EA3
:100BE400800E3B18005C03E2500E206E02D0530EC0
:100BF400206E2150FF0A29E01F50FF0A26E01D50F5
:100C0400FF0A23E01E50FF0A20E0800E1D18006E2C
:100C1400800E2118005C0DE2800E1E18006E800EFE
:100C24001F18005C03E2450E226E02D0510E226EA4
:100C34000CD0800E1E18006E800E1F18005C03E29C
:100C4400500E226E02D0530E226E2050580A1DE020
:100C54002250580A1AE02250530A08E02050530A3E
:100C640004E12250500A01E101D002D0530E2F6E4C
:100C74002250450A08E02050450A04E12250510A56
:100C840001E101D002D0450E2F6E3050010A06E179
:100C94002F50450A02E1580E2F6E35D030500B0A02
:100CA40006E12F50530A02E1580E2F6E2CD030501B
:100CB4006F0A0CE12F50450A03E1530E2F6E05D045
:100CC4002F50530A02E1450E2F6E1DD030506E0A8C
:100CD4000CE12F50450A03E1530E2F6E05D02F501F
:100CE400530A02E1580E2F6E0ED03050640A0BE105
:100CF4002F50450A03E1580E2F6E05D02F50530A8A
:100D040002E1450E2F6E2F50450A15E1010E2B26E8
:100D1400000E2C222D222E2227502B24236E285005
:100D24002C20246E29502D20256E2A502E20266E2C
:100D3400580E2F6E2FDE2F50530A15E1010E272671
:100D4400000E282229222A2227502B24236E2850E1
:100D54002C20246E29502D20256E2A502E20266EFC
:100D6400580E2F6E17DE10D183BA0ED1020E3E5CE0
:100D7400D8A00AD10D0E01014F6FF3DD0A0E010157
:100D84004F6FEFDD2D0E01014F6FEBDD500E0101B2
:100D94004F6FE7DD4C0E01014F6FE3DD410E0101A2
:100DA4004F6FDFDD2D0E01014F6FDBDD0D0E0101F5
:100DB4004F6FD7DD0A0E01014F6FD3DD3D50FF0A9F
:100DC40029E03B50FF0A26E03C50FF0A23E0315063
:100DD400FF0A20E0800E3C18006E800E3D18005C77
:100DE4000DE2800E3118006E800E3B18005C03E2A9
:100DF400450E206E02D0510E206E0CD0800E31189C
:100E0400006E800E3B18005C03E2500E206E02D090
:100E1400530E206E2150FF0A29E01F50FF0A26E0DE
:100E24001D50FF0A23E01E50FF0A20E0800E1D180B
:100E3400006E800E2118005C0DE2800E1E18006EFC
:100E4400800E1F18005C03E2450E226E02D0510E84
:100E5400226E0CD0800E1E18006E800E1F18005CCF
:100E640003E2500E226E02D0530E226E2050580A16
:100E74001DE02250580A1AE02250530A08E020507C
:100E8400530A04E12250500A01E101D002D0530E6A
:100E94002F6E2250450A08E02050450A04E12250F2
:100EA400510A01E101D002D0450E2F6E3050010AE3
:100EB40006E12F50450A02E1580E2F6E35D030500E
:100EC4000B0A06E12F50530A02E1580E2F6E2CD064
:100ED40030506F0A0CE12F50450A03E1530E2F6E78
:100EE40005D02F50530A02E1450E2F6E1DD030500D
:100EF4006E0A0CE12F50450A03E1530E2F6E05D004
:100F04002F50530A02E1580E2F6E0ED03050640A4F
:100F14000BE12F50450A03E1580E2F6E05D02F50D8
:100F2400530A02E1450E2F6E2F50450A15E1010EBA
:100F34002B26000E2C222D222E2227502B24236E0A
:100F440028502C20246E29502D20256E2A502E2026
:100F5400266E580E2F6E1EDD2F50530A15E1010E1A
:100F64002726000E282229222A2227502B24236EEA
:100F740028502C20246E29502D20256E2A502E20F6
:100F8400266E580E2F6E06DD3E6AFF0E216EFF0E92
:100F94001F6EFF0E1D6EFF0E1E6EFF0E3D6EFF0ECA
:100FA4003B6EFF0E3C6EFF0E316E3F6A5E6A5F6AF7
:100FB400606A616A626A5A6A5B6A5C6A5D6A020EA6
:100FC40001014A6F020E4B6F020E356E020E366E31
:100FD400020E346E32924A51000A0DE04B51000A5F
:100FE4000AE03550000A07E03650000A04E03450A5
:100FF400000A01E00BD032B207D03282580E206EC4
:0E100400580E226E580E2F6E32A0328012004F
:101012000900F5CFE6FF0006FBE10106F9E1120047
:10102200236A246A256A266A5C0E0101586F000E43
:10103200596F30EC02F0000E046E031808E1045000
:10104200021805E1020E011802E100502B0A03E129
:10105200F6EC03F00DD0276A286A296A2A6A2B6AFD
:101062002C6A2D6A2E6A376A386A396A3A6A93DCC0
:101072000F0EC16E070EB46E806A816A826A836A3D
:10108200846ADB0E926EF90E936EDB0E946EFB0E8B
:10109200956E060E966E03DC01DD2CEC04F03BDC53
:1010A200CA80CA92450ECB6EBFDC190E01014F6F8A
:1010B200BFDC53DC29DC060E0B6E130E0C6EAD0E7C
:1010C2000D6E0D2EFED70C2EFCD70B2EFAD700007C
:0410D2000000120008
:1010D6004EC000F04FC001F079EC00F0005201E183
:1010E60020D141C000F042C001F079EC00F000C010
:1010F60053F0FCD05350960A03E1020E406E526A3A
:1011060010D15350571804E05350320A01E005D06D
:10111600030E406E5350521A02D0010E406E01D19A
:10112600495209E0400E5314016E0150000A03E1D2
:10113600010E406EF6D053AE13D0040E406E53C06F
:1011460055F05350521A030E5314016E01C056F057
:101156000150000A02E1050E406E010E546E0BD0DE
:10116600050E01016525E16E000E6621E26EFF0E99
:10117600E66E010E406ED5D05350A90A0CE101016E
:10118600050E6525E16E000E6621E26EFF0EE66E27
:10119600010E406EC6D05450565C006E016A000EB9
:1011A600015A0050011012E001015404006E016A58
:1011B600000E015A00506525E16E01506621E26E6F
:1011C60053C0E6FF5350521A542A12D00101540458
:1011D600006E016A000E015A00506525E16E01504D
:1011E6006621E26E53C0E6FF050E406E5350521A5A
:1011F60098D0521C016E01C052F00150960A04E0CC
:101206005250A90A01E001D0522A5250531803E164
:10121600060E406E0BD00101050E6525E16E000E2F
:101226006621E26EFF0EE66E010E406E7AD05350D6
:10123600A90A41E10101010E406E040E6525E16E29
:10124600000E6621E26EFF0EE66E030E6525E16E68
:10125600000E6621E26E56C0E6FF010E546E545033
:10126600565C28E354C001F0020E006E015004E003
:1012760000360090FF0FFBD75550001619E001010C
:101286005404006E016A000E015A00506525026E74
:1012960001506621036E02C0E9FF03C0EAFF010E9A
:1012A600EE18006E02C0E1FF03C0E2FF00C0E6FFD9
:1012B600542AD5D70BD00101050E6525E16E000E27
:1012C6006621E26EFF0EE66E010E406E2AD0010127
:1012D600050E6525E16E000E6621E26EFF0EE66ED6
:1012E600010E406E1ED0010E406E1BD04050010A0A
:1012F600D8B400D74050020AD8B403D74050030AE6
:10130600D8B40ED74050040AD8B436D74050050A90
:10131600D8B46FD74050060A8AE04050070AD7E093
:04132600E2D71200F8
:10132A000101464B472B6D0E475D02E1600E465D9B
:10133A0039E3466B476B4B514A25006E016A000E32
:10134A00012235500026000E012236500026000EDA
:10135A00012234500024026E000E0120036E800E1A
:10136A00006E800E0318005C02E1025006081AE3C0
:10137A0032A018D0420E4F6FB3EC04F00D0E0101EB
:10138A004F6FB3EC04F00A0E01014F6FB3EC04F097
:10139A00332A3350050A06E1010E3726000E382299
:1013AA0039223A22000E0101471902E1000E4619BC
:1013BA0017E046C100F047C101F0B7EC02F0000E99
:1013CA00046EC00E056E5A0E066E8C0E076EA0ECE9
:1013DA0002F0010ED8A4000E006E005201E104D002
:1013EA00030E335CD8B0838446C100F047C101F0D4
:1013FA00B7EC02F0000E046EC00E056E140E066EF7
:10140A008B0E076EA0EC02F0010ED8A4000E006E3F
:10141A00005217E146C100F047C101F0B7EC02F0F3
:10142A00000E046E900E056E120E066E8D0E076E7D
:10143A00A0EC02F0010ED8A4000E006E005201E1E9
:0C144A0004D0030E335CD8B08394120071
:04145600817212008D
:10145A00580E4A6E000E4B6E640E4C6E010E4D6EA7
:10146A00820E416E000E426E000E436E000E446EF6
:10147A00780E4E6E000E4F6E000E506E000E516EBC
:10148A00940E456E000E466E000E476E000E486EB4
:10149A00AC8A900EAB6E948E949C9EAA03D0AECF6B
:0614AA0000F0FBD7120068
:1014B00001014C6B4D6B4E6B83AE00D084B400D0F9
:1014C00081AC14D03450000810E23150FF0A03E11F
:1014D0003FC031F03F2A346A410E4F6FB3EC04F045
:1014E000590E01014F6FB3EC04F037D03450000AAD
:1014F00034E15EC03CF0010E5E26000E5F226022E9
:101500006122FF0E615C08E1FF0E605C05E1FE0EEA
:101510005F5C02E1D80E5E5C14E3800E3D18006E45
:10152000800E3C18005C04E2010E3C6E3D6A03D064
:101530003C6A010E3D6E020E5E6E000E5F6E606EC6
:10154000616E010E346E410E01014F6FB3EC04F079
:10155000580E01014F6FB3EC04F081AE15D0365038
:10156000000811E23B50FF0A03E13FC03BF03F2A75
:10157000366A410E01014F6FB3EC04F04E0E0101CB
:101580004F6FB3EC04F039D03650000A36E15E50AC
:101590005802F3CF3DF0010E5E26000E5F2260225E
:1015A0006122FF0E615C08E1FF0E605C05E1FE0E4A
:1015B0005F5C02E1D80E5E5C14E3800E3D18006EA5
:1015C000800E3C18005C04E2010E3C6E3D6A03D0C4
:1015D0003C6A010E3D6E020E5E6E000E5F6E606E26
:1015E000616E010E366E410E01014F6FB3EC04F0D7
:1015F0004D0E01014F6FB3EC04F084A215D03550AD
:10160000000811E21E50FF0A03E162C01EF0622AC8
:10161000356A420E01014F6FB3EC04F0590E01011F
:101620004F6FB3EC04F037D03550000A34E15AC0A4
:101630001DF0010E5A26000E5B225C225D225D50D9
:10164000FF0808E15C50FF0805E15B50FE0802E17D
:101650005A50D80814E2800E2118006E800E1D1812
:10166000005C04E2010E1D6E216A03D01D6A010EAA
:10167000216E020E5A6E000E5B6E5C6E5D6E010E88
:10168000356E420E01014F6FB3EC04F0580E0101AC
:101690004F6FB3EC04F080A615D001014B51000848
:1016A00010E21F50FF0A03E162C01FF0622A4B6B79
:1016B000420E4F6FB3EC04F04E0E01014F6FB3ECCE
:1016C00004F03AD001014B51000A36E15A50590258
:1016D000F3CF21F0010E5A26000E5B225C225D2220
:1016E0005D50FF0808E15C50FF0805E15B50FE0813
:1016F00002E15A50D80814E2800E2118006E800EC4
:101700001D18005C04E2010E1D6E216A03D01D6AE3
:10171000010E216E020E5A6E000E5B6E5C6E5D6EE7
:101720000101010E4B6F420E4F6FB3EC04F04D0EF2
:1017300001014F6FB3EC04F080A80BD001014A51B6
:10174000000806E23E2A4A6B430E4F6FB3EC04F0EA
:1017500030D001014A51000A2CE13E2A010E4A6FA5
:10176000430E4F6FB3EC04F0450E01014F6FB3EC25
:1017700004F02BC04FF1B3EC04F0530E01014F6F96
:10178000B3EC04F027C04FF1B3EC04F0420E0101BA
:101790004F6FB3EC04F037C04FF1B3EC04F00D0E13
:1017A00001014F6FB3EC04F00A0E01014F6FB3EC6F
:1017B00004F001014A51000A0DE04B51000A0AE011
:1017C0003550000A07E03650000A04E03450000AA1
:1017D00001E004D08490829A808A03D08480828A37
:1017E000809A83A604D00101640E4C6F02D00101DF
:1017F0004C6B82A803D00A0E4D6F01D04D6B83A8AD
:1018000003D0010E4E6F01D04E6B4D514C25306E02
:061810004E5130261200CB
:1018160082B205D082B003D00A0E6B6E14D082B2AB
:1018260005D082A003D0140E6B6E0DD082A205D017
:1018360082B003D01E0E6B6E06D082A204D082A0A8
:0C18460002D01E0E6B6E6BC000F0120092
:1018520001014153D8A4416B40530BE08182818442
:10186200406B3CC145F1FF0E456FCBEC02F081921B
:04187200819412004B
:10187600086A080E0C6E003408360450085ED8B0AC
:0E18860002D00826D89000360C2EF5D712009E
:1018940092948094010E406E496A4CC157F0010144
:1018A4004C51960A04E04C51A90A01E005D0010EFE
:0A18B4004C19576EFF0E496E12002A
:1018BE0011EC08F0B886040EB06E110EAF6EAC844B
:1018CE00C5DD060E0B6E130E0C6EAD0E0D6E0D2ECF
:1018DE00FED70C2EFCD70B2EFAD70000000094DF9B
:1018EE0000C04CF1D0DF3A6B3B6B3C6B9D8A9D98F0
:1018FE00F28CF28E450E4F6FB3EC04F0530E0101D5
:10190E004F6FB3EC04F080DF0A0E046EADDF300EC5
:10191E00002401014F6FB3EC04F00D0E01014F6F67
:10192E00B3EC04F00A0E01014F6FB3EC04F0B9DD15
:10193E0083AC03D0F3DC8AEC05F080B80FD080B610
:10194E000DD084B20BD081BE09D081BC07D03C0E25
:10195E0001014C6F010E4D6F75DF01D075DDE7D7BC
:02196E00FFD7A1
:020000040030CA
:0D000100061F1EFF8181FF0FC00FE00F40A2
:00000001FF
