:04000000E4EF04F035
:1000080000C018F001C017F002C016F003C015F0C8
:10001800E1CF1BF0E2CF1CF0E9CF19F0EACF1AF0DC
:100028003C0E0001FB6F000EFC6F94DA18C000F064
:1000380017C001F016C002F015C003F019C0E9FF9F
:0E0048001AC0EAFF1BC0E1FF1CC0E2FF11005E
:0A005600000EACB2010E006E1200A5
:0E006000ACB202D00000FCD7FAC0ADFF120017
:10006E00FAC0C9FFC7B002D00000FCD7C9CF00F05C
:02007E0012006E
:0A008000000E9EBA010E006E120081
:10008A00AECF01F0ABA202D0AB98AB8801C000F0B2
:02009A00120052
:0C009C0000000000000000000000120046
:1000A800F250026EF29E0500FF6A0150FE6E00508B
:0800B800FD6E02BEF28E120083
:1000C0000B6A0A6A096A086A0E6A03340836045021
:1000D000085E0550D8A0053C095E0650D8A0063C35
:1000E0000A5E0750D8A0073C0B5EE86AD8A0010E54
:1000F0000E5E0336070E0C6E0334083609360A36D8
:100100000B360E36045003A012D0085E0550D8A05E
:10011000053C095E0650D8A0063C0A5E0750D8A0F0
:10012000073C0B5EE86AD8A0010E0E5E11D00826CF
:100130000550D8B0053C09260650D8B0063C0A2622
:100140000750D8B0073C0B26E86AD8B0010E0E263F
:1001500003360C2ED1D70234083609360A360B3650
:100160000E36045003A012D0085E0550D8A0053CFE
:10017000095E0650D8A0063C0A5E0750D8A0073C8E
:100180000B5EE86AD8A0010E0E5E11D0082605505D
:10019000D8B0053C09260650D8B0063C0A260750C0
:1001A000D8B0073C0B26E86AD8B0010E0E260236FE
:1001B000070E0C6E0234083609360A360B360E3638
:1001C000045002A012D0085E0550D8A0053C095E7C
:1001D0000650D8A0063C0A5E0750D8A0073C0B5E2C
:1001E000E86AD8A0010E0E5E11D008260550D8B0DE
:1001F000053C09260650D8B0063C0A260750D8B060
:10020000073C0B26E86AD8B0010E0E2602360C2EEB
:10021000D1D70134083609360A360B360E3604506B
:1002200002A012D0085E0550D8A0053C095E065019
:10023000D8A0063C0A5E0750D8A0073C0B5EE86ACF
:10024000D8A0010E0E5E11D008260550D8B0053C8E
:1002500009260650D8B0063C0A260750D8B0073CFD
:100260000B26E86AD8B0010E0E260136070E0C6E7A
:100270000134083609360A360B360E36045001A012
:1002800012D0085E0550D8A0053C095E0650D8A0E3
:10029000063C0A5E0750D8A0073C0B5EE86AD8A06F
:1002A000010E0E5E11D008260550D8B0053C092677
:1002B0000650D8B0063C0A260750D8B0073C0B269B
:1002C000E86AD8B0010E0E2601360C2ED1D70034C4
:1002D000083609360A360B360E36045001A012D005
:1002E000085E0550D8A0053C095E0650D8A0063C23
:1002F0000A5E0750D8A0073C0B5EE86AD8A0010E42
:100300000E5E11D008260550D8B0053C09260650CF
:10031000D8B0063C0A260750D8B0073C0B26E86A3E
:10032000D8B0010E0E260036070E0C6E00340836CB
:1003300009360A360B360E36045000A012D0085E7D
:100340000550D8A0053C095E0650D8A0063C0A5EC0
:100350000750D8A0073C0B5EE86AD8A0010E0E5EDD
:1003600011D008260550D8B0053C09260650D8B053
:10037000063C0A260750D8B0073C0B26E86AD8B0DE
:10038000010E0E2600360C2ED1D700B00ED0045030
:1003900008260550D8B0053C09260650D8B0063CC2
:0C03A0000A260750D8B0073C0B261200BC
:1003AC008084F5C0F9F0DDC0E1FFDEC0E2FF960EFF
:1003BC00E66EDBC000F0DCC001F070DE0001F6512F
:1003CC00960A04E0F651A90A01E002D0F671F58D07
:1003DC00DDC0E1FFDEC0E2FFF6C0E6FFDBC000F0EF
:1003EC00DCC001F05BDE0001F907F76BF751F95D3A
:1003FC0034E3F751F325E96E000EF421EA6EEE506A
:10040C00960A0AE0F751F325E96E000EF421EA6E24
:10041C00EE50A90A01E01FD0F751F325016E000E32
:10042C00F421026E01C0E9FF02C0EAFF010EEE18D2
:10043C00006E01C0E1FF02C0E2FF00C0E6FFF7C0A2
:10044C0001F0040E006E015004E000360090FF0F26
:10045C00FBD70050F513F72BC9D7800EF511006EA2
:10046C0000C0F5F0DDC0E1FFDEC0E2FF00C0E6FF3A
:10047C00DBC000F0DCC001F011DE0001F651F51913
:10048C00F86FF76BF751F95D1EE3F751F325006E2A
:10049C00000EF421016E00C0D9FF01C0DAFFDE505E
:1004AC00F81BDDC0E1FFDEC0E2FF00C0E9FF01C0C8
:1004BC00EAFFEECFE6FFDBC000F0DCC001F0EEDDC2
:1004CC000001F72BDFD7F81D016E01C0F8F00150C9
:1004DC00960A04E0F851A90A01E001D0F82BDDC01E
:1004EC00E1FFDEC0E2FFF8C0E6FFDBC000F0DCC0DD
:1004FC0001F0D4DDDDC0E1FFDEC0E2FFA90EE66E47
:10050C00DBC000F0DCC001F0C9DDD7C000F0D8C002
:10051C0001F0C4DD0050000A01E1F7D7809412000D
:10052C008182B6DD0B0E006E0DD0A90E026E022E6E
:10053C00FED700000001F333F39FF38FD8A002D055
:10054C00818202D08192000000060052EEE112007E
:10055C00CBC000F0CCC001F0A1DD005201E11FD1F5
:10056C00D3C000F0D4C001F099DD00C0D1F0FBD0B5
:10057C000001D151960A03E1020EDF6FD26B0FD14D
:10058C00D1C0D0F0030EDF6F060EFB25E16E000E1E
:10059C00FC21E26ED1C0E6FFD151D21B00D1800EFE
:1005AC00D115016E0150000A21E1D1AD0BD0060E20
:1005BC00FB25E16E000EFC21E26E010ED019006EDF
:1005CC0000C0E6FFD1C0CFF0D151D21B030ED11524
:1005DC00016E01C0C9F00150000A03E1050EDF6F86
:1005EC0004D0010ECA6F040EDF6F0AD0050EFB2576
:1005FC00E16E000EFC21E26EFF0EE66E010EDF6F67
:10060C00CED0D151A90A0BE1050EFB25E16E000EEF
:10061C00FC21E26EFF0EE66E010EDF6FC0D0CA51F8
:10062C00C95D006E016A000E015A0050011011E004
:10063C00CA05006E016A000E015A0050FB25E16EDE
:10064C000150FC21E26ED1C0E6FFD151D21BCA2B66
:10065C0011D0CA05006E016A000E015A0050FB252C
:10066C00E16E0150FC21E26ED1C0E6FF050EDF6F9A
:10067C00D151D21B94D0D21D016E01C0D2F00150C9
:10068C00960A04E0D251A90A01E001D0D22BD25132
:10069C00D11903E1060EDF6F0AD0050EFB25E16EC2
:1006AC00000EFC21E26EFF0EE66E010EDF6F77D0BE
:1006BC00D151A90A3FE1010EDF6F040EFB25E16E5B
:1006CC00000EFC21E26EFF0EE66E030EFB25E16EC2
:1006DC00000EFC21E26EC9C0E6FF010ECA6FCA51C2
:1006EC00C95D27E3CAC001F0020E006E015004E0A0
:1006FC0000360090FF0FFBD7CF51001618E0CA054B
:10070C00006E016A000E015A0050FB25026E01506A
:10071C00FC21036E02C0E9FF03C0EAFF010EEE18D4
:10072C00006E02C0E1FF03C0E2FF00C0E6FFCA2B6F
:10073C00D6D70AD0050EFB25E16E000EFC21E26E29
:10074C00FF0EE66E010EDF6F2AD0050EFB25E16E63
:10075C00000EFC21E26EFF0EE66E010EDF6F1FD065
:10076C00010EDF6F1CD00001DF51010AD8B400D795
:10077C00DF51020AD8B404D7DF51030AD8B40FD71B
:10078C00DF51040AD8B43DD7DF51050AD8B473D76A
:10079C00DF51060A8DE0DF51070AD7E0E1D71200DE
:1007AC000001F06B0A0EF05D0AE2F051EE25E16EED
:1007BC00000EEF21E26E300EE66EF02BF3D7F05107
:1007CC00EE25E16E000EEF21E26EE66AF007000EF8
:1007DC00006EED1908E10050EC1905E10050EB1921
:1007EC0002E1EA51000A3EE0F051EE25F16F000EF5
:1007FC00EF21F26F0A0E046E000E056E066E076E88
:10080C00EAC000F0EBC001F0ECC002F0EDC003F068
:10081C0051DC08C000F009C001F00AC002F00BC0A6
:10082C0003F0300E0026F1C0E1FFF2C0E2FF00C081
:10083C00E6FFF0070A0E046E000E056E066E076EDC
:10084C00EAC000F0EBC001F0ECC002F0EDC003F028
:10085C0031DC00C0EAF001C0EBF002C0ECF003C0E8
:06086C00EDF0B5D712000B
:10087200600E0001DB6F000EDC6FFA0EDD6F000E02
:10088200DE6F8A0ED36F000ED46F000ED56F000E8E
:10089200D66F800ECB6F000ECC6F000ECD6F000EA8
:1008A200CE6F560ED76F000ED86F000ED96F000EA6
:1008B200DA6FAC8A900EAB6E948E949C9EAA03D093
:0808C200AECF00F0FBD71200DD
:0C08CA0092948094010E0001DF6F120078
:1008D6000900F5CFE6FF0006FBE10106F9E112008B
:0E08E600939293929384818281928184120076
:0E08F400939C939C938E818C819C818E12002C
:100902000001EC2BEAC0E9FFEBC0EAFF0001EC07B3
:10091200D8B41200EE50D8B41200006E00C0F3F04A
:0609220004DEF4D7120010
:10092800EAC0F3F0FFDD0D0E0001F36FFBDD0A0EE8
:080938000001F36FF7DD12006E
:10094000086A080E0C6E003408360450085ED8B0F1
:0E09500002D00826D89000360C2EF5D71200E3
:10095E00FF0E0001E06FFF0EE16FFF0EE26FE46B22
:10096E00E56BE66BE00EF36F000EF46F010EF56FA4
:10097E00EAC0F6F014DD070E0C6E7D0E0D6E0D2E18
:08098E00FED70C2EFCD712006D
:10099600818C4EEC00F00B0E006E0DD0A90E026E8F
:1009A600022EFED700000001EA33EA9FEA8FD8A0A4
:1009B60002D0818C02D0819C000000060052EEE13C
:0209C60012001D
:1009C80075EC08F00F0EC16E070EB46E92969298F1
:1009D8008096809884DF8ADF94808290939A819AA7
:1009E800B886020EB06E080EAF6EAC843EDF030E02
:1009F8000B6E8A0E0C6E550E0D6E0D2EFED70C2E3C
:100A0800FCD70B2EFAD7000000005BDF030E0B6E3D
:100A18008A0E0C6E550E0D6E0D2EFED70C2EFCD7C1
:100A28000B2EFAD7000000009D8A9D98F28CF28E5A
:100A380043C0EAF090DF41520DE08088410E0C6E11
:100A4800EE0E0D6E0D2EFED70C2EFCD700008098F2
:100A5800416A406A3B50000806E2010E4426000E37
:100A68004522462247224750000808E14650000820
:100A780005E14550360802E14450B00817E2446ADF
:100A8800456A466A476A3B6A8096506A4C6A4D6A6C
:100A98004E6A4F6A486A496A4A6A4B6A376A386ACC
:100AA800396A3A6A520E0001EA6F3ADF4052D8B406
:100AB8001ED14152D8A41BD13B50000A5EE1446AC2
:100AC800456A466A476A4C6A4D6A4E6A4F6A80862A
:100AD800810EE16E000EE26E5050E126D8B0E22A97
:100AE800690EE66E502A42C01DF0810EE16E000EBE
:100AF800E26E5050E126D8B0E22A300E4224006E51
:100B080000C0E6FF502A3CC000F0000E016E026EE5
:100B1800036E00504C2601504D2202504E220350C5
:100B28004F223DC005F0000E066E076E086E07C026
:100B380003F006C002F005C001F0006A00504C2620
:100B480001504D2202504E2203504F223EC005F064
:100B5800000E066E076E086E06C003F005C002F0B0
:100B6800006A016A00504C2601504D2202504E2264
:100B780003504F22010E3B6EB8D03B50010A39E1B9
:100B88003CC005F0000E066E076E086E05C003F047
:100B9800006A016A026A00504C2601504D22025038
:100BA8004E2203504F223DC000F0000E016E026E2F
:100BB800036E005048260150492202504A22035031
:100BC8004B223EC005F0000E066E076E086E07C089
:100BD80003F006C002F005C001F0006A0050482684
:100BE8000150492202504A2203504B22020E3B6E0A
:100BF8007CD03B50020A38E13CC005F0000E066E7E
:100C0800076E086E06C003F005C002F0006A016AAC
:100C1800005048260150492202504A2203504B22D4
:100C28003DC005F0000E066E076E086E05C003F0A5
:100C3800006A016A026A005048260150492202509F
:100C48004A2203504B223EC000F0000E016E026E95
:100C5800036E0050372601503822025039220350C3
:100C68003A22030E3B6E41D03B50030A3EE13DC0A1
:100C780005F0000E066E076E086E07C003F006C08A
:100C880002F005C001F0006A0050372601503822F2
:100C98000250392203503A223EC005F0000E066E7B
:100CA800076E086E06C003F005C002F0006A016A0C
:100CB80000503726015038220250392203503A2278
:100CC8003DC005F0000E066E076E086E05C003F005
:100CD800006A016A026A0050372601503822025021
:100CE800392203503A22040E3B6E406A426A3B5056
:100CF800040AD8A404D180964CC0EAF04DC0EBF0A9
:100D08004EC0ECF04FC0EDF0760E0001EE6F000E15
:100D1800EF6F48DD48C0EAF049C0EBF04AC0ECF09C
:100D28004BC0EDF0B30EEE6F000EEF6F3BDD37C03A
:100D3800EAF038C0EBF039C0ECF03AC0EDF0BE0E86
:100D4800EE6F000EEF6F2EDD810EE16E000EE26E8B
:100D58005050E126D8B0E22A450EE66E502A366A8F
:100D68000A0E365C15E2810EE16E000EE26E5050FE
:100D7800E126D8B0E22A760EE96E000EEA6E365009
:100D8800E926D8B0EA2AEECFE6FF502A362AE8D775
:100D9800810EE16E000EE26E5050E126D8B0E22AD4
:100DA800530EE66E502A366A0A0E365C15E2810E3C
:100DB800E16E000EE26E5050E126D8B0E22AB30E82
:100DC800E96E000EEA6E3650E926D8B0EA2AEECF70
:100DD800E6FF502A362AE8D7810EE16E000EE26E51
:100DE8005050E126D8B0E22A420EE66E502A366A02
:100DF8000A0E365C15E2810EE16E000EE26E50506E
:100E0800E126D8B0E22ABE0EE96E000EEA6E365030
:100E1800E926D8B0EA2AEECFE6FF502A362AE8D7E4
:100E28000001810EE16E000EE26E5050E126D8B04E
:100E3800E22A230EE66E502A810EEA6F000EEB6F4F
:100E4800240EEC6F5ADD0D0E0001F36F96EC02F0E4
:100E58000A0E0001F36F96EC02F01D500A0A1DE11C
:100E6800030E366E0A0E365C18E236500B0F006E13
:100E7800016A000E01221E0E0024E16E000E012000
:100E8800E26E760EE96E000EEA6E3650E926D8B0AC
:100E9800EA2AEECFE6FF362AE5D71D50140A1DE1EF
:100EA800030E366E0A0E365C18E236500B0F006ED3
:100EB800016A000E0122510E0024E16E000E01208D
:100EC800E26E760EE96E000EEA6E3650E926D8B06C
:100ED800EA2AEECFE6FF362AE5D73B6A506A4C6A23
:100EE8004D6A4E6A4F6A486A496A4A6A4B6A376A63
:100EF800386A396A3A6A446A456A466A476A010E34
:100F080000016E27000E6F237023712371510008B2
:100F180008E17051040805E16F51450802E16E517E
:100F2800C00821E26E6B6F6B706B716B6D51000ABC
:100F380003E1010E6D6F01D06D6B0A0E046E43C0A4
:100F480000F0FADC300E0024EA6FEADC43C0EAF075
:100F580002DD0A0E4324016E01C043F001501E0851
:100F680002E20A0E436E010E00016927000E6A2391
:100F78006B236C236C51000808E16B51000805E1F4
:100F88006A51360802E16951B0082AE2696B6A6B56
:100F98006B6B6C6B6D51000A12E1366A180E365C89
:100FA8000DE21E0EE96E000EEA6E3650E926D8B044
:100FB800EA2AEECFEAF0EBDC362AF0D711D0366A0F
:100FC800180E365C0DE2510EE96E000EEA6E3650D0
:100FD800E926D8B0EA2AEECFEAF0D9DC362AF0D7EB
:100FE80082A04AD0010E00017227000E73237423D9
:100FF80075237551000808E17451030805E1735120
:10100800A90802E17251800836E2726B736B746B47
:10101800756B818A410EF36F96EC02F0500E000159
:10102800F36F96EC02F0410E0001F36F96EC02F0BC
:10103800470E0001F36F96EC02F0410E0001F36FCA
:1010480096EC02F04E0E0001F36F96EC02F0440E9F
:101058000001F36F96EC02F04F0E0001F36F96EC6F
:1010680002F00D0E0001F36F96EC02F00A0E00017B
:10107800F36F96EC02F006D00001726B736B746B21
:08108800756B819AD8D4FFD7E3
:1010EA0010EE1DF0590E006E010E016E900EF66E96
:0E10FA00100EF76E000EF86E6BEC04F0120094
:01109000005F
:101091007261736572636F6D2E5253432C31303020
:0810A10030303030302C0D0A14
:0110A9000046
:0410AA000000000042
:0110AE000041
:0710AF00000000000000003A
:0110B6000A2F
:0410B7000000000035
:0410BB000000000031
:0410BF00000000002D
:0110C300002C
:1010C4007261736572636F6D2E5253432C323030EC
:0810D40030303030302C0D0AE1
:0410DC000000000010
:0110E000000F
:0410E100000000000B
:0410E5000000000007
:020000040030CA
:0E000000000C1E1EFF8381FF0FC00FE00F409B
:00000001FF
