:04000000F7EF03F023
:1000080000C018F001C017F002C016F003C015F0C8
:10001800E1CF1BF0E2CF1CF0E9CF19F0EACF1AF0DC
:10002800530E0001EA6F000EEB6FDCD918C000F028
:1000380017C001F016C002F015C003F019C0E9FF9F
:0E0048001AC0EAFF1BC0E1FF1CC0E2FF11005E
:0A005600000E9EBA010E006E1200AB
:0C00600000000000000000000000120082
:0A006C00000EACB2010E006E12008F
:10007600AECF01F0ABA202D0AB98AB8801C000F0C6
:02008600120066
:100088000B6A0A6A096A086A0E6A03340836045059
:10009800085E0550D8A0053C095E0650D8A0063C6D
:1000A8000A5E0750D8A0073C0B5EE86AD8A0010E8C
:1000B8000E5E0336070E0C6E0334083609360A3610
:1000C8000B360E36045003A012D0085E0550D8A097
:1000D800053C095E0650D8A0063C0A5E0750D8A029
:1000E800073C0B5EE86AD8A0010E0E5E11D0082608
:1000F8000550D8B0053C09260650D8B0063C0A265B
:100108000750D8B0073C0B26E86AD8B0010E0E2677
:1001180003360C2ED1D70234083609360A360B3688
:100128000E36045003A012D0085E0550D8A0053C36
:10013800095E0650D8A0063C0A5E0750D8A0073CC6
:100148000B5EE86AD8A0010E0E5E11D00826055095
:10015800D8B0053C09260650D8B0063C0A260750F8
:10016800D8B0073C0B26E86AD8B0010E0E26023636
:10017800070E0C6E0234083609360A360B360E3670
:10018800045002A012D0085E0550D8A0053C095EB4
:100198000650D8A0063C0A5E0750D8A0073C0B5E64
:1001A800E86AD8A0010E0E5E11D008260550D8B016
:1001B800053C09260650D8B0063C0A260750D8B098
:1001C800073C0B26E86AD8B0010E0E2602360C2E24
:1001D800D1D70134083609360A360B360E360450A4
:1001E80002A012D0085E0550D8A0053C095E065052
:1001F800D8A0063C0A5E0750D8A0073C0B5EE86A08
:10020800D8A0010E0E5E11D008260550D8B0053CC6
:1002180009260650D8B0063C0A260750D8B0073C35
:100228000B26E86AD8B0010E0E260136070E0C6EB2
:100238000134083609360A360B360E36045001A04A
:1002480012D0085E0550D8A0053C095E0650D8A01B
:10025800063C0A5E0750D8A0073C0B5EE86AD8A0A7
:10026800010E0E5E11D008260550D8B0053C0926AF
:100278000650D8B0063C0A260750D8B0073C0B26D3
:10028800E86AD8B0010E0E2601360C2ED1D70034FC
:10029800083609360A360B360E36045001A012D03D
:1002A800085E0550D8A0053C095E0650D8A0063C5B
:1002B8000A5E0750D8A0073C0B5EE86AD8A0010E7A
:1002C8000E5E11D008260550D8B0053C0926065008
:1002D800D8B0063C0A260750D8B0073C0B26E86A77
:1002E800D8B0010E0E260036070E0C6E0034083604
:1002F80009360A360B360E36045000A012D0085EB6
:100308000550D8A0053C095E0650D8A0063C0A5EF8
:100318000750D8A0073C0B5EE86AD8A0010E0E5E15
:1003280011D008260550D8B0053C09260650D8B08B
:10033800063C0A260750D8B0073C0B26E86AD8B016
:10034800010E0E2600360C2ED1D700B00ED0045068
:1003580008260550D8B0053C09260650D8B0063CFA
:0C0368000A260750D8B0073C0B261200F4
:10037400818C74DE0B0E006E0DD0A90E026E022E5F
:10038400FED700000001E933E99FE98FD8A002D02D
:10039400818C02D0819C000000060052EEE1120024
:1003A400F250026EF29E0500FF6A0150FE6E00508C
:0803B400FD6E02BEF28E120084
:1003BC00818250DE0B0E006E0DD0A90E026E022E45
:1003CC00FED700000001E933E99FE98FD8A002D0E5
:1003DC00818202D08192000000060052EEE11200F0
:1003EC00D4C000F0D5C001F0D7DF005201E11FD11D
:1003FC00D8C000F0D9C001F0CFDF00C0D1F0FBD0E5
:10040C000001D151960A03E1020ED36FD26B0FD1CA
:10041C00D1C0D0F0030ED36F060EEA25E16E000EAC
:10042C00EB21E26ED1C0E6FFD151D21B00D1800E80
:10043C00D115016E0150000A21E1D1AD0BD0060E91
:10044C00EA25E16E000EEB21E26E010ED019006E72
:10045C0000C0E6FFD1C0CFF0D151D21B030ED11595
:10046C00016E01C0C9F00150000A03E1050ED36F03
:10047C0004D0010ECA6F040ED36F0AD0050EEA2504
:10048C00E16E000EEB21E26EFF0EE66E010ED36FF5
:10049C00CED0D151A90A0BE1050EEA25E16E000E72
:1004AC00EB21E26EFF0EE66E010ED36FC0D0CA5187
:1004BC00C95D006E016A000E015A0050011011E076
:1004CC00CA05006E016A000E015A0050EA25E16E61
:1004DC000150EB21E26ED1C0E6FFD151D21BCA2BE9
:1004EC0011D0CA05006E016A000E015A0050EA25AF
:1004FC00E16E0150EB21E26ED1C0E6FF050ED36F29
:10050C00D151D21B94D0D21D016E01C0D2F001503A
:10051C00960A04E0D251A90A01E001D0D22BD251A3
:10052C00D11903E1060ED36F0AD0050EEA25E16E50
:10053C00000EEB21E26EFF0EE66E010ED36F77D04C
:10054C00D151A90A3FE1010ED36F040EEA25E16EE9
:10055C00000EEB21E26EFF0EE66E030EEA25E16E55
:10056C00000EEB21E26EC9C0E6FF010ECA6FCA5144
:10057C00C95D27E3CAC001F0020E006E015004E011
:10058C0000360090FF0FFBD7CF51001618E0CA05BC
:10059C00006E016A000E015A0050EA25026E0150ED
:1005AC00EB21036E02C0E9FF03C0EAFF010EEE1857
:1005BC00006E02C0E1FF03C0E2FF00C0E6FFCA2BE1
:1005CC00D6D70AD0050EEA25E16E000EEB21E26EBD
:1005DC00FF0EE66E010ED36F2AD0050EEA25E16EF2
:1005EC00000EEB21E26EFF0EE66E010ED36F1FD0F4
:1005FC00010ED36F1CD00001D351010AD8B400D71F
:10060C00D351020AD8B404D7D351030AD8B40FD7A4
:10061C00D351040AD8B43DD7D351050AD8B473D7F3
:10062C00D351060A8DE0D351070AD7E0E1D7120067
:0E063C00939C939C938E818C819C818E1200E6
:10064A00FF0E0001DC6FFF0EDD6FFF0EDE6FFF0E87
:10065A00DF6F760ED86F000ED96F000EDA6F000EBC
:10066A00DB6F560ED46F000ED56F000ED66F000EDC
:10067A00D76F6C0ECB6F000ECC6F000ECD6F000ED5
:10068A00CE6FAC8A900EAB6E948E949C9EAA03D0C9
:08069A00AECF00F0FBD7120007
:0E06A2009392939293848182819281841200BC
:1006B0000900F5CFE6FF0006FBE10106F9E11200B3
:1006C0000001E66B0A0EE65D0AE2E651E425E16E02
:1006D000000EE521E26E300EE66EE62BF3D7E65112
:1006E000E425E16E000EE521E26EE66AE607000E03
:1006F000006EE31908E10050E21905E10050E1192C
:1007000002E1E051000A3EE0E651E425E76F000E09
:10071000E521E86F0A0E046E000E056E066E076E88
:10072000E0C000F0E1C001F0E2C002F0E3C003F07D
:10073000ABDC08C000F009C001F00AC002F00BC039
:1007400003F0300E0026E7C0E1FFE8C0E2FF00C082
:10075000E6FFE6070A0E046E000E056E066E076ED3
:10076000E0C000F0E1C001F0E2C002F0E3C003F03D
:100770008BDC00C0E0F001C0E1F002C0E2F003C099
:06078000E3F0B5D7120002
:100786000001E22BE0C0E9FFE1C0EAFF0001E20759
:10079600D8B41200EE50D8B41200006E00C0E9F0D2
:0607A6000ADEF4D7120088
:0C07AC0092948094010E0001D36F1200A3
:1007B8000001606B050E605D0EE2710EE96E000EC1
:1007C800EA6E6051E926D8B0EA2AEECFE9F0CEDD2C
:1007D8000001602BEFD7E0C0E9F0ECDD0A0E000164
:0607E800E96FE8DD1200DC
:1007EE0029EC07F00F0EC16E070EB46E929692981A
:1007FE00809680984FDF1BDFB886020EB06E080E13
:10080E00AF6EAC841BDF030E0B6E8A0E0C6E550E94
:10081E000D6E0D2EFED70C2EFCD70B2EFAD7000028
:10082E000000BDDF030E0B6E8A0E0C6E550E0D6EA4
:10083E000D2EFED70C2EFCD70B2EFAD70000000083
:10084E009D8A9D98F28CF28E585210E08088410E4F
:10085E000C6EEE0E0D6E0D2EFED70C2EFCD700007C
:10086E008098586A576A450EE06F9FDF5250000815
:10087E0006E2010E4E26000E4F22502251225150FA
:10088E00000808E15050000805E14F50360802E11B
:10089E004E50B00817E24E6A4F6A506A516A526A59
:1008AE0080965A6A0001656B666B676B686B616B4D
:1008BE00626B636B646B5B6A5C6A5D6A5E6A520E46
:1008CE00E06F73DF5752D8B42ED15852D8A42BD123
:1008DE005250000A62E14E6A4F6A506A516A000134
:1008EE00656B666B676B686B8086810EE16E000EC2
:1008FE00E26E5A50E126D8B0E22A690EE66E5A2A06
:10090E0059C01DF0810EE16E000EE26E5A50E126C6
:10091E00D8B0E22A300E5924006E00C0E6FF5A2AE3
:10092E0053C000F0000E016E026E036E005065277C
:10093E0001506623025067230350682354C005F00C
:10094E00000E066E076E086E07C003F006C002F0BA
:10095E0005C001F0006A0050652701506623025061
:10096E0067230350682355C005F0000E066E076E10
:10097E00086E06C003F005C002F0006A016A00505E
:10098E006527015066230250672303506823010E2A
:10099E00526E300EE06F09DFC4D05250010A3DE1B5
:1009AE0053C005F0000E066E076E086E05C003F00C
:1009BE00006A016A026A0050000165270150662331
:1009CE00025067230350682354C000F0000E016EDE
:1009DE00026E036E005061270150622302506323A2
:1009EE000350642355C005F0000E066E076E086EA8
:1009FE0007C003F006C002F005C001F0006A005007
:100A0E006127015062230250632303506423020EB8
:100A1E00526E310EE06FC9DE84D05250020A3CE1B4
:100A2E0053C005F0000E066E076E086E06C003F08A
:100A3E0005C002F0006A016A0050000161270150F2
:100A4E006223025063230350642354C005F0000E4A
:100A5E00066E076E086E05C003F0006A016A026A30
:100A6E000050612701506223025063230350642318
:100A7E0055C000F0000E016E026E036E00505B2634
:100A8E0001505C2202505D2203505E22030E526E14
:100A9E00320EE06F8ADE45D05250030A42E154C056
:100AAE0005F0000E066E076E086E07C003F006C056
:100ABE0002F005C001F0006A00505B2601505C2276
:100ACE0002505D2203505E2255C005F0000E066EE8
:100ADE00076E086E06C003F005C002F0006A016AD8
:100AEE0000505B2601505C2202505D2203505E22B4
:100AFE0054C005F0000E066E076E086E05C003F0BA
:100B0E00006A016A026A00505B2601505C220250A4
:100B1E005D2203505E22040E526E330E0001E06F12
:100B2E0044DE576A596A5250040AD8A4FFD0809600
:100B3E0065C0E0F066C0E1F067C0E2F068C0E3F0C7
:100B4E00760E0001E46F000EE56FB3DD61C0E0F0DC
:100B5E0062C0E1F063C0E2F064C0E3F0B30EE46F94
:100B6E00000EE56FA6DD5BC0E0F05CC0E1F05DC09D
:100B7E00E2F05EC0E3F0BE0EE46F000EE56F99DDAD
:100B8E00810EE16E000EE26E5A50E126D8B0E22AD6
:100B9E00450EE66E5A2A606B0A0E605D15E2810EF6
:100BAE00E16E000EE26E5A50E126D8B0E22A760EC1
:100BBE00E96E000EEA6E6051E926D8B0EA2AEECF51
:100BCE00E6FF5A2A602BE8D7810EE16E000EE26E28
:100BDE005A50E126D8B0E22A530EE66E5A2A606BBE
:100BEE000A0E605D15E2810EE16E000EE26E5A5045
:100BFE00E126D8B0E22AB30EE96E000EEA6E60511D
:100C0E00E926D8B0EA2AEECFE6FF5A2A602BE8D7BB
:100C1E00810EE16E000EE26E5A50E126D8B0E22A45
:100C2E00420EE66E5A2A606B0A0E605D15E2810E68
:100C3E00E16E000EE26E5A50E126D8B0E22ABE0EE8
:100C4E00E96E000EEA6E6051E926D8B0EA2AEECFC0
:100C5E00E6FF5A2A602BE8D7810EE16E000EE26E97
:100C6E005A50E126D8B0E22A230EE66E5A2A810E99
:100C7E00E06F000EE16F240EE26F7EDD1D500A0A5A
:100C8E001EE1030E0001606F0A0E605D18E26051F6
:100C9E000B0F006E016A000E0122360E0024E16E6B
:100CAE00000E0120E26E760EE96E000EEA6E6051C5
:100CBE00E926D8B0EA2AEECFE6FF602BE5D71D5025
:100CCE00140A1EE10001030E606F0A0E605D18E249
:100CDE0060510B0F006E016A000E01221E0E0024E1
:100CEE00E16E000E0120E26E760EE96E000EEA6EE7
:100CFE006051E926D8B0EA2AEECFE6FF602BE5D7A1
:100D0E000001526A5A6A656B666B676B686B616B42
:100D1E00626B636B646B5B6A5C6A5D6A5E6A4E6A89
:100D2E004F6A506A516A340EE06F3FDD010E0001CA
:100D3E006D27000E6E236F2370237051000808E19B
:100D4E006F51040805E16E51450802E16D51C0086E
:100D5E000BE26D6B6E6B6F6B706B5F50000A03E195
:100D6E00010E5F6E01D05F6A010E6927000E6A23C5
:100D7E006B236C236C51000808E16B51000805E1F0
:100D8E006A51360802E16951B0082EE2696B6A6B4E
:100D9E006B6B6C6B5F50000A14E1606B180E605D3C
:100DAE000FE2360EE96E000EEA6E6051E926D8B0FB
:100DBE00EA2AEECFE9F0BAEC01F00001602BEED793
:100DCE0013D0606B180E605D0FE21E0EE96E000E02
:100DDE00EA6E6051E926D8B0EA2AEECFE9F0BAEC15
:0C0DEE0001F00001602BEED72FD5FFD7DD
:100E520010EE1DF0420E006E010E016EFA0EF66EDD
:100E62000D0EF76E000EF86E58EC03F010EE61F006
:100E72000C0E006E010E016E3C0EF66E0E0EF76E3B
:100E8200000EF86E58EC03F010EE5FF0010E006EEB
:100E9200010E016E070EF66E000EF76E000EF86E72
:100EA20058EC03F010EE6DF0090E006E010E016EAB
:100EB200480EF66E0E0EF76E000EF86E58EC03F04A
:100EC20010EE60F0010E006E010E016E060EF66E5F
:0E0ED200000EF76E000EF86E58EC03F01200E2
:0100060000F9
:0100070000F8
:010DFA0000F8
:100DFB007261736572636F6D2E5253432C323030B8
:080E0B0030303030302C0D0AAC
:100E13007261736572636F6D2E5253432C313030A0
:080E230030303030302C0D0A94
:040E2B0000000000C3
:010E2F0000C2
:070E300000000000000000BB
:010E370000BA
:040E380000000000B6
:040E3C0000000000B2
:040E400000000000AE
:040E440000000000AA
:040E480000000000A6
:050E4C004255434C4536
:020000040030CA
:0E000000000C1E1EFF8381FF0FC00FE00F409B
:00000001FF
