:04000000E4EF04F035
:1000080000C018F001C017F002C016F003C015F0C8
:10001800E1CF1BF0E2CF1CF0E9CF19F0EACF1AF0DC
:100028003C0E0001F76F000EF86F94DA18C000F06C
:1000380017C001F016C002F015C003F019C0E9FF9F
:0E0048001AC0EAFF1BC0E1FF1CC0E2FF11005E
:0A005600000EACB2010E006E1200A5
:0E006000ACB202D00000FCD7F6C0ADFF12001B
:10006E00F6C0C9FFC7B002D00000FCD7C9CF00F060
:02007E0012006E
:0A008000000E9EBA010E006E120081
:10008A00AECF01F0ABA202D0AB98AB8801C000F0B2
:02009A00120052
:0C009C0000000000000000000000120046
:1000A800F250026EF29E0500FF6A0150FE6E00508B
:0800B800FD6E02BEF28E120083
:1000C0000B6A0A6A096A086A0E6A03340836045021
:1000D000085E0550D8A0053C095E0650D8A0063C35
:1000E0000A5E0750D8A0073C0B5EE86AD8A0010E54
:1000F0000E5E0336070E0C6E0334083609360A36D8
:100100000B360E36045003A012D0085E0550D8A05E
:10011000053C095E0650D8A0063C0A5E0750D8A0F0
:10012000073C0B5EE86AD8A0010E0E5E11D00826CF
:100130000550D8B0053C09260650D8B0063C0A2622
:100140000750D8B0073C0B26E86AD8B0010E0E263F
:1001500003360C2ED1D70234083609360A360B3650
:100160000E36045003A012D0085E0550D8A0053CFE
:10017000095E0650D8A0063C0A5E0750D8A0073C8E
:100180000B5EE86AD8A0010E0E5E11D0082605505D
:10019000D8B0053C09260650D8B0063C0A260750C0
:1001A000D8B0073C0B26E86AD8B0010E0E260236FE
:1001B000070E0C6E0234083609360A360B360E3638
:1001C000045002A012D0085E0550D8A0053C095E7C
:1001D0000650D8A0063C0A5E0750D8A0073C0B5E2C
:1001E000E86AD8A0010E0E5E11D008260550D8B0DE
:1001F000053C09260650D8B0063C0A260750D8B060
:10020000073C0B26E86AD8B0010E0E2602360C2EEB
:10021000D1D70134083609360A360B360E3604506B
:1002200002A012D0085E0550D8A0053C095E065019
:10023000D8A0063C0A5E0750D8A0073C0B5EE86ACF
:10024000D8A0010E0E5E11D008260550D8B0053C8E
:1002500009260650D8B0063C0A260750D8B0073CFD
:100260000B26E86AD8B0010E0E260136070E0C6E7A
:100270000134083609360A360B360E36045001A012
:1002800012D0085E0550D8A0053C095E0650D8A0E3
:10029000063C0A5E0750D8A0073C0B5EE86AD8A06F
:1002A000010E0E5E11D008260550D8B0053C092677
:1002B0000650D8B0063C0A260750D8B0073C0B269B
:1002C000E86AD8B0010E0E2601360C2ED1D70034C4
:1002D000083609360A360B360E36045001A012D005
:1002E000085E0550D8A0053C095E0650D8A0063C23
:1002F0000A5E0750D8A0073C0B5EE86AD8A0010E42
:100300000E5E11D008260550D8B0053C09260650CF
:10031000D8B0063C0A260750D8B0073C0B26E86A3E
:10032000D8B0010E0E260036070E0C6E00340836CB
:1003300009360A360B360E36045000A012D0085E7D
:100340000550D8A0053C095E0650D8A0063C0A5EC0
:100350000750D8A0073C0B5EE86AD8A0010E0E5EDD
:1003600011D008260550D8B0053C09260650D8B053
:10037000063C0A260750D8B0073C0B26E86AD8B0DE
:10038000010E0E2600360C2ED1D700B00ED0045030
:1003900008260550D8B0053C09260650D8B0063CC2
:0C03A0000A260750D8B0073C0B261200BC
:1003AC008084F1C0F5F0D9C0E1FFDAC0E2FF960E0F
:1003BC00E66ED7C000F0D8C001F070DE0001F2513B
:1003CC00960A04E0F251A90A01E002D0F271F18D13
:1003DC00D9C0E1FFDAC0E2FFF2C0E6FFD7C000F0FF
:1003EC00D8C001F05BDE0001F507F36BF351F55D4E
:1003FC0034E3F351EF25E96E000EF021EA6EEE5076
:10040C00960A0AE0F351EF25E96E000EF021EA6E30
:10041C00EE50A90A01E01FD0F351EF25016E000E3A
:10042C00F021026E01C0E9FF02C0EAFF010EEE18D6
:10043C00006E01C0E1FF02C0E2FF00C0E6FFF3C0A6
:10044C0001F0040E006E015004E000360090FF0F26
:10045C00FBD70050F113F32BC9D7800EF111006EAE
:10046C0000C0F1F0D9C0E1FFDAC0E2FF00C0E6FF46
:10047C00D7C000F0D8C001F011DE0001F251F11923
:10048C00F46FF36BF351F55D1EE3F351EF25006E42
:10049C00000EF021016E00C0D9FF01C0DAFFDE5062
:1004AC00F41BD9C0E1FFDAC0E2FF00C0E9FF01C0D4
:1004BC00EAFFEECFE6FFD7C000F0D8C001F0EEDDCA
:1004CC000001F32BDFD7F41D016E01C0F4F00150D5
:1004DC00960A04E0F451A90A01E001D0F42BD9C02A
:1004EC00E1FFDAC0E2FFF4C0E6FFD7C000F0D8C0ED
:1004FC0001F0D4DDD9C0E1FFDAC0E2FFA90EE66E4F
:10050C00D7C000F0D8C001F0C9DDD3C000F0D4C012
:10051C0001F0C4DD0050000A01E1F7D7809412000D
:10052C008182B6DD0B0E006E0DD0A90E026E022E6E
:10053C00FED700000001EF33EF9FEF8FD8A002D061
:10054C00818202D08192000000060052EEE112007E
:10055C00C7C000F0C8C001F0A1DD005201E11FD1FD
:10056C00CFC000F0D0C001F099DD00C0CDF0FBD0C1
:10057C000001CD51960A03E1020EDB6FCE6B0FD159
:10058C00CDC0CCF0030EDB6F060EF725E16E000E2E
:10059C00F821E26ECDC0E6FFCD51CE1B00D1800E0E
:1005AC00CD15016E0150000A21E1CDAD0BD0060E28
:1005BC00F725E16E000EF821E26E010ECC19006EEB
:1005CC0000C0E6FFCDC0CBF0CD51CE1B030ECD1538
:1005DC00016E01C0C5F00150000A03E1050EDB6F8E
:1005EC0004D0010EC66F040EDB6F0AD0050EF72582
:1005FC00E16E000EF821E26EFF0EE66E010EDB6F6F
:10060C00CED0CD51A90A0BE1050EF725E16E000EF7
:10061C00F821E26EFF0EE66E010EDB6FC0D0C65104
:10062C00C55D006E016A000E015A0050011011E008
:10063C00C605006E016A000E015A0050F725E16EE6
:10064C000150F821E26ECDC0E6FFCD51CE1BC62B7A
:10065C0011D0C605006E016A000E015A0050F72534
:10066C00E16E0150F821E26ECDC0E6FF050EDB6FA6
:10067C00CD51CE1B94D0CE1D016E01C0CEF00150D9
:10068C00960A04E0CE51A90A01E001D0CE2BCE513E
:10069C00CD1903E1060EDB6F0AD0050EF725E16ECE
:1006AC00000EF821E26EFF0EE66E010EDB6F77D0C6
:1006BC00CD51A90A3FE1010EDB6F040EF725E16E67
:1006CC00000EF821E26EFF0EE66E030EF725E16ECA
:1006DC00000EF821E26EC5C0E6FF010EC66FC651D2
:1006EC00C55D27E3C6C001F0020E006E015004E0A8
:1006FC0000360090FF0FFBD7CB51001618E0C60553
:10070C00006E016A000E015A0050F725026E01506E
:10071C00F821036E02C0E9FF03C0EAFF010EEE18D8
:10072C00006E02C0E1FF03C0E2FF00C0E6FFC62B73
:10073C00D6D70AD0050EF725E16E000EF821E26E31
:10074C00FF0EE66E010EDB6F2AD0050EF725E16E6B
:10075C00000EF821E26EFF0EE66E010EDB6F1FD06D
:10076C00010EDB6F1CD00001DB51010AD8B400D79D
:10077C00DB51020AD8B404D7DB51030AD8B40FD723
:10078C00DB51040AD8B43DD7DB51050AD8B473D772
:10079C00DB51060A8DE0DB51070AD7E0E1D71200E6
:1007AC000001EC6B0A0EEC5D0AE2EC51EA25E16EFD
:1007BC00000EEB21E26E300EE66EEC2BF3D7EC5113
:1007CC00EA25E16E000EEB21E26EE66AEC07000E04
:1007DC00006EE91908E10050E81905E10050E7192D
:1007EC0002E1E651000A3EE0EC51EA25ED6F000E05
:1007FC00EB21EE6F0A0E046E000E056E066E076E90
:10080C00E6C000F0E7C001F0E8C002F0E9C003F078
:10081C0051DC08C000F009C001F00AC002F00BC0A6
:10082C0003F0300E0026EDC0E1FFEEC0E2FF00C089
:10083C00E6FFEC070A0E046E000E056E066E076EE0
:10084C00E6C000F0E7C001F0E8C002F0E9C003F038
:10085C0031DC00C0E6F001C0E7F002C0E8F003C0F4
:06086C00E9F0B5D712000F
:10087200600E0001D76F000ED86FF60ED96F000E12
:10088200DA6F8A0ECF6F000ED06F000ED16F000E9E
:10089200D26F800EC76F000EC86F000EC96F000EB8
:1008A200CA6F560ED36F000ED46F000ED56F000EB6
:1008B200D66FAC8A900EAB6E948E949C9EAA03D097
:0808C200AECF00F0FBD71200DD
:0C08CA0092948094010E0001DB6F12007C
:1008D6000900F5CFE6FF0006FBE10106F9E112008B
:0E08E600939293929384818281928184120076
:0E08F400939C939C938E818C819C818E12002C
:100902000001E82BE6C0E9FFE7C0EAFF0001E807C3
:10091200D8B41200EE50D8B41200006E00C0EFF04E
:0609220004DEF4D7120010
:10092800E6C0EFF0FFDD0D0E0001EF6FFBDD0A0EF4
:080938000001EF6FF7DD120072
:10094000086A080E0C6E003408360450085ED8B0F1
:0E09500002D00826D89000360C2EF5D71200E3
:10095E00FF0E0001DC6FFF0EDD6FFF0EDE6FE06B32
:10096E00E16BE26BDC0EEF6F000EF06F010EF16FBC
:10097E00E6C0F2F014DD070E0C6E7D0E0D6E0D2E20
:08098E00FED70C2EFCD712006D
:10099600818C4EEC00F00B0E006E0DD0A90E026E8F
:1009A600022EFED700000001E633E69FE68FD8A0B0
:1009B60002D0818C02D0819C000000060052EEE13C
:0209C60012001D
:1009C8001DEC08F00F0EC16E070EB46E9296929849
:1009D8008096809884DF8ADFB886020EB06E080E93
:1009E800AF6EAC8442DF030E0B6E8A0E0C6E550E92
:1009F8000D6E0D2EFED70C2EFCD70B2EFAD700004D
:100A080000005FDF030E0B6E8A0E0C6E550E0D6E26
:100A18000D2EFED70C2EFCD70B2EFAD700000000A7
:100A28009D8A9D98F28CF28E43C0E6F094DF415285
:100A38000DE08088410E0C6EEE0E0D6E0D2EFED769
:100A48000C2EFCD700008098416A406A3B50000891
:100A580006E2010E4426000E452246224722475050
:100A6800000808E14650000805E14550360802E153
:100A78004450B00817E2446A456A466A476A3B6AC6
:100A88008096506A4C6A4D6A4E6A4F6A486A496A4B
:100A98004A6A4B6A376A386A396A3A6A520E0001FA
:100AA800E66F3EDF4052D8B41ED14152D8A41BD1C4
:100AB8003B50000A5EE1446A456A466A476A4C6AE6
:100AC8004D6A4E6A4F6A80867D0EE16E000EE26EB8
:100AD8005050E126D8B0E22A690EE66E502A42C08C
:100AE8001DF07D0EE16E000EE26E5050E126D8B08A
:100AF800E22A300E4224006E00C0E6FF502A3CC0B5
:100B080000F0000E016E026E036E00504C2601507C
:100B18004D2202504E2203504F223DC005F0000ED8
:100B2800066E076E086E07C003F006C002F005C027
:100B380001F0006A00504C2601504D2202504E220E
:100B480003504F223EC005F0000E066E076E086E79
:100B580006C003F005C002F0006A016A00504C2686
:100B680001504D2202504E2203504F22010E3B6E7F
:100B7800B8D03B50010A39E13CC005F0000E066EC2
:100B8800076E086E05C003F0006A016A026A005029
:100B98004C2601504D2202504E2203504F223DC098
:100BA80000F0000E016E026E036E005048260150E0
:100BB800492202504A2203504B223EC005F0000E43
:100BC800066E076E086E07C003F006C002F005C087
:100BD80001F0006A005048260150492202504A227A
:100BE80003504B22020E3B6E7CD03B50020A38E188
:100BF8003CC005F0000E066E076E086E06C003F0D6
:100C080005C002F0006A016A0050482601504922D6
:100C180002504A2203504B223DC005F0000E066EDA
:100C2800076E086E05C003F0006A016A026A005088
:100C380048260150492202504A2203504B223EC006
:100C480000F0000E016E026E036E00503726015050
:100C580038220250392203503A22030E3B6E41D00B
:100C68003B50030A3EE13DC005F0000E066E076EDC
:100C7800086E07C003F006C002F005C001F0006A64
:100C880000503726015038220250392203503A22A8
:100C98003EC005F0000E066E076E086E06C003F033
:100CA80005C002F0006A016A005037260150382258
:100CB8000250392203503A223DC005F0000E066E5C
:100CC800076E086E05C003F0006A016A026A0050E8
:100CD8003726015038220250392203503A22040E96
:100CE8003B6E406A426A3B50040AD8A404D18096FD
:100CF8004CC0E6F04DC0E7F04EC0E8F04FC0E9F058
:100D0800720E0001EA6F000EEB6F4CDD48C0E6F092
:100D180049C0E7F04AC0E8F04BC0E9F0AF0EEA6F0F
:100D2800000EEB6F3FDD37C0E6F038C0E7F039C0A2
:100D3800E8F03AC0E9F0BA0EEA6F000EEB6F32DD68
:100D48007D0EE16E000EE26E5050E126D8B0E22A28
:100D5800450EE66E502A366A0A0E365C15E27D0E9E
:100D6800E16E000EE26E5050E126D8B0E22A720E13
:100D7800E96E000EEA6E3650E926D8B0EA2AEECFC0
:100D8800E6FF502A362AE8D77D0EE16E000EE26EA5
:100D98005050E126D8B0E22A530EE66E502A366A41
:100DA8000A0E365C15E27D0EE16E000EE26E5050C2
:100DB800E126D8B0E22AAF0EE96E000EEA6E365090
:100DC800E926D8B0EA2AEECFE6FF502A362AE8D735
:100DD8007D0EE16E000EE26E5050E126D8B0E22A98
:100DE800420EE66E502A366A0A0E365C15E27D0E11
:100DF800E16E000EE26E5050E126D8B0E22ABA0E3B
:100E0800E96E000EEA6E3650E926D8B0EA2AEECF2F
:100E1800E6FF502A362AE8D700017D0EE16E000E63
:100E2800E26E5050E126D8B0E22A230EE66E502A30
:100E38007D0EE66F000EE76F240EE86F5EDD0D0E87
:100E48000001EF6F96EC02F00A0E0001EF6F96ECCE
:100E580002F01D500A0A1DE1030E366E0A0E365CBA
:100E680018E236500B0F006E016A000E01221E0EAA
:100E78000024E16E000E0120E26E720EE96E000E93
:100E8800EA6E3650E926D8B0EA2AEECFE6FF362ACF
:100E9800E5D71D50140A1DE1030E366E0A0E365CA6
:100EA80018E236500B0F006E016A000E0122560E32
:100EB8000024E16E000E0120E26E720EE96E000E53
:100EC800EA6E3650E926D8B0EA2AEECFE6FF362A8F
:100ED800E5D73B6A506A4C6A4D6A4E6A4F6A486A5F
:100EE800496A4A6A4B6A376A386A396A3A6A446AA6
:100EF800456A466A476A010E5226000E532254225A
:100F080055225550000808E15450040805E1535093
:100F1800450802E15250C00822E2526A536A546AF4
:100F2800556A5150000A03E1010E516E01D0516A11
:100F38000A0E046E43C000F0FFDC300E00240001EE
:100F4800E66FEEDC43C0E6F006DD0A0E4324016ED0
:100F580001C043F001501E0802E20A0E436E010E62
:100F680000016E27000E6F23702371237151000852
:100F780008E17051000805E16F51360802E16E5131
:100F8800B0082AE26E6B6F6B706B716B5150000A80
:100F980012E1366A180E365C0DE21E0EE96E000E7E
:100FA800EA6E3650E926D8B0EA2AEECFE6F0EFDC52
:100FB800362AF0D711D0366A180E365C0DE2560E76
:100FC800E96E000EEA6E3650E926D8B0EA2AEECF6E
:0C0FD800E6F0DDDC362AF0D72AD5FFD782
:10103A0010EE1DF0550E006E010E016EE40EF66EF6
:0E104A000F0EF76E000EF86E6BEC04F0120045
:010FE400000C
:100FE5007261736572636F6D2E5253432C313030CD
:080FF50030303030302C0D0AC1
:010FFD0000F3
:040FFE0000000000EF
:0110020000ED
:0710030000000000000000E6
:01100A000ADB
:04100B0000000000E1
:04100F0000000000DD
:0410130000000000D9
:0110170000D8
:0110180000D7
:0410190000000000D3
:10101D007261736572636F6D2E5253432C32303093
:08102D0030303030302C0D0A88
:0410350000000000B7
:020000040030CA
:0E000000000C1E1EFF8381FF0FC00FE00F409B
:00000001FF
