:040000008BEF05F08D
:1000080000C018F001C017F002C016F003C015F0C8
:10001800E1CF1BF0E2CF1CF0E9CF19F0EACF1AF0DC
:10002800310E0101386F000E396FACDA18C000F0DC
:1000380017C001F016C002F015C003F019C0E9FF9F
:0E0048001AC0EAFF1BC0E1FF1CC0E2FF11005E
:0A005600000EACB2010E006E1200A5
:0E006000ACB202D00000FCD737C1ADFF1200D9
:10006E0037C1C9FFC7B002D00000FCD7C9CF00F01E
:02007E0012006E
:10008000AECF01F0ABA202D0AB98AB8801C000F0BC
:0200900012005C
:0A009200000E9EBA010E006E12006F
:0C009C0000000000000000000000120046
:1000A800F250026EF29E0500FF6A0150FE6E00508B
:0800B800FD6E02BEF28E120083
:1000C000818CECDF0B0E006E0DD0A90E026E022E9D
:1000D000FED7000001013033309F308FD8A002D00E
:1000E000818C02D0819C000000060052EEE11200DB
:1000F0008182D4DF0B0E006E0DD0A90E026E022E8F
:10010000FED7000001013033309F308FD8A002D0DD
:10011000818202D08192000000060052EEE11200BE
:100120000B6A0A6A096A086A0E6A033408360450C0
:10013000085E0550D8A0053C095E0650D8A0063CD4
:100140000A5E0750D8A0073C0B5EE86AD8A0010EF3
:100150000E5E0336070E0C6E0334083609360A3677
:100160000B360E36045003A012D0085E0550D8A0FE
:10017000053C095E0650D8A0063C0A5E0750D8A090
:10018000073C0B5EE86AD8A0010E0E5E11D008266F
:100190000550D8B0053C09260650D8B0063C0A26C2
:1001A0000750D8B0073C0B26E86AD8B0010E0E26DF
:1001B00003360C2ED1D70234083609360A360B36F0
:1001C0000E36045003A012D0085E0550D8A0053C9E
:1001D000095E0650D8A0063C0A5E0750D8A0073C2E
:1001E0000B5EE86AD8A0010E0E5E11D008260550FD
:1001F000D8B0053C09260650D8B0063C0A26075060
:10020000D8B0073C0B26E86AD8B0010E0E2602369D
:10021000070E0C6E0234083609360A360B360E36D7
:10022000045002A012D0085E0550D8A0053C095E1B
:100230000650D8A0063C0A5E0750D8A0073C0B5ECB
:10024000E86AD8A0010E0E5E11D008260550D8B07D
:10025000053C09260650D8B0063C0A260750D8B0FF
:10026000073C0B26E86AD8B0010E0E2602360C2E8B
:10027000D1D70134083609360A360B360E3604500B
:1002800002A012D0085E0550D8A0053C095E0650B9
:10029000D8A0063C0A5E0750D8A0073C0B5EE86A6F
:1002A000D8A0010E0E5E11D008260550D8B0053C2E
:1002B00009260650D8B0063C0A260750D8B0073C9D
:1002C0000B26E86AD8B0010E0E260136070E0C6E1A
:1002D0000134083609360A360B360E36045001A0B2
:1002E00012D0085E0550D8A0053C095E0650D8A083
:1002F000063C0A5E0750D8A0073C0B5EE86AD8A00F
:10030000010E0E5E11D008260550D8B0053C092616
:100310000650D8B0063C0A260750D8B0073C0B263A
:10032000E86AD8B0010E0E2601360C2ED1D7003463
:10033000083609360A360B360E36045001A012D0A4
:10034000085E0550D8A0053C095E0650D8A0063CC2
:100350000A5E0750D8A0073C0B5EE86AD8A0010EE1
:100360000E5E11D008260550D8B0053C092606506F
:10037000D8B0063C0A260750D8B0073C0B26E86ADE
:10038000D8B0010E0E260036070E0C6E003408366B
:1003900009360A360B360E36045000A012D0085E1D
:1003A0000550D8A0053C095E0650D8A0063C0A5E60
:1003B0000750D8A0073C0B5EE86AD8A0010E0E5E7D
:1003C00011D008260550D8B0053C09260650D8B0F3
:1003D000063C0A260750D8B0073C0B26E86AD8B07E
:1003E000010E0E2600360C2ED1D700B00ED00450D0
:1003F00008260550D8B0053C09260650D8B0063C62
:0C0400000A260750D8B0073C0B2612005B
:10040C00808432C136F1E5C0E1FFE6C0E2FF960E12
:10041C00E66EE3C000F0E4C001F040DE01013351B0
:10042C00960A04E03351A90A01E002D03371328DEF
:10043C00E5C0E1FFE6C0E2FF33C1E6FFE3C000F038
:10044C00E4C001F02BDE01013607346B3451365D0C
:10045C0034E334513025E96E000E3121EA6EEE5052
:10046C00960A0AE034513025E96E000E3121EA6E0D
:10047C00EE50A90A01E01FD034513025016E000E58
:10048C003121026E01C0E9FF02C0EAFF010EEE1835
:10049C00006E01C0E1FF02C0E2FF00C0E6FF34C104
:1004AC0001F0040E006E015004E000360090FF0FC6
:1004BC00FBD700503213342BC9D7800E3211006E8B
:1004CC0000C032F1E5C0E1FFE6C0E2FF00C0E6FF8C
:1004DC00E3C000F0E4C001F0E1DD01013351321959
:1004EC00356F346B3451365D1EE334513025006E5C
:1004FC00000E3121016E00C0D9FF01C0DAFFDE50C1
:10050C00351BE5C0E1FFE6C0E2FF00C0E9FF01C01A
:10051C00EAFFEECFE6FFE3C000F0E4C001F0BEDD81
:10052C000101342BDFD7351D016E01C035F10150AF
:10053C00960A04E03551A90A01E001D0352BE5C03B
:10054C00E1FFE6C0E2FF35C1E6FFE3C000F0E4C026
:10055C0001F0A4DDE5C0E1FFE6C0E2FFA90EE66E06
:10056C00E3C000F0E4C001F099DDE7C000F0E8C0A2
:10057C0001F094DD0050000A01E1F7D780941200DD
:10058C00C9C000F0CAC001F089DD005201E135D1CB
:10059C00CFC000F0D0C001F081DD00C0D4F011D18B
:1005AC000001D451960A03E1020ECE6FD76B25D110
:1005BC00D4C0D5F0030ECE6F060E01013825E16EC6
:1005CC00000E3921E26ED4C0E6FF0001D451D71BD6
:1005DC0014D1800ED415016E0150000A23E1D4AD64
:1005EC000DD0060E01013825E16E000E3921E26EA8
:1005FC00010E0001D519006E00C0E6FFD4C0D6F084
:10060C00D451D71B030ED415016E01C0D3F0015089
:10061C00000A03E1050ECE6F04D0010ECD6F040E5F
:10062C00CE6F0CD0050E01013825E16E000E39217C
:10063C00E26EFF0EE66E010E0001CE6FDED0D451DD
:10064C00A90A0DE1050E01013825E16E000E3921D4
:10065C00E26EFF0EE66E010E0001CE6FCED0CD51D4
:10066C00D35D006E016A000E015A0050011013E0B8
:10067C00CD05006E016A000E015A005001013825AB
:10068C00E16E01503921E26ED4C0E6FF0001D45175
:10069C00D71BCD2B13D0CD05006E016A000E015A6D
:1006AC00005001013825E16E01503921E26ED4C0B1
:1006BC00E6FF050E0001CE6FD451D71B9ED0D71D7F
:1006CC00016E01C0D7F00150960A04E0D751A90A77
:1006DC0001E001D0D72BD751D41903E1060ECE6F10
:1006EC000CD0050E01013825E16E000E3921E26EA9
:1006FC00FF0EE66E010E0001CE6F7FD0D451A90A19
:10070C0043E1010ECE6F040E01013825E16E000E9F
:10071C003921E26EFF0EE66E030E3825E16E000EF7
:10072C003921E26ED3C0E6FF010E0001CD6FCD5131
:10073C00D35D29E3CDC001F0020E006E015004E040
:10074C0000360090FF0FFBD7D651001619E0CD05EF
:10075C00006E016A000E015A005001013825026E2C
:10076C0001503921036E02C0E9FF03C0EAFF010EFC
:10077C00EE18006E02C0E1FF03C0E2FF00C0E6FF0E
:10078C000001CD2BD4D70CD0050E01013825E16E1C
:10079C00000E3921E26EFF0EE66E010E0001CE6FE7
:1007AC002CD0050E01013825E16E000E3921E26EC8
:1007BC00FF0EE66E010E0001CE6F1FD0010ECE6F44
:1007CC001CD00001CE51010AD8B4EAD6CE51020A8F
:1007DC00D8B4EED6CE51030AD8B4FBD6CE51040A07
:1007EC00D8B42DD7CE51050AD8B469D7CE51060A44
:0C07FC0085E0CE51070AD5E0E1D71200DD
:1008080001012D6B0A0E2D5D0AE22D512B25E16E9B
:10081800000E2C21E26E300EE66E2D2BF3D72D51F3
:100828002B25E16E000E2C21E26EE66A2D07000EE4
:10083800006E2A1908E10050291905E1005028190D
:1008480002E12751000A3EE02D512B252E6F000EA4
:100858002C212F6F0A0E046E000E056E066E076EB1
:1008680027C100F028C101F029C102F02AC103F014
:1008780053DC08C000F009C001F00AC002F00BC048
:1008880003F0300E00262EC1E1FF2FC1E2FF00C0A9
:10089800E6FF2D070A0E046E000E056E066E076E43
:1008A80027C100F028C101F029C102F02AC103F0D4
:1008B80033DC00C027F101C028F102C029F103C0D0
:0608C8002AF1B5D7120071
:0C08CE0092948094010E0001CE6F120085
:1008DA00FF0E01011D6FFF0E1E6FFF0E1F6F216BB2
:1008EA00226B236B1D0E306F010E316F010E326FBA
:1008FA0027C133F186DD070E0C6E7D0E0D6E0D2EAF
:08090A00FED70C2EFCD71200F1
:0E091200939C939C938E818C819C818E12000D
:100920000900F5CFE6FF0006FBE10106F9E1120040
:10093000600E0001E36F000EE46F370EE56F010EED
:10094000E66F800ECF6F000ED06F000ED16F000EDD
:10095000D26F920EC96F000ECA6F000ECB6F000EE1
:10096000CC6F560EE76F000EE86F000EE96F000EB9
:10097000EA6FAC8A900EAB6E948E949C9EAA03D0C4
:08098000AECF00F0FBD712001E
:0E0988009392939293848182819281841200D3
:100996000101292B27C1E9FF28C1EAFF0101290727
:1009A600D8B41200EE50D8B41200006E00C030F178
:0809B60078EC00F0F3D7120009
:1009BE0027C130F178EC00F00D0E0101306F78ECAC
:0E09CE0000F00A0E0101306F78EC00F012000C
:1009DC0001012851010A02E12C0E271913E15F6A6B
:1009EC00260E5F5C0EE2EB0EE96E000EEA6E5F50B7
:1009FC00E926D8B0EA2AEECF30F160EC00F05F2A9D
:100A0C00EFD74DD001012851020A02E1580E2719E7
:100A1C0046E15E50000A15E1010E5E6E5F6A180E2B
:100A2C005F5C0EE2600EE96E000EEA6E5F50E92626
:100A3C00D8B0EA2AEECF30F160EC00F05F2AEFD7A5
:100A4C002ED05E50010A15E1020E5E6E5F6A180E22
:100A5C005F5C0EE2780EE96E000EEA6E5F50E926DE
:100A6C00D8B0EA2AEECF30F160EC00F05F2AEFD775
:100A7C0016D05E50020A13E15E6A5F6A180E5F5C64
:100A8C000EE2900EE96E000EEA6E5F50E926D8B0C9
:100A9C00EA2AEECF30F160EC00F05F2AEFD71200BB
:100AAC000101296B2A6B296B2A6B800E2A19006EA7
:100ABC00800E005C02E10B0E295D0EE22951272508
:100ACC00E96E2A512821EA6EEECF30F178EC00F075
:100ADC000101294B2A2BE9D70D0E306F78EC00F071
:0C0AEC000A0E0101306F78EC00F01200DF
:100AF800086A080E0C6E003408360450085ED8B038
:0E0B080002D00826D89000360C2EF5D7120029
:100B160098EC0AF00F0EC16E070EB46E929692987C
:100B2600809680982EDFF2DE94808290939A819A46
:100B3600B886020EB06E080EAF6EAC84F6DE030EFB
:100B46000B6E8A0E0C6E550E0D6E0D2EFED70C2EEC
:100B5600FCD70B2EFAD700000000B6DE030E0B6E94
:100B66008A0E0C6E550E0D6E0D2EFED70C2EFCD772
:100B76000B2EFAD7000000009D8A9D98F28CF28E0B
:100B860030C027F1A7DE36520DE08088410E0C6E8C
:100B9600EE0E0D6E0D2EFED70C2EFCD700008098A3
:100BA600366A356A2B50000806E2010E2C26000E26
:100BB6002D222E222F222F50000808E12E50000849
:100BC60005E12D50360802E12C50B00817E22C6AD8
:100BD6002D6A2E6A2F6A2B6A8096386A3E6A3F6AA9
:100BE600406A416A426A436A446A456A396A3A6AAD
:100BF6003B6A3C6A520E0101276FDEDE3552D8B4DD
:100C06001ED13652D8A41BD12B50000A5EE12C6AA5
:100C16002D6A2E6A2F6A3E6A3F6A406A416A80865A
:100C2600EB0EE16E000EE26E3850E126D8B0E22AF5
:100C3600690EE66E382A37C03DF0EB0EE16E000E07
:100C4600E26E3850E126D8B0E22A300E3724006E24
:100C560000C0E6FF382A31C000F0000E016E026EB9
:100C6600036E00503E2601503F22025040220350A0
:100C7600412232C005F0000E066E076E086E07C0F0
:100C860003F006C002F005C001F0006A00503E26DF
:100C960001503F22025040220350412233C005F04A
:100CA600000E066E076E086E06C003F005C002F061
:100CB600006A016A00503E2601503F22025040223F
:100CC60003504122010E2B6EB8D02B50010A39E198
:100CD60031C005F0000E066E076E086E05C003F003
:100CE600006A016A026A00503E2601503F22025005
:100CF60040220350412232C000F0000E016E026E07
:100D0600036E0050422601504322025044220350F3
:100D1600452233C005F0000E066E076E086E07C04A
:100D260003F006C002F005C001F0006A005042263A
:100D3600015043220250442203504522020E2B6EDC
:100D46007CD02B50020A38E131C005F0000E066E49
:100D5600076E086E06C003F005C002F0006A016A5D
:100D6600005042260150432202504422035045229D
:100D760032C005F0000E066E076E086E05C003F061
:100D8600006A016A026A005042260150432202505C
:100D960044220350452233C000F0000E016E026E5D
:100DA600036E0050392601503A2202503B2203506E
:100DB6003C22030E2B6E41D02B50030A3EE132C07B
:100DC60005F0000E066E076E086E07C003F006C03B
:100DD60002F005C001F0006A0050392601503A229F
:100DE60002503B2203503C2233C005F0000E066E33
:100DF600076E086E06C003F005C002F0006A016ABD
:100E06000050392601503A2202503B2203503C2220
:100E160032C005F0000E066E076E086E05C003F0C0
:100E2600006A016A026A0050392601503A220250CD
:100E36003B2203503C22040E2B6E356A376A2B5038
:100E4600040AD8A4EFD080963EC027F13FC028F10F
:100E560040C029F141C02AF1B30E01012B6F000EEB
:100E66002C6FCFDC42C027F143C028F144C029F1E2
:100E760045C02AF1BE0E2B6F000E2C6FC2DC39C0A6
:100E860027F13AC028F13BC029F13CC02AF1A80E4F
:100E96002B6F000E2C6FB5DCEB0EE16E000EE26ED2
:100EA6003850E126D8B0E22A450EE66E382A5F6A47
:100EB6000A0E5F5C15E2EB0EE16E000EE26E385034
:100EC600E126D8B0E22AB30EE96E000EEA6E5F5054
:100ED600E926D8B0EA2AEECFE6FF382A5F2AE8D715
:100EE600EB0EE16E000EE26E3850E126D8B0E22A33
:100EF600530EE66E382A5F6A0A0E5F5C15E2EB0E49
:100F0600E16E000EE26E3850E126D8B0E22ABE0E3F
:100F1600E96E000EEA6E5F50E926D8B0EA2AEECFF7
:100F2600E6FF382A5F2AE8D7EB0EE16E000EE26E86
:100F36003850E126D8B0E22A420EE66E382A5F6AB9
:100F46000A0E5F5C15E2EB0EE16E000EE26E3850A3
:100F5600E126D8B0E22AA80EE96E000EEA6E5F50CE
:100F6600E926D8B0EA2AEECFE6FF382A5F2AE8D784
:100F76000101EB0EE16E000EE26E3850E126D8B0AC
:100F8600E22A560EE66E382AEB0EE16E000EE26E8F
:100F96003850E126D8B0E22A1DC0E6FF382AEB0E0B
:100FA600E16E000EE26E3850E126D8B0E22A230E3A
:100FB600E66E382AEB0E276F000E286F260E296F75
:100FC600E7DC0D0E0101306F78EC00F00A0E01012E
:100FD600306F78EC00F02C0E0101276F010E286FA0
:100FE600FADC2B6A386A3E6A3F6A406A416A426A9C
:100FF600436A446A456A396A3A6A3B6A3C6A2C6AB9
:101006002D6A2E6A2F6A256A266A276A286A1E6A48
:101016001F6A206A216A296A2A6A010E226E000E58
:10102600236EA1D1010E1E26000E1F222022212290
:101036002150000808E12050020805E11F5022084F
:1010460002E11E50E008D8B08ED130500A0A03E102
:101056001E0E246E0BD03050140A03E10A0E246EC5
:1010660005D030501E0A02E1140E246E310E000126
:10107600D86F300E4E24D96F320EDA6F300E4624FA
:10108600DB6F330EDC6F300E4A24DD6F200EDE6F11
:10109600530EDF6F0A0E046E24C000F02ADD300EF8
:1010A6000024E06F200EE16F300E2524E26FD80E8B
:1010B6000101276F000E286FF6DC1E6A1F6A206A80
:1010C600216A010E2526000E2622272228222850D4
:1010D600000808E12750000805E12650000802E153
:1010E60025500908D8B0B2D024500A0A37E1010EBB
:1010F6004E26000E4F22502251225150000808E180
:101106005050000805E14F50000802E14E50040817
:1011160024E21D82460E0001D86F410ED96F4C0E97
:10112600DA6F4C0EDB6F410EDC6F200EDD6F450E65
:10113600DE6F4E0EDF6F200EE06F530EE16F0A0E6C
:10114600046E24C000F0D5DC300E0024E26FD80E09
:101156000101276F000E286FA6DC73D02450140AF5
:1011660037E1010E4626000E472248224922495001
:10117600000808E14850000805E14750000802E170
:101186004650040824E21D84460E0001D86F410E25
:10119600D96F4C0EDA6F4C0EDB6F410EDC6F200EF2
:1011A600DD6F450EDE6F4E0EDF6F200EE06F530EC5
:1011B600E16F0A0E046E24C000F09BDC300E0024A2
:1011C600E26FD80E0101276F000E286F6CDC39D054
:1011D60024501E0A36E1010E4A26000E4B224C22EE
:1011E6004D224D50000808E14C50000805E14B50D7
:1011F600000802E14A50040824E21D86460E00015A
:10120600D86F410ED96F4C0EDA6F4C0EDB6F410E64
:10121600DC6F200EDD6F450EDE6F4E0EDF6F200E8B
:10122600E06F530EE16F0A0E046E24C000F061DC1D
:10123600300E0024E26FD80E0101276F000E286FD2
:1012460032DC256A266A276A286A8DD02250231046
:10125600D8B489D024500A0A2AE14E6A4F6A506AE5
:10126600516A1D92520E0001D86F450ED96F530E6A
:10127600DA6F450EDB6F540EDC6F200EDD6F530EFA
:10128600DE6F200EDF6F200EE06F200EE16F0A0E7C
:10129600046E24C000F02DDC300E0024E26FD80E60
:1012A6000101276F000E286F56EC05F05AD0245026
:1012B600140A2AE1466A476A486A496A1D94520E28
:1012C6000001D86F450ED96F530EDA6F450EDB6FEE
:1012D600540EDC6F200EDD6F530EDE6F200EDF6FB7
:1012E600200EE06F200EE16F0A0E046E24C000F09F
:1012F60000DC300E0024E26FD80E0101276F000ECD
:10130600286F56EC05F02DD024501E0A2AE14A6AB1
:101316004B6A4C6A4D6A1D96520E0001D86F450EF7
:10132600D96F530EDA6F450EDB6F540EDC6F200E4D
:10133600DD6F530EDE6F200EDF6F200EE06F200E86
:10134600E16F0A0E046E24C000F07CEC05F0300E4E
:101356000024E26FD80E0101276F000E286F56ECAD
:1013660005F0226A236A010E5226000E53225422E9
:1013760055225550000808E15450150805E1535010
:101386005C0802E15250C00837E2526A536A546A56
:10139600556A450E0001D86F530ED96F430EDA6FAA
:1013A6004C0EDB6F410EDC6F560EDD6F4F0EDE6F9F
:1013B600200EDF6F3E0EE06F200EE16F0A0E046E08
:1013C60030C000F07CEC05F0300E0024E26FD80E41
:1013D6000101276F000E286F56EC05F030C027F18B
:1013E6006DEC04F00A0E3024016E01C030F001509D
:1013F6001E0802E20A0E306E010E5626000E572215
:10140600582259225950000808E15850150805E19C
:1014160057505C0802E15650C00804E2566A576A03
:10142600586A596A82A033D0010E5A26000E5B22F2
:101436005C225D225D50000808E15C50080805E169
:101446005B503E0802E15A50640820E281BA1ED081
:101456005A6A5B6A5C6A5D6A818A4F0E0101306F67
:1014660078EC00F0460E0101306F78EC00F0460E85
:101476000101306F78EC00F00D0E0101306F78EC51
:1014860000F00A0E0101306F78EC00F005D05A6AC0
:0E1496005B6A5C6A5D6A819AC6EF05F0FFD75B
:1015300010EE1DF08B0E006E010E016EA40EF66E05
:0E154000140EF76E000EF86E90EC04F0120020
:0114A4004106
:0414A5000000000043
:0214A900000041
:0114AB000040
:0414AC00000000003C
:0214B00000003A
:0114B2000039
:0414B3000000000035
:0114B7000A2A
:0714B800000000000000002D
:0114BF00002C
:0414C0000000000028
:0114C4000027
:0414C5000000000023
:0414C900000000001F
:0414CD00000000001B
:0414D1000000000017
:0414D5000000000013
:0414D900000000000F
:0414DD00000000000B
:0414E1000000000007
:0114E5000006
:0114E6000005
:1014E7007261736572636F6D2E5253432C313030C6
:0814F70030303030302C0D0ABA
:1014FF007261736572636F6D2E5253432C323030AD
:08150F0030303030302C0D0AA1
:101517007261736572636F6D2E5253432C33303093
:0815270030303030302C0D0A89
:020000040030CA
:0E000000000C1E1EFF8381FF0FC00FE00F409B
:00000001FF
