:04000000E4EF04F035
:1000080000C018F001C017F002C016F003C015F0C8
:10001800E1CF1BF0E2CF1CF0E9CF19F0EACF1AF0DC
:10002800240E0001F36F000EF46F94DA18C000F08C
:1000380017C001F016C002F015C003F019C0E9FF9F
:0E0048001AC0EAFF1BC0E1FF1CC0E2FF11005E
:0A005600000EACB2010E006E1200A5
:0E006000ACB202D00000FCD7F2C0ADFF12001F
:10006E00F2C0C9FFC7B002D00000FCD7C9CF00F064
:02007E0012006E
:0A008000000E9EBA010E006E120081
:10008A00AECF01F0ABA202D0AB98AB8801C000F0B2
:02009A00120052
:0C009C0000000000000000000000120046
:1000A800F250026EF29E0500FF6A0150FE6E00508B
:0800B800FD6E02BEF28E120083
:1000C0000B6A0A6A096A086A0E6A03340836045021
:1000D000085E0550D8A0053C095E0650D8A0063C35
:1000E0000A5E0750D8A0073C0B5EE86AD8A0010E54
:1000F0000E5E0336070E0C6E0334083609360A36D8
:100100000B360E36045003A012D0085E0550D8A05E
:10011000053C095E0650D8A0063C0A5E0750D8A0F0
:10012000073C0B5EE86AD8A0010E0E5E11D00826CF
:100130000550D8B0053C09260650D8B0063C0A2622
:100140000750D8B0073C0B26E86AD8B0010E0E263F
:1001500003360C2ED1D70234083609360A360B3650
:100160000E36045003A012D0085E0550D8A0053CFE
:10017000095E0650D8A0063C0A5E0750D8A0073C8E
:100180000B5EE86AD8A0010E0E5E11D0082605505D
:10019000D8B0053C09260650D8B0063C0A260750C0
:1001A000D8B0073C0B26E86AD8B0010E0E260236FE
:1001B000070E0C6E0234083609360A360B360E3638
:1001C000045002A012D0085E0550D8A0053C095E7C
:1001D0000650D8A0063C0A5E0750D8A0073C0B5E2C
:1001E000E86AD8A0010E0E5E11D008260550D8B0DE
:1001F000053C09260650D8B0063C0A260750D8B060
:10020000073C0B26E86AD8B0010E0E2602360C2EEB
:10021000D1D70134083609360A360B360E3604506B
:1002200002A012D0085E0550D8A0053C095E065019
:10023000D8A0063C0A5E0750D8A0073C0B5EE86ACF
:10024000D8A0010E0E5E11D008260550D8B0053C8E
:1002500009260650D8B0063C0A260750D8B0073CFD
:100260000B26E86AD8B0010E0E260136070E0C6E7A
:100270000134083609360A360B360E36045001A012
:1002800012D0085E0550D8A0053C095E0650D8A0E3
:10029000063C0A5E0750D8A0073C0B5EE86AD8A06F
:1002A000010E0E5E11D008260550D8B0053C092677
:1002B0000650D8B0063C0A260750D8B0073C0B269B
:1002C000E86AD8B0010E0E2601360C2ED1D70034C4
:1002D000083609360A360B360E36045001A012D005
:1002E000085E0550D8A0053C095E0650D8A0063C23
:1002F0000A5E0750D8A0073C0B5EE86AD8A0010E42
:100300000E5E11D008260550D8B0053C09260650CF
:10031000D8B0063C0A260750D8B0073C0B26E86A3E
:10032000D8B0010E0E260036070E0C6E00340836CB
:1003300009360A360B360E36045000A012D0085E7D
:100340000550D8A0053C095E0650D8A0063C0A5EC0
:100350000750D8A0073C0B5EE86AD8A0010E0E5EDD
:1003600011D008260550D8B0053C09260650D8B053
:10037000063C0A260750D8B0073C0B26E86AD8B0DE
:10038000010E0E2600360C2ED1D700B00ED0045030
:1003900008260550D8B0053C09260650D8B0063CC2
:0C03A0000A260750D8B0073C0B261200BC
:1003AC008084EDC0F1F0D6C0E1FFD7C0E2FF960E1D
:1003BC00E66ED4C000F0D5C001F070DE0001EE5145
:1003CC00960A04E0EE51A90A01E002D0EE71ED8D1F
:1003DC00D6C0E1FFD7C0E2FFEEC0E6FFD4C000F00C
:1003EC00D5C001F05BDE0001F107EF6BEF51F15D61
:1003FC0034E3EF51EB25E96E000EEC21EA6EEE5082
:10040C00960A0AE0EF51EB25E96E000EEC21EA6E3C
:10041C00EE50A90A01E01FD0EF51EB25016E000E42
:10042C00EC21026E01C0E9FF02C0EAFF010EEE18DA
:10043C00006E01C0E1FF02C0E2FF00C0E6FFEFC0AA
:10044C0001F0040E006E015004E000360090FF0F26
:10045C00FBD70050ED13EF2BC9D7800EED11006EBA
:10046C0000C0EDF0D6C0E1FFD7C0E2FF00C0E6FF50
:10047C00D4C000F0D5C001F011DE0001EE51ED1931
:10048C00F06FEF6BEF51F15D1EE3EF51EB25006E5A
:10049C00000EEC21016E00C0D9FF01C0DAFFDE5066
:1004AC00F01BD6C0E1FFD7C0E2FF00C0E9FF01C0DE
:1004BC00EAFFEECFE6FFD4C000F0D5C001F0EEDDD0
:1004CC000001EF2BDFD7F01D016E01C0F0F00150E1
:1004DC00960A04E0F051A90A01E001D0F02BD6C035
:1004EC00E1FFD7C0E2FFF0C0E6FFD4C000F0D5C0FA
:1004FC0001F0D4DDD6C0E1FFD7C0E2FFA90EE66E55
:10050C00D4C000F0D5C001F0C9DDD0C000F0D1C01E
:10051C0001F0C4DD0050000A01E1F7D7809412000D
:10052C008182B6DD0B0E006E0DD0A90E026E022E6E
:10053C00FED700000001EB33EB9FEB8FD8A002D06D
:10054C00818202D08192000000060052EEE112007E
:10055C00C3C000F0C4C001F0A1DD005201E11FD105
:10056C00CCC000F0CDC001F099DD00C0C9F0FBD0CB
:10057C000001C951960A03E1020ECB6FCA6B0FD171
:10058C00C9C0C8F0030ECB6F060EF325E16E000E4A
:10059C00F421E26EC9C0E6FFC951CA1B00D1800E1E
:1005AC00C915016E0150000A21E1C9AD0BD0060E30
:1005BC00F325E16E000EF421E26E010EC819006EF7
:1005CC0000C0E6FFC9C0C7F0C951CA1B030EC9154C
:1005DC00016E01C0C1F00150000A03E1050ECB6FA2
:1005EC0004D0010EC26F040ECB6F0AD0050EF3259A
:1005FC00E16E000EF421E26EFF0EE66E010ECB6F83
:10060C00CED0C951A90A0BE1050EF325E16E000EFF
:10061C00F421E26EFF0EE66E010ECB6FC0D0C2511C
:10062C00C15D006E016A000E015A0050011011E00C
:10063C00C205006E016A000E015A0050F325E16EEE
:10064C000150F421E26EC9C0E6FFC951CA1BC22B8E
:10065C0011D0C205006E016A000E015A0050F3253C
:10066C00E16E0150F421E26EC9C0E6FF050ECB6FBE
:10067C00C951CA1B94D0CA1D016E01C0CAF00150E9
:10068C00960A04E0CA51A90A01E001D0CA2BCA514A
:10069C00C91903E1060ECB6F0AD0050EF325E16EE6
:1006AC00000EF421E26EFF0EE66E010ECB6F77D0DA
:1006BC00C951A90A3FE1010ECB6F040EF325E16E7F
:1006CC00000EF421E26EFF0EE66E030EF325E16ED2
:1006DC00000EF421E26EC1C0E6FF010EC26FC251E2
:1006EC00C15D27E3C2C001F0020E006E015004E0B0
:1006FC0000360090FF0FFBD7C751001618E0C2055B
:10070C00006E016A000E015A0050F325026E015072
:10071C00F421036E02C0E9FF03C0EAFF010EEE18DC
:10072C00006E02C0E1FF03C0E2FF00C0E6FFC22B77
:10073C00D6D70AD0050EF325E16E000EF421E26E39
:10074C00FF0EE66E010ECB6F2AD0050EF325E16E7F
:10075C00000EF421E26EFF0EE66E010ECB6F1FD081
:10076C00010ECB6F1CD00001CB51010AD8B400D7BD
:10077C00CB51020AD8B404D7CB51030AD8B40FD743
:10078C00CB51040AD8B43DD7CB51050AD8B473D792
:10079C00CB51060A8DE0CB51070AD7E0E1D7120006
:1007AC000001E86B0A0EE85D0AE2E851E625E16E0D
:1007BC00000EE721E26E300EE66EE82BF3D7E8511F
:1007CC00E625E16E000EE721E26EE66AE807000E10
:1007DC00006EE51908E10050E41905E10050E31939
:1007EC0002E1E251000A3EE0E851E625E96F000E15
:1007FC00E721EA6F0A0E046E000E056E066E076E98
:10080C00E2C000F0E3C001F0E4C002F0E5C003F088
:10081C0051DC08C000F009C001F00AC002F00BC0A6
:10082C0003F0300E0026E9C0E1FFEAC0E2FF00C091
:10083C00E6FFE8070A0E046E000E056E066E076EE4
:10084C00E2C000F0E3C001F0E4C002F0E5C003F048
:10085C0031DC00C0E2F001C0E3F002C0E4F003C000
:06086C00E5F0B5D7120013
:10087200600E0001D46F000ED56FF20ED66F000E1F
:10088200D76F8A0ECC6F000ECD6F000ECE6F000EAA
:10089200CF6F800EC36F000EC46F000EC56F000EC7
:1008A200C66F560ED06F000ED16F000ED26F000EC3
:1008B200D36FAC8A900EAB6E948E949C9EAA03D09A
:0808C200AECF00F0FBD71200DD
:0C08CA0092948094010E0001CB6F12008C
:1008D6000900F5CFE6FF0006FBE10106F9E112008B
:0E08E600939293929384818281928184120076
:0E08F400939C939C938E818C819C818E12002C
:100902000001E42BE2C0E9FFE3C0EAFF0001E407D3
:10091200D8B41200EE50D8B41200006E00C0EBF052
:0609220004DEF4D7120010
:10092800E2C0EBF0FFDD0D0E0001EB6FFBDD0A0E00
:080938000001EB6FF7DD120076
:10094000818C4EEC00F00B0E006E0DD0A90E026EE5
:10095000022EFED700000001E233E29FE28FD8A012
:1009600002D0818C02D0819C000000060052EEE192
:02097000120073
:10097200FF0E0001D86FFF0ED96FFF0EDA6FDC6B2E
:10098200DD6BDE6BD80EEB6F000EEC6F010EED6FC0
:10099200E2C0EEF00ADD070E0C6E7D0E0D6E0D2E1E
:0809A200FED70C2EFCD7120059
:1009AA00086A080E0C6E003408360450085ED8B087
:0E09BA0002D00826D89000360C2EF5D7120079
:1009C800F3EC07F00F0EC16E070EB46E9296929874
:1009D8008096809884DF8ADF94808290939A819AA7
:1009E800B886020EB06E080EAF6EAC843EDF030E02
:1009F8000B6E8A0E0C6E550E0D6E0D2EFED70C2E3C
:100A0800FCD70B2EFAD7000000005BDF030E0B6E3D
:100A18008A0E0C6E550E0D6E0D2EFED70C2EFCD7C1
:100A28000B2EFAD7000000009D8A9D98F28CF28E5A
:100A38002BC0E2F09ADF29520DE08088410E0C6E3F
:100A4800EE0E0D6E0D2EFED70C2EFCD700008098F2
:100A5800296A286A2350000806E2010E2C26000E97
:100A68002D222E222F222F50000808E12E50000898
:100A780005E12D50360802E12C50B00817E22C6A27
:100A88002D6A2E6A2F6A236A8096386A346A356A14
:100A9800366A376A306A316A326A336A1E6A1F6A8E
:100AA800206A216A520E0001E26F3ADF2852D8B458
:100AB8001ED12952D8A41BD12350000A5EE12C6A0A
:100AC8002D6A2E6A2F6A346A356A366A376A8086D2
:100AD8006E0EE16E000EE26E3850E126D8B0E22AC2
:100AE800690EE66E382A2AC01DF06E0EE16E000E01
:100AF800E26E3850E126D8B0E22A300E2A24006E81
:100B080000C0E6FF382A24C000F0000E016E026E15
:100B1800036E00503426015035220250362203500D
:100B2800372225C005F0000E066E076E086E07C056
:100B380003F006C002F005C001F0006A0050342638
:100B480001503522025036220350372226C005F0C4
:100B5800000E066E076E086E06C003F005C002F0B0
:100B6800006A016A005034260150352202503622AC
:100B780003503722010E236EB8D02350010A39E101
:100B880024C005F0000E066E076E086E05C003F05F
:100B9800006A016A026A0050342601503522025068
:100BA80036220350372225C000F0000E016E026E77
:100BB800036E005030260150312202503222035079
:100BC800332226C005F0000E066E076E086E07C0B9
:100BD80003F006C002F005C001F0006A005030269C
:100BE800015031220250322203503322020E236E6A
:100BF8007CD02350020A38E124C005F0000E066EAE
:100C0800076E086E06C003F005C002F0006A016AAC
:100C18000050302601503122025032220350332234
:100C280025C005F0000E066E076E086E05C003F0BD
:100C3800006A016A026A00503026015031220250CF
:100C480032220350332226C000F0000E016E026EDD
:100C5800036E00501E2601501F220250202203500E
:100C68002122030E236E41D02350030A3EE125C002
:100C780005F0000E066E076E086E07C003F006C08A
:100C880002F005C001F0006A00501E2601501F2224
:100C9800025020220350212226C005F0000E066EC5
:100CA800076E086E06C003F005C002F0006A016A0C
:100CB80000501E2601501F220250202203502122DC
:100CC80025C005F0000E066E076E086E05C003F01D
:100CD800006A016A026A00501E2601501F22025053
:100CE800202203502122040E236E286A2A6A2350E8
:100CF800040AD8A415D1809634C0E2F035C0E3F0D8
:100D080036C0E4F037C0E5F0A00E0001E66F000E33
:100D1800E76F48DD30C0E2F031C0E3F032C0E4F004
:100D280033C0E5F0B60EE66F000EE76F3BDD1EC080
:100D3800E2F01FC0E3F020C0E4F021C0E5F0AB0E04
:100D4800E66F000EE76F2EDD6E0EE16E000EE26EAE
:100D58003850E126D8B0E22A450EE66E382A226AD3
:100D68000A0E225C15E26E0EE16E000EE26E38503D
:100D7800E126D8B0E22AA00EE96E000EEA6E2250F3
:100D8800E926D8B0EA2AEECFE6FF382A222AE8D7A1
:100D98006E0EE16E000EE26E3850E126D8B0E22AFF
:100DA800530EE66E382A226A0A0E225C15E26E0E8F
:100DB800E16E000EE26E3850E126D8B0E22AB60E97
:100DC800E96E000EEA6E2250E926D8B0EA2AEECF84
:100DD800E6FF382A222AE8D76E0EE16E000EE26E90
:100DE8003850E126D8B0E22A420EE66E382A226A46
:100DF8000A0E225C15E26E0EE16E000EE26E3850AD
:100E0800E126D8B0E22AAB0EE96E000EEA6E225057
:100E1800E926D8B0EA2AEECFE6FF382A222AE8D710
:100E280000016E0EE16E000EE26E3850E126D8B079
:100E3800E22A230EE66E382A6E0EE26F000EE36F8A
:100E4800240EE46F5ADD0D0E0001EB6F96EC02F0F4
:100E58000A0E0001EB6F96EC02F0226A240E225C67
:100E68000DE26E0EE96E000EEA6E2250E926D8B049
:100E7800EA2AEECFE2F060DD222AF0D71D500A0AF6
:100E88001DE1030E226E0A0E225C18E222500B0F9F
:100E9800006E016A000E0122390E0024E16E000E78
:100EA8000120E26EA00EE96E000EEA6E2250E926DD
:100EB800D8B0EA2AEECFE6FF222AE5D71D50140A59
:100EC8001DE1030E226E0A0E225C18E222500B0F5F
:100ED800006E016A000E0122560E0024E16E000E1B
:100EE8000120E26EA00EE96E000EEA6E2250E9269D
:100EF800D8B0EA2AEECFE6FF222AE5D7236A386A75
:100F0800346A356A366A376A306A316A326A336AED
:100F18001E6A1F6A206A216A2C6A2D6A2E6A2F6A45
:100F2800010E5226000E5322542255225550000815
:100F380008E154502A0805E15350B90802E152501B
:100F4800800822E2526A536A546A556A5150000A6C
:100F580003E1010E516E01D0516A0A0E046E2BC0D6
:100F680000F01FDD300E00240001E26FD9DC2BC039
:100F7800E2F0FBDC0A0E2B24016E01C02BF00150BD
:0C0F88001E0802E20A0E2B6E56D5FFD7A1
:100FE60010EE1DF0510E006E010E016E940EF66E9F
:0E0FF6000F0EF76E000EF86E6BEC04F012009A
:010F9400005C
:040F95000000000058
:010F99000057
:010F9A000056
:070F9B00000000000000004F
:010FA2000A44
:040FA300000000004A
:040FA7000000000046
:040FAB000000000042
:010FAF000041
:100FB0007261736572636F6D2E5253432C31303002
:080FC00030303030302C0D0AF6
:010FC8000028
:040FC9000000000024
:100FCD007261736572636F6D2E5253432C323030E4
:080FDD0030303030302C0D0AD9
:020000040030CA
:0E000000000C1E1EFF8381FF0FC00FE00F409B
:00000001FF
