:0400000068EF05F0B0
:1000080000C018F001C017F002C016F003C015F0C8
:10001800E1CF1BF0E2CF1CF0E9CF19F0EACF1AF0DC
:10002800610E0101136F000E146FACDA18C000F0F6
:1000380017C001F016C002F015C003F019C0E9FF9F
:0E0048001AC0EAFF1BC0E1FF1CC0E2FF11005E
:0A005600000EACB2010E006E1200A5
:0E006000ACB202D00000FCD712C1ADFF1200FE
:10006E0012C1C9FFC7B002D00000FCD7C9CF00F043
:02007E0012006E
:10008000AECF01F0ABA202D0AB98AB8801C000F0BC
:0200900012005C
:0A009200000E9EBA010E006E12006F
:0C009C0000000000000000000000120046
:1000A800F250026EF29E0500FF6A0150FE6E00508B
:0800B800FD6E02BEF28E120083
:1000C0000B6A0A6A096A086A0E6A03340836045021
:1000D000085E0550D8A0053C095E0650D8A0063C35
:1000E0000A5E0750D8A0073C0B5EE86AD8A0010E54
:1000F0000E5E0336070E0C6E0334083609360A36D8
:100100000B360E36045003A012D0085E0550D8A05E
:10011000053C095E0650D8A0063C0A5E0750D8A0F0
:10012000073C0B5EE86AD8A0010E0E5E11D00826CF
:100130000550D8B0053C09260650D8B0063C0A2622
:100140000750D8B0073C0B26E86AD8B0010E0E263F
:1001500003360C2ED1D70234083609360A360B3650
:100160000E36045003A012D0085E0550D8A0053CFE
:10017000095E0650D8A0063C0A5E0750D8A0073C8E
:100180000B5EE86AD8A0010E0E5E11D0082605505D
:10019000D8B0053C09260650D8B0063C0A260750C0
:1001A000D8B0073C0B26E86AD8B0010E0E260236FE
:1001B000070E0C6E0234083609360A360B360E3638
:1001C000045002A012D0085E0550D8A0053C095E7C
:1001D0000650D8A0063C0A5E0750D8A0073C0B5E2C
:1001E000E86AD8A0010E0E5E11D008260550D8B0DE
:1001F000053C09260650D8B0063C0A260750D8B060
:10020000073C0B26E86AD8B0010E0E2602360C2EEB
:10021000D1D70134083609360A360B360E3604506B
:1002200002A012D0085E0550D8A0053C095E065019
:10023000D8A0063C0A5E0750D8A0073C0B5EE86ACF
:10024000D8A0010E0E5E11D008260550D8B0053C8E
:1002500009260650D8B0063C0A260750D8B0073CFD
:100260000B26E86AD8B0010E0E260136070E0C6E7A
:100270000134083609360A360B360E36045001A012
:1002800012D0085E0550D8A0053C095E0650D8A0E3
:10029000063C0A5E0750D8A0073C0B5EE86AD8A06F
:1002A000010E0E5E11D008260550D8B0053C092677
:1002B0000650D8B0063C0A260750D8B0073C0B269B
:1002C000E86AD8B0010E0E2601360C2ED1D70034C4
:1002D000083609360A360B360E36045001A012D005
:1002E000085E0550D8A0053C095E0650D8A0063C23
:1002F0000A5E0750D8A0073C0B5EE86AD8A0010E42
:100300000E5E11D008260550D8B0053C09260650CF
:10031000D8B0063C0A260750D8B0073C0B26E86A3E
:10032000D8B0010E0E260036070E0C6E00340836CB
:1003300009360A360B360E36045000A012D0085E7D
:100340000550D8A0053C095E0650D8A0063C0A5EC0
:100350000750D8A0073C0B5EE86AD8A0010E0E5EDD
:1003600011D008260550D8B0053C09260650D8B053
:10037000063C0A260750D8B0073C0B26E86AD8B0DE
:10038000010E0E2600360C2ED1D700B00ED0045030
:1003900008260550D8B0053C09260650D8B0063CC2
:0C03A0000A260750D8B0073C0B261200BC
:1003AC00818C76DE0B0E006E0DD0A90E026E022E25
:1003BC00FED7000001010B330B9F0B8FD8A002D08E
:1003CC00818C02D0819C000000060052EEE11200EC
:1003DC0081825EDE0B0E006E0DD0A90E026E022E17
:1003EC00FED7000001010B330B9F0B8FD8A002D05E
:1003FC00818202D08192000000060052EEE11200D0
:10040C0080840DC111F1F5C0E1FFF6C0E2FF960E3C
:10041C00E66EF3C000F0F4C001F040DE01010E51B5
:10042C00960A04E00E51A90A01E002D00E710D8D5E
:10043C00F5C0E1FFF6C0E2FF0EC1E6FFF3C000F02D
:10044C00F4C001F02BDE010111070F6B0F51115D90
:10045C0034E30F510B25E96E000E0C21EA6EEE50C1
:10046C00960A0AE00F510B25E96E000E0C21EA6E7C
:10047C00EE50A90A01E01FD00F510B25016E000EA2
:10048C000C21026E01C0E9FF02C0EAFF010EEE185A
:10049C00006E01C0E1FF02C0E2FF00C0E6FF0FC129
:1004AC0001F0040E006E015004E000360090FF0FC6
:1004BC00FBD700500D130F2BC9D7800E0D11006EFA
:1004CC0000C00DF1F5C0E1FFF6C0E2FF00C0E6FF91
:1004DC00F3C000F0F4C001F0E1DD01010E510D1983
:1004EC00106F0F6B0F51115D1EE30F510B25006E3A
:1004FC00000E0C21016E00C0D9FF01C0DAFFDE50E6
:10050C00101BF5C0E1FFF6C0E2FF00C0E9FF01C01F
:10051C00EAFFEECFE6FFF3C000F0F4C001F0BEDD61
:10052C0001010F2BDFD7101D016E01C010F101501E
:10053C00960A04E01051A90A01E001D0102BF5C075
:10054C00E1FFF6C0E2FF10C1E6FFF3C000F0F4C01B
:10055C0001F0A4DDF5C0E1FFF6C0E2FFA90EE66EE6
:10056C00F3C000F0F4C001F099DDEFC000F0F0C072
:10057C0001F094DD0050000A01E1F7D780941200DD
:10058C00D8C000F0D9C001F089DD005201E135D1AD
:10059C00E0C000F0E1C001F081DD00C0DEF011D15F
:1005AC000001DE51960A03E1020EF76FDF6B25D1D5
:1005BC00DEC0DDF0030EF76F060E01011325E16EB0
:1005CC00000E1421E26EDEC0E6FF0001DE51DF1BDF
:1005DC0014D1800EDE15016E0150000A23E1DEAD50
:1005EC000DD0060E01011325E16E000E1421E26EF2
:1005FC00010E0001DD19006E00C0E6FFDEC0DCF06C
:10060C00DE51DF1B030EDE15016E01C0D6F001506A
:10061C00000A03E1050EF76F04D0010ED76F040E2C
:10062C00F76F0CD0050E01011325E16E000E14219D
:10063C00E26EFF0EE66E010E0001F76FDED0DE51AA
:10064C00A90A0DE1050E01011325E16E000E14211E
:10065C00E26EFF0EE66E010E0001F76FCED0D751A1
:10066C00D65D006E016A000E015A0050011013E0B5
:10067C00D705006E016A000E015A005001011325C6
:10068C00E16E01501421E26EDEC0E6FF0001DE5186
:10069C00DF1BD72B13D0D705006E016A000E015A51
:1006AC00005001011325E16E01501421E26EDEC0F1
:1006BC00E6FF050E0001F76FDE51DF1B9ED0DF1D3C
:1006CC00016E01C0DFF00150960A04E0DF51A90A67
:1006DC0001E001D0DF2BDF51DE1903E1060EF76FCD
:1006EC000CD0050E01011325E16E000E1421E26EF3
:1006FC00FF0EE66E010E0001F76F7FD0DE51A90AE6
:10070C0043E1010EF76F040E01011325E16E000E9B
:10071C001421E26EFF0EE66E030E1325E16E000E41
:10072C001421E26ED6C0E6FF010E0001D76FD7513F
:10073C00D65D29E3D7C001F0020E006E015004E033
:10074C0000360090FF0FFBD7DC51001619E0D705DF
:10075C00006E016A000E015A005001011325026E51
:10076C0001501421036E02C0E9FF03C0EAFF010E21
:10077C00EE18006E02C0E1FF03C0E2FF00C0E6FF0E
:10078C000001D72BD4D70CD0050E01011325E16E37
:10079C00000E1421E26EFF0EE66E010E0001F76FE3
:1007AC002CD0050E01011325E16E000E1421E26E12
:1007BC00FF0EE66E010E0001F76F1FD0010EF76FF2
:1007CC001CD00001F751010AD8B4EAD6F751020A3D
:1007DC00D8B4EED6F751030AD8B4FBD6F751040AB5
:1007EC00D8B42DD7F751050AD8B469D7F751060AF2
:0C07FC0085E0F751070AD5E0E1D71200B4
:0C08080092948094010E0001F76F120022
:10081400600E0001F36F000EF46F120EF56F010EFF
:10082400F66F800EE06F000EE16F000EE26F000EB7
:10083400E36F920ED86F000ED96F000EDA6F000EC0
:10084400DB6F560EEF6F000EF06F000EF16F000EAF
:10085400F26FAC8A900EAB6E948E949C9EAA03D0D9
:08086400AECF00F0FBD712003B
:10086C000900F5CFE6FF0006FBE10106F9E11200F5
:0E087C009392939293848182819281841200E0
:0E088A00939C939C938E818C819C818E120096
:10089800FF0E0001F86FFF0EF96FFF0EFA6FFC6B89
:1008A800FD6BFE6BF80E01010B6F000E0C6F010E55
:1008B8000D6F02C10EF1A6DD070E0C6E7D0E0D6EDA
:0A08C8000D2EFED70C2EFCD71200F7
:1008D20002C10BF182DD0D0E01010B6F7EDD0A0EEE
:0808E20001010B6F7ADD120029
:1008EA000101086B0A0E085D0AE208510625E16E4D
:1008FA00000E0721E26E300EE66E082BF3D7085180
:10090A000625E16E000E0721E26EE66A0807000E70
:10091A00006E051908E10050041905E10050031999
:10092A0002E10251000A40E008510625096F000E53
:10093A0007210A6F0A0E046E000E056E066E076E18
:10094A0002C100F003C101F004C102F005C103F0C5
:10095A0060EC00F008C000F009C001F00AC002F023
:10096A000BC003F0300E002609C1E1FF0AC1E2FF05
:10097A0000C0E6FF08070A0E046E000E056E066E3A
:10098A00076E02C100F003C101F004C102F005C103
:10099A0003F060EC00F000C002F101C003F102C0F4
:0A09AA0004F103C005F1B3D71200F9
:1009B4000101042B02C1E9FF03C1EAFF010104079D
:1009C400D8B41200EE50D8B41200006E00C00BF17F
:0609D40003DDF4D7120060
:1009DA00086A080E0C6E003408360450085ED8B057
:0E09EA0002D00826D89000360C2EF5D7120049
:1009F80001010351010A02E12C0E021914E1000160
:100A08008D6B240E8D5D0EE2990EE96E000EEA6E76
:100A18008D51E926D8B0EA2AEECF0BF1C3DC0001EC
:100A28008D2BEFD750D001010351020A02E1580E75
:100A3800021949E14850000A16E1010E486E00010A
:100A48008D6B180E8D5D0EE2300EE96E000EEA6EAB
:100A58008D51E926D8B0EA2AEECF0BF1A3DC0001CC
:100A68008D2BEFD730D04850010A16E10001020E55
:100A7800486E8D6B180E8D5D0EE2490EE96E000E04
:100A8800EA6E8D51E926D8B0EA2AEECF0BF18ADC5E
:100A980000018D2BEFD717D04850020A14E100014E
:100AA800486A8D6B180E8D5D0EE2690EE96E000EB8
:100AB800EA6E8D51E926D8B0EA2AEECF0BF172DC46
:080AC80000018D2BEFD7120095
:100AD0008CEC08F00F0EC16E070EB46E92969298D1
:100AE00080968098CBDED1DE94808290939A819A12
:100AF000B886020EB06E080EAF6EAC848BDE030EAD
:100B00000B6E8A0E0C6E550E0D6E0D2EFED70C2E32
:100B1000FCD70B2EFAD70000000076DE030E0B6E1A
:100B20008A0E0C6E550E0D6E0D2EFED70C2EFCD7B8
:100B30000B2EFAD7000000009D8A9D98F28CF28E51
:100B400068C002F1A9DE000166530DE08088410E05
:100B50000C6EEE0E0D6E0D2EFED70C2EFCD7000087
:100B60008098666B656B2F50000806E2010E222606
:100B7000000E2322242225222550000808E12450BB
:100B8000000805E12350360802E12250B00817E2C0
:100B9000226A236A246A256A2F6A8096216A1D6A5E
:100BA0001E6A1F6A206A266A276A286A296A2B6ACF
:100BB0002C6A2D6A2E6A520E0101026F8ADE000134
:100BC0006553D8B41FD16653D8A41CD12F50000A46
:100BD0005EE1226A236A246A256A1D6A1E6A1F6A08
:100BE000206A8086990EE16E000EE26E2150E126A9
:100BF000D8B0E22A690EE66E212A67C02AF0990E63
:100C0000E16E000EE26E2150E126D8B0E22A300EED
:100C10006725006E00C0E6FF212A61C000F0000ECB
:100C2000016E026E036E00501D2601501E220250FE
:100C30001F220350202262C005F0000E066E076ED0
:100C4000086E07C003F006C002F005C001F0006A9C
:100C500000501D2601501E2202501F220350202248
:100C600063C005F0000E066E076E086E06C003F046
:100C700005C002F0006A016A00501D2601501E22C4
:100C800002501F2203502022010E2F6EB8D02F5089
:100C9000010A39E161C005F0000E066E076E086EAC
:100CA00005C003F0006A016A026A00501D26015067
:100CB0001E2202501F220350202262C000F0000EAC
:100CC000016E026E036E005026260150272202504C
:100CD00028220350292263C005F0000E066E076E1D
:100CE000086E07C003F006C002F005C001F0006AFC
:100CF0000050262601502722025028220350292284
:100D0000020E2F6E7CD02F50020A38E161C005F030
:100D1000000E066E076E086E06C003F005C002F0F6
:100D2000006A016A0050262601502722025028221C
:100D30000350292262C005F0000E066E076E086E91
:100D400005C003F0006A016A026A005026260150BD
:100D50002722025028220350292263C000F0000EEF
:100D6000016E026E036E00502B2601502C220250A1
:100D70002D2203502E22030E2F6E41D02F50030A36
:100D80003EE162C005F0000E066E076E086E07C0F9
:100D900003F006C002F005C001F0006A00502B26E7
:100DA00001502C2202502D2203502E2263C005F048
:100DB000000E066E076E086E06C003F005C002F056
:100DC000006A016A00502B2601502C2202502D226D
:100DD00003502E2262C005F0000E066E076E086EEC
:100DE00005C003F0006A016A026A00502B26015018
:100DF0002C2202502D2203502E22040E2F6E0001B1
:100E0000656B676B2F50040AD8A4CBD080961DC0A9
:100E100002F11EC003F11FC004F120C005F18E0EC7
:100E20000101066F000E076F60DD26C002F127C0CA
:100E300003F128C004F129C005F1CB0E066F000EA6
:100E4000076F53DD2BC002F12CC003F12DC004F15C
:100E50002EC005F1E40E066F000E076F46DD990EF9
:100E6000E16E000EE26E2150E126D8B0E22A450E76
:100E7000E66E212A00018D6B0A0E8D5D15E2990E3A
:100E8000E16E000EE26E2150E126D8B0E22A8E0E0D
:100E9000E96E000EEA6E8D51E926D8B0EA2AEECF4F
:100EA000E6FF212A8D2BE8D7990EE16E000EE26E47
:100EB0002150E126D8B0E22A530EE66E212A8D6B2E
:100EC0000A0E8D5D15E2990EE16E000EE26E215064
:100ED000E126D8B0E22ACB0EE96E000EEA6E8D5103
:100EE000E926D8B0EA2AEECFE6FF212A8D2BE8D7F3
:100EF000990EE16E000EE26E2150E126D8B0E22A92
:100F0000420EE66E212A8D6B0A0E8D5D15E2990E5A
:100F1000E16E000EE26E2150E126D8B0E22AE40E26
:100F2000E96E000EEA6E8D51E926D8B0EA2AEECFBE
:100F3000E6FF212A8D2BE8D7990EE16E000EE26EB6
:100F40002150E126D8B0E22A230EE66E212A990E1E
:100F50000101026F000E036F240E046F2BDD0D0ED6
:100F600001010B6FEEEC01F00A0E01010B6FEEECCC
:100F700001F02C0E0101026F010E036F3DDD2F6A9F
:100F8000216A1D6A1E6A1F6A206A266A276A286A01
:100F9000296A2B6A2C6A2D6A2E6A226A236A246ABD
:100FA000256A010E00018527000E862387238823EA
:100FB0008851000808E18751060805E18651680854
:100FC00002E18551A0081CE2856B866B876B886BFC
:100FD0000A0E046E68C000F000DD300E002401012E
:100FE000026F77DC68C002F157DC0A0E0001682549
:100FF000016E01C068F001501E0802E20A0E686F1F
:10100000010E8127000E822383238423845100084C
:1010100008E183512A0805E18251B90802E18151B2
:10102000800804E2816B826B836B846B82A033D077
:10103000010E8927000E8A238B238C238C510008F4
:1010400008E18B51080805E18A513E0802E1895107
:10105000640820E281BA1ED0896B8A6B8B6B8C6B23
:10106000818A4F0E01010B6FEEEC01F0460E01017B
:101070000B6FEEEC01F0460E01010B6FEEEC01F090
:101080000D0E01010B6FEEEC01F00A0E01010B6F6A
:10109000EEEC01F006D00001896B8A6B8B6B8C6BD8
:0610A000819A51D5FFD733
:1011180010EE1DF0710E006E010E016EA60EF66E39
:0E112800100EF76E000EF86E36EC04F012009A
:0410A6000000000046
:0110AA000045
:0410AB000000000041
:0410AF00000000003D
:0110B300003C
:0410B4000000000038
:0110B8000037
:1010B9007261736572636F6D2E5253432C313030F8
:0810C90030303030302C0D0AEC
:0110D100001E
:1010D2007261736572636F6D2E5253432C323030DE
:0810E20030303030302C0D0AD3
:0710EA0000000000000000FF
:0110F1000AF4
:1010F2007261736572636F6D2E5253432C333030BD
:0811020030303030302C0D0AB2
:04110A0000000000E1
:04110E0000000000DD
:0411120000000000D9
:0111160000D8
:020000040030CA
:0E000000000C1E1EFF8381FF0FC00FE00F409B
:00000001FF
