:04000000CBEF05F04D
:1000080000C018F001C017F002C016F003C015F0C8
:10001800E1CF1BF0E2CF1CF0E9CF19F0EACF1AF0DC
:10002800220E0101136F000E146FACDA18C000F035
:1000380017C001F016C002F015C003F019C0E9FF9F
:0E0048001AC0EAFF1BC0E1FF1CC0E2FF11005E
:0A005600000EACB2010E006E1200A5
:0E006000ACB202D00000FCD712C1ADFF1200FE
:10006E0012C1C9FFC7B002D00000FCD7C9CF00F043
:02007E0012006E
:10008000AECF01F0ABA202D0AB98AB8801C000F0BC
:0200900012005C
:0A009200000E9EBA010E006E12006F
:0C009C0000000000000000000000120046
:1000A800F250026EF29E0500FF6A0150FE6E00508B
:0800B800FD6E02BEF28E120083
:1000C000818CECDF0B0E006E0DD0A90E026E022E9D
:1000D000FED7000001010B330B9F0B8FD8A002D07D
:1000E000818C02D0819C000000060052EEE11200DB
:1000F0008182D4DF0B0E006E0DD0A90E026E022E8F
:10010000FED7000001010B330B9F0B8FD8A002D04C
:10011000818202D08192000000060052EEE11200BE
:100120000B6A0A6A096A086A0E6A033408360450C0
:10013000085E0550D8A0053C095E0650D8A0063CD4
:100140000A5E0750D8A0073C0B5EE86AD8A0010EF3
:100150000E5E0336070E0C6E0334083609360A3677
:100160000B360E36045003A012D0085E0550D8A0FE
:10017000053C095E0650D8A0063C0A5E0750D8A090
:10018000073C0B5EE86AD8A0010E0E5E11D008266F
:100190000550D8B0053C09260650D8B0063C0A26C2
:1001A0000750D8B0073C0B26E86AD8B0010E0E26DF
:1001B00003360C2ED1D70234083609360A360B36F0
:1001C0000E36045003A012D0085E0550D8A0053C9E
:1001D000095E0650D8A0063C0A5E0750D8A0073C2E
:1001E0000B5EE86AD8A0010E0E5E11D008260550FD
:1001F000D8B0053C09260650D8B0063C0A26075060
:10020000D8B0073C0B26E86AD8B0010E0E2602369D
:10021000070E0C6E0234083609360A360B360E36D7
:10022000045002A012D0085E0550D8A0053C095E1B
:100230000650D8A0063C0A5E0750D8A0073C0B5ECB
:10024000E86AD8A0010E0E5E11D008260550D8B07D
:10025000053C09260650D8B0063C0A260750D8B0FF
:10026000073C0B26E86AD8B0010E0E2602360C2E8B
:10027000D1D70134083609360A360B360E3604500B
:1002800002A012D0085E0550D8A0053C095E0650B9
:10029000D8A0063C0A5E0750D8A0073C0B5EE86A6F
:1002A000D8A0010E0E5E11D008260550D8B0053C2E
:1002B00009260650D8B0063C0A260750D8B0073C9D
:1002C0000B26E86AD8B0010E0E260136070E0C6E1A
:1002D0000134083609360A360B360E36045001A0B2
:1002E00012D0085E0550D8A0053C095E0650D8A083
:1002F000063C0A5E0750D8A0073C0B5EE86AD8A00F
:10030000010E0E5E11D008260550D8B0053C092616
:100310000650D8B0063C0A260750D8B0073C0B263A
:10032000E86AD8B0010E0E2601360C2ED1D7003463
:10033000083609360A360B360E36045001A012D0A4
:10034000085E0550D8A0053C095E0650D8A0063CC2
:100350000A5E0750D8A0073C0B5EE86AD8A0010EE1
:100360000E5E11D008260550D8B0053C092606506F
:10037000D8B0063C0A260750D8B0073C0B26E86ADE
:10038000D8B0010E0E260036070E0C6E003408366B
:1003900009360A360B360E36045000A012D0085E1D
:1003A0000550D8A0053C095E0650D8A0063C0A5E60
:1003B0000750D8A0073C0B5EE86AD8A0010E0E5E7D
:1003C00011D008260550D8B0053C09260650D8B0F3
:1003D000063C0A260750D8B0073C0B26E86AD8B07E
:1003E000010E0E2600360C2ED1D700B00ED00450D0
:1003F00008260550D8B0053C09260650D8B0063C62
:0C0400000A260750D8B0073C0B2612005B
:10040C0080840DC111F1F5C0E1FFF6C0E2FF960E3C
:10041C00E66EF3C000F0F4C001F040DE01010E51B5
:10042C00960A04E00E51A90A01E002D00E710D8D5E
:10043C00F5C0E1FFF6C0E2FF0EC1E6FFF3C000F02D
:10044C00F4C001F02BDE010111070F6B0F51115D90
:10045C0034E30F510B25E96E000E0C21EA6EEE50C1
:10046C00960A0AE00F510B25E96E000E0C21EA6E7C
:10047C00EE50A90A01E01FD00F510B25016E000EA2
:10048C000C21026E01C0E9FF02C0EAFF010EEE185A
:10049C00006E01C0E1FF02C0E2FF00C0E6FF0FC129
:1004AC0001F0040E006E015004E000360090FF0FC6
:1004BC00FBD700500D130F2BC9D7800E0D11006EFA
:1004CC0000C00DF1F5C0E1FFF6C0E2FF00C0E6FF91
:1004DC00F3C000F0F4C001F0E1DD01010E510D1983
:1004EC00106F0F6B0F51115D1EE30F510B25006E3A
:1004FC00000E0C21016E00C0D9FF01C0DAFFDE50E6
:10050C00101BF5C0E1FFF6C0E2FF00C0E9FF01C01F
:10051C00EAFFEECFE6FFF3C000F0F4C001F0BEDD61
:10052C0001010F2BDFD7101D016E01C010F101501E
:10053C00960A04E01051A90A01E001D0102BF5C075
:10054C00E1FFF6C0E2FF10C1E6FFF3C000F0F4C01B
:10055C0001F0A4DDF5C0E1FFF6C0E2FFA90EE66EE6
:10056C00F3C000F0F4C001F099DDEFC000F0F0C072
:10057C0001F094DD0050000A01E1F7D780941200DD
:10058C00D8C000F0D9C001F089DD005201E135D1AD
:10059C00E0C000F0E1C001F081DD00C0DEF011D15F
:1005AC000001DE51960A03E1020EF76FDF6B25D1D5
:1005BC00DEC0DDF0030EF76F060E01011325E16EB0
:1005CC00000E1421E26EDEC0E6FF0001DE51DF1BDF
:1005DC0014D1800EDE15016E0150000A23E1DEAD50
:1005EC000DD0060E01011325E16E000E1421E26EF2
:1005FC00010E0001DD19006E00C0E6FFDEC0DCF06C
:10060C00DE51DF1B030EDE15016E01C0D6F001506A
:10061C00000A03E1050EF76F04D0010ED76F040E2C
:10062C00F76F0CD0050E01011325E16E000E14219D
:10063C00E26EFF0EE66E010E0001F76FDED0DE51AA
:10064C00A90A0DE1050E01011325E16E000E14211E
:10065C00E26EFF0EE66E010E0001F76FCED0D751A1
:10066C00D65D006E016A000E015A0050011013E0B5
:10067C00D705006E016A000E015A005001011325C6
:10068C00E16E01501421E26EDEC0E6FF0001DE5186
:10069C00DF1BD72B13D0D705006E016A000E015A51
:1006AC00005001011325E16E01501421E26EDEC0F1
:1006BC00E6FF050E0001F76FDE51DF1B9ED0DF1D3C
:1006CC00016E01C0DFF00150960A04E0DF51A90A67
:1006DC0001E001D0DF2BDF51DE1903E1060EF76FCD
:1006EC000CD0050E01011325E16E000E1421E26EF3
:1006FC00FF0EE66E010E0001F76F7FD0DE51A90AE6
:10070C0043E1010EF76F040E01011325E16E000E9B
:10071C001421E26EFF0EE66E030E1325E16E000E41
:10072C001421E26ED6C0E6FF010E0001D76FD7513F
:10073C00D65D29E3D7C001F0020E006E015004E033
:10074C0000360090FF0FFBD7DC51001619E0D705DF
:10075C00006E016A000E015A005001011325026E51
:10076C0001501421036E02C0E9FF03C0EAFF010E21
:10077C00EE18006E02C0E1FF03C0E2FF00C0E6FF0E
:10078C000001D72BD4D70CD0050E01011325E16E37
:10079C00000E1421E26EFF0EE66E010E0001F76FE3
:1007AC002CD0050E01011325E16E000E1421E26E12
:1007BC00FF0EE66E010E0001F76F1FD0010EF76FF2
:1007CC001CD00001F751010AD8B4EAD6F751020A3D
:1007DC00D8B4EED6F751030AD8B4FBD6F751040AB5
:1007EC00D8B42DD7F751050AD8B469D7F751060AF2
:0C07FC0085E0F751070AD5E0E1D71200B4
:100808000101086B0A0E085D0AE208510625E16E2F
:10081800000E0721E26E300EE66E082BF3D7085162
:100828000625E16E000E0721E26EE66A0807000E53
:10083800006E051908E10050041905E1005003197C
:1008480002E10251000A3EE008510625096F000E38
:1008580007210A6F0A0E046E000E056E066E076EFB
:1008680002C100F003C101F004C102F005C103F0A8
:1008780053DC08C000F009C001F00AC002F00BC048
:1008880003F0300E002609C1E1FF0AC1E2FF00C0F3
:10089800E6FF08070A0E046E000E056E066E076E68
:1008A80002C100F003C101F004C102F005C103F068
:1008B80033DC00C002F101C003F102C004F103C03F
:0608C80005F1B5D7120096
:0C08CE0092948094010E0001F76F12005C
:1008DA00FF0E0001F86FFF0EF96FFF0EFA6FFC6B47
:1008EA00FD6BFE6BF80E01010B6F000E0C6F010E13
:1008FA000D6F02C10EF185DD070E0C6E7D0E0D6EB9
:0A090A000D2EFED70C2EFCD71200B4
:0E091400939C939C938E818C819C818E12000B
:100922000900F5CFE6FF0006FBE10106F9E112003E
:10093200600E0001F36F000EF46F120EF56F010EE0
:10094200F66F800EE06F000EE16F000EE26F000E98
:10095200E36F920ED86F000ED96F000EDA6F000EA1
:10096200DB6F560EEF6F000EF06F000EF16F000E90
:10097200F26FAC8A900EAB6E948E949C9EAA03D0BA
:08098200AECF00F0FBD712001C
:0E098A009392939293848182819281841200D1
:100998000101042B02C1E9FF03C1EAFF01010407B9
:1009A800D8B41200EE50D8B41200006E00C00BF19B
:0809B80078EC00F0F3D7120007
:1009C00002C10BF178EC00F00D0E01010B6F78EC19
:0E09D00000F00A0E01010B6F78EC00F012002F
:1009DE0000018D510A0A1DE1030E4F6E0A0E4F5C87
:1009EE0018E24F500B0F006E016A000E0122370EF7
:1009FE000024E16E000E0120E26E8E0EE96E000EF6
:100A0E00EA6E4F50E926D8B0EA2AEECFE6FF4F2A1B
:100A1E00E5D78D51140A1DE1030E4F6E0A0E4F5C81
:100A2E0018E24F500B0F006E016A000E0122500E9D
:100A3E000024E16E000E0120E26E8E0EE96E000EB5
:100A4E00EA6E4F50E926D8B0EA2AEECFE6FF4F2ADB
:100A5E00E5D78D511E0A1DE1030E4F6E0A0E4F5C37
:100A6E0018E24F500B0F006E016A000E0122690E44
:100A7E000024E16E000E0120E26E8E0EE96E000E75
:100A8E00EA6E4F50E926D8B0EA2AEECFE6FF4F2A9B
:040A9E00E5D7120086
:100AA200086A080E0C6E003408360450085ED8B08E
:0E0AB20002D00826D89000360C2EF5D7120080
:100AC00001010351010A02E12C0E021913E14F6AE0
:100AD000240E4F5C0EE2990EE96E000EEA6E4F5046
:100AE000E926D8B0EA2AEECF0BF160EC00F04F2AED
:100AF000EFD750D001010351020A02E1580E02194A
:100B000049E100016851000A15E1010E686F4F6A62
:100B1000180E4F5C0EE2370EE96E000EEA6E4F5073
:100B2000E926D8B0EA2AEECF0BF160EC00F04F2AAC
:100B3000EFD730D000016851010A15E1020E686F4D
:100B40004F6A180E4F5C0EE2500EE96E000EEA6E10
:100B50004F50E926D8B0EA2AEECF0BF160EC00F056
:100B60004F2AEFD717D000016851020A13E1686BD2
:100B70004F6A180E4F5C0EE2690EE96E000EEA6EC7
:100B80004F50E926D8B0EA2AEECF0BF160EC00F026
:060B90004F2AEFD712000E
:100B9600ECEC08F00F0EC16E070EB46E92969298AA
:100BA60080968098EFDEB3DE94808290939A819A45
:100BB600B886020EB06E080EAF6EAC84B7DE030EBA
:100BC6000B6E8A0E0C6E550E0D6E0D2EFED70C2E6C
:100BD600FCD70B2EFAD70000000076DE030E0B6E54
:100BE6008A0E0C6E550E0D6E0D2EFED70C2EFCD7F2
:100BF6000B2EFAD7000000009D8A9D98F28CF28E8B
:100C060036C002F167DE27520DE08088410E0C6E79
:100C1600EE0E0D6E0D2EFED70C2EFCD70000809822
:100C2600276A266A2150000806E2010E1D26000EDC
:100C36001E221F2220222050000808E11F50000813
:100C460005E11E50360802E11D50B00817E21D6A84
:100C56001E6A1F6A206A216A8096296A326A336A86
:100C6600346A356A2E6A2F6A306A316A2A6A2B6AB2
:100C76002C6A2D6A520E0101026F9FDE2652D8B4ED
:100C86001ED12752D8A41BD12150000A5EE11D6A4D
:100C96001E6A1F6A206A326A336A346A356A808637
:100CA600990EE16E000EE26E2950E126D8B0E22AD6
:100CB600690EE66E292A28C08DF0990EE16E000EA7
:100CC600E26E2950E126D8B0E22A300E2824006EC2
:100CD60000C0E6FF292A22C000F0000E016E026E57
:100CE600036E005032260150332202503422035044
:100CF600352223C005F0000E066E076E086E07C08B
:100D060003F006C002F005C001F0006A005032266A
:100D160001503322025034220350352224C005F0FC
:100D2600000E066E076E086E06C003F005C002F0E0
:100D3600006A016A005032260150332202503422E2
:100D460003503522010E216EB8D02150010A39E137
:100D560022C005F0000E066E076E086E05C003F091
:100D6600006A016A026A005032260150332202509C
:100D760034220350352223C000F0000E016E026EAD
:100D8600036E00502E2601502F22025030220350AF
:100D9600312224C005F0000E066E076E086E07C0ED
:100DA60003F006C002F005C001F0006A00502E26CE
:100DB60001502F220250302203503122020E216EA2
:100DC6007CD02150020A38E122C005F0000E066EE2
:100DD600076E086E06C003F005C002F0006A016ADD
:100DE60000502E2601502F2202503022035031226D
:100DF60023C005F0000E066E076E086E05C003F0F0
:100E0600006A016A026A00502E2601502F22025003
:100E160030220350312224C000F0000E016E026E13
:100E2600036E00502A2601502B2202502C2203501A
:100E36002D22030E216E41D02150030A3EE123C02C
:100E460005F0000E066E076E086E07C003F006C0BA
:100E560002F005C001F0006A00502A2601502B223C
:100E660002502C2203502D2224C005F0000E066EDF
:100E7600076E086E06C003F005C002F0006A016A3C
:100E860000502A2601502B2202502C2203502D22DC
:100E960023C005F0000E066E076E086E05C003F04F
:100EA600006A016A026A00502A2601502B2202506B
:100EB6002C2203502D22040E216E266A286A215008
:100EC600040AD8A4CBD0809632C002F133C003F115
:100ED60034C004F135C005F18E0E0101066F000E17
:100EE600076F8FDC2EC002F12FC003F130C004F172
:100EF60031C005F1CB0E066F000E076F82DC2AC0EB
:100F060002F12BC003F12CC004F12DC005F1E40E53
:100F1600066F000E076F75DC990EE16E000EE26E2D
:100F26002950E126D8B0E22A450EE66E292A4F6AF4
:100F36000A0E4F5C15E2990EE16E000EE26E295024
:100F4600E126D8B0E22A8E0EE96E000EEA6E4F5008
:100F5600E926D8B0EA2AEECFE6FF292A4F2AE8D7B3
:100F6600990EE16E000EE26E2950E126D8B0E22A13
:100F7600530EE66E292A4F6A0A0E4F5C15E2990E49
:100F8600E16E000EE26E2950E126D8B0E22ACB0EC1
:100F9600E96E000EEA6E4F50E926D8B0EA2AEECF87
:100FA600E6FF292A4F2AE8D7990EE16E000EE26E77
:100FB6002950E126D8B0E22A420EE66E292A4F6A67
:100FC6000A0E4F5C15E2990EE16E000EE26E295094
:100FD600E126D8B0E22AE40EE96E000EEA6E4F5022
:100FE600E926D8B0EA2AEECFE6FF292A4F2AE8D723
:100FF6000101990EE16E000EE26E2950E126D8B08D
:10100600E22A230EE66E292A990E026F000E036F5E
:10101600240E046FBEDC0D0E01010B6F78EC00F0A0
:101026000A0E01010B6F78EC00F0D6DC580E0101B8
:10103600026F020E036F41DD216A296A326A336A42
:10104600346A356A2E6A2F6A306A316A2A6A2B6ACE
:101056002C6A2D6A1D6A1E6A1F6A206A010E00012B
:101066008527000E8623872388238851000808E1F8
:101076008751060805E18651680802E18551A008F6
:101086001BE2856B866B876B886B0A0E046E36C017
:1010960000F004DD300E00240101026F8EDC36C044
:1010A60002F118DC0A0E3624016E01C036F001503A
:1010B6001E0802E20A0E366E010E00018127000E9E
:1010C6008223832384238451000808E183512A085C
:1010D60005E18251B90802E18151800804E2816B81
:1010E600826B836B846B82A033D0010E8927000E3E
:1010F6008A238B238C238C51000808E18B51080826
:1011060005E18A513E0802E18951640820E281BA6C
:101116001ED0896B8A6B8B6B8C6B818A4F0E01019B
:101126000B6F78EC00F0460E01010B6F78EC00F0C7
:10113600460E01010B6F78EC00F00D0E01010B6FEE
:1011460078EC00F00A0E01010B6F78EC00F006D087
:101156000001896B8A6B8B6B8C6B819A54D5FFD798
:1011D80010EE1DF0710E006E010E016E660EF66EB9
:0E11E800110EF76E000EF86E91EC04F012007E
:041166000000000085
:01116A000084
:07116B00000000000000007D
:01117200007C
:041173000000000078
:041177000000000074
:04117B000000000070
:01117F000A65
:101180007261736572636F6D2E5253432C31303030
:0811900030303030302C0D0A24
:011198000056
:101199007261736572636F6D2E5253432C32303016
:0811A90030303030302C0D0A0B
:0111B100003D
:1011B2007261736572636F6D2E5253432C333030FC
:0811C20030303030302C0D0AF2
:0411CA000000000021
:0411CE00000000001D
:0411D2000000000019
:0111D6000018
:020000040030CA
:0E000000000C1E1EFF8381FF0FC00FE00F409B
:00000001FF
